:100000000080001017010000E1000000E300000084
:10001000E5000000E7000000E9000000000000002B
:10002000000000000000000000000000EB000000E5
:10003000ED00000000000000EF000000F1000000F3
:10004000F3000000F3000000F3000000F3000000E4
:10005000F3000000F3000000F3000000F3000000D4
:10006000F3000000F3000000F3000000F3000000C4
:10007000F3000000F3000000F3000000F3000000B4
:10008000F3000000F3000000F3000000F3000000A4
:10009000F3000000F3000000F3000000F300000094
:1000A000F3000000F3000000F3000000F300000084
:1000B000F3000000F3000000F3000000F300000074
:1000C000F3000000F3000000F3000000A81500009A
:1000D00000000010040000000400001018000000E0
:1000E000FEE7FEE7FEE7FEE7FEE7FEE7FEE7FEE7E8
:1000F000FEE7FEE710B50023934203D21C585C5084
:100100000433F9E710BD00238B4203D200221A50BA
:100110000433F9E7704710B50B4C0C4B9C4207D2E7
:1001200094E803000C3454F8042CFFF7E3FFF4E7E1
:10013000074B9C4205D294E80300FFF7E4FF083424
:10014000F6E701F069F8FEE7CC000000D8000000F7
:10015000E0000000154B0322C3F804210022C3F87D
:100160000C21134AAA21C3F8842001205522C3F888
:100170008C10C3F88C20C3F88000C3F88C10C3F82F
:100180008C20D3F88810094A4901FAD50323C2F814
:100190008030AA23C2F88C305523C2F88C30034B30
:1001A000D3F8883013F0407FF9D0704700C00F407B
:1001B0002F00010010B50C4611461A4620B9204602
:1001C000BDE8104000F004BD2046BDE8104000F03E
:1001D000ADBC38B5036A05468B420C460CD059B10C
:1001E000407805F1240122460123FFF7E3FF08B917
:1001F0002C6238BD012038BD002038BD10B5044642
:100200000A46407804F124010123FFF7D3FFA0B987
:10021000B4F822224AF655239A4210D1D4F85A3023
:1002200023F07F42074B9A420AD0D4F8760020F0A0
:100230007F40C01A18BF012010BD032010BD02204E
:1002400010BD00BF4641540008B5437813B900F013
:10025000BDFC01E000F068FC10F0010F14BF0320AA
:10026000002008BDC3680239023B99423DBF827835
:10027000C36902FB0130002070470129F8B504462C
:100280000D4648D9C368994245D20378022B25D040
:10029000032B2FD0012B3BD101EB5106416901EB20
:1002A0005621FFF796FF98BB6169C6F30803013634
:1002B0002344204601EB562193F82470FFF789FF71
:1002C00030BBC6F30806344494F82400EB0747EA31
:1002D00000204CBF0009C0F30B00F8BD416901EBE1
:1002E0001521FFF776FF98B96D0005F4FF752C44D2
:1002F000A08CF8BD416901EBD511FFF76AFF38B951
:10030000AD0005F4FE752C44606A20F07040F8BD25
:100310004FF0FF30F8BD0120F8BD816838B50129E4
:100320004FF000030446C38001D1022038BD0568A8
:10033000EB689942F9D261B92B78032B01D1A969F5
:1003400039B90023E3602B89002BEED0AB69236120
:1003500013E0AB7863B92068FFF78FFF431C0146B9
:100360000FD00128E1D92368DB689842F3D3DCE79A
:10037000E1602846FFF776FF2061243565610020A3
:1003800038BD012038BD0000012810B50CD8074A3F
:1003900052F820300BB100241C7009B100230B70FF
:1003A00042F82010002010BD0B2010BD08000010E6
:1003B0002DE9F0470023036091F800808AB0A8F18E
:1003C0003008B8F1090F06460D4617460BD84A7893
:1003D0003A2A08D1B8F1010F01F1020588BF0B20BC
:1003E00000F2AD8000E09846A64B53F828400394F5
:1003F000002C00F09D80237843B9002323705FFA1E
:1004000088F363706BB900F0DFFB0CE0637813B91D
:1004100000F0DCFB01E000F087FB10F00100ECD104
:100420008DE000F0EBFA10F0010840F083802046E8
:100430004146FFF7E3FE012809D194F8E631002B8D
:100440007CD0D4F8EA8120464146FFF7D7FE032846
:1004500072D0002872D1B4F82F30B3F5007F6DD17F
:10046000638F03B9A36C94F834A023610AF1FF32BF
:10047000012A84F803A061D894F831200AFB03FA1A
:10048000A270002A5AD0511E114257D1B4F835003B
:100490000107208152D1B4F8371001B9616CB4F86A
:1004A00032C0BCF1000F49D00CEB1019D1444945C2
:1004B00044D3C9EB0101B1FBF2F2002A3ED040F671
:1004C000F5718A4206D94FF6F5718A428CBF032135
:1004D000022100E00121C1440232E0440329E2602C
:1004E000C4F81C90C4F8148004D138BB206D92006D
:1004F000A0610DE010B30AEB08000229A0614FEAE9
:1005000042001BBF801802F00102024602EB5002BB
:1005100002F2FF12B3EB522F10D35B4A0020138874
:10052000217001339BB21380E3802062207106E0CA
:100530000C2004E0032002E0012000E00D2000ABCD
:100540000993002840F0CC802B782F2B01D05C2B16
:1005500000D101352B7800241F2B059448D803A81F
:10056000FFF7DBFE0894BBE02022E25401330B2BA3
:10057000FAD100229446082011460CF1010C05EB3B
:100580000C0818F8013C202B35D8202B45468CBF91
:1005900000230423002A00F0A2802278E52A04BF69
:1005A00005222270082804BF8900C9B201F00302A5
:1005B000012A01F00C0108BF43F01003042908BF11
:1005C00043F00803E37203A8FFF7A7FE00284ED00C
:1005D000099BDB7A002879D15C0700F18180089BB8
:1005E000DA7AD10679D59A8A5B8B43EA024305937E
:1005F000099C0023B8E72F2BC7D05C2BC5D02E2B2E
:1006000000F09E8082426AD213F0800F67D1DFF83B
:100610007C9019F8018FB8F1000F6AD09845F8D195
:100620005DE0089A1378002B00F09180D17A01F0F8
:10063000080101F0FF0339B9099CD15C0133E018CE
:1006400010F8010C884219D0BDF812400134A4B250
:10065000002C7CD0079B002B79D014F00F0817D00A
:10066000039BADF8124003EB48132433089303981F
:100670000799FFF7AEFD0028D3D0A9E70B2BDCD1FB
:100680000020A5E708000010040000102F1400004F
:10069000069901330793039819B90389A34256D9E0
:1006A000DEE78378013B13EA1413D9D1FFF7E5FDA8
:1006B000012801464DD9431C4DD00398C368994287
:1006C00045D20691FFF7CEFD0790C9E7042807D170
:1006D00013F0040F08BF052002E0052000E006200B
:1006E000089B002839D1C3B1DA7AD20617D5042085
:1006F00033E0A3F14108B8F1190F02D841F002012B
:1007000008E0A3F16108B8F1190F03D8203B41F0CC
:100710000101DBB2A35401322FE706201DE007F0F0
:100720000107B771998A5A8B42EA01423261DB694B
:10073000B060F360039BB0613360DB88B3800CE092
:100740000828CCD189000246C9B20B2015E7042045
:100750003EE702203CE701203AE70AB0BDE8F08717
:100760002DE9F84F0446006899460023C9F8003087
:1007700088461646A388002800F095800278002A53
:1007800000F09180C2889A4240F08D80FFF75CFDB6
:100790000546002840F08C80A379190600F1858079
:1007A000DA0740F18480E168A368CF1ABE4238BFFF
:1007B0003746002F7CD0A368C3F30802002A36D145
:1007C000206890F802B00BF1FF3B0BEA532B1BF0B3
:1007D000FF0B0AD10BB9206902E06169FFF74DFDFB
:1007E000012809D9431C2FD06061D4F800A06169A9
:1007F0005046FFF737FD20B9A37963F07F03A3715B
:1008000053E07E0A00EB0B0210D09AF8023006EBA0
:100810000B01994288BFCBEB03069AF801004146D1
:10082000F3B2FFF7C7FC78B9760231E0A261A6689F
:100830002068C6F30806C6F50076A169B74238BF3E
:100840003E46FFF7C6FC28B1A379012563F07F037C
:10085000A3712DE0A368C3F308022368134403F1D6
:100860002402331A032B04D9135848F800300430FB
:10087000F7E726F00303D01806F0030143440022F3
:100880008A4205D010F802C003F802C00132F7E72F
:10089000A368B0443344A360D9F80030BF1B33448D
:1008A000C9F8003085E7092502E0022500E00725A8
:1008B0002846BDE8F88F10B504460068A28848B104
:1008C000017839B1C188914204D1FFF7BDFC10B95C
:1008D000206010BD092010BD044B9860DA68D20674
:1008E000FCD4024B9868C0B2704700BF00000340C0
:1008F000FF20FFF7F1BF4FF0402310B59C6804F5CF
:10090000FA74FFF7F5FFFFF7F3FFFF2804D04FF06D
:1009100040239B68A342F6D310BD4FF0402370B52F
:100920009C6805460E466434FFF7E2FFFF2805D1B8
:100930004FF040239B68A342F6D319E0FE2817D15D
:100940002C46FFF7D5FF2070FFF7D2FF6070FFF74E
:10095000CFFFA070FFF7CCFF043404F8010CAB19F3
:10096000A342EED1FFF7C4FFFFF7C2FF012070BD25
:10097000002070BD020638B504460D4607D5772025
:100980000021FFF7F7FF012835D804F07F041A4B48
:100990004FF000729A61DA61FFF7ADFFFF2818BFD0
:1009A000FF2028D12046FFF797FF280EFFF794FF7E
:1009B000C5F30740FFF790FFC5F30720FFF78CFF53
:1009C000E8B2FFF789FF402C04D0482C0CBF8720E9
:1009D000012000E09520FFF77FFF4C2C01D1FFF7AD
:1009E00087FF0A24FFF784FF030604D5013C14F0B7
:1009F000FF04F7D138BD38BD20C00920474B642221
:100A00002DE9F3411A610A24013CFFF771FF14F04C
:100A1000FF04F9D1424D4FF00073EB6140202146B5
:100A2000FFF7A8FF0128A84601D0002665E04FF097
:100A3000402348204FF4D5719D68FFF79BFF0128A4
:100A400005F57A7537D12646FFF752FF01AFB85545
:100A50000136042EF8D19DF80630012BE5D19DF822
:100A60000730AA2BE1D14FF040239B68AB4205D35E
:100A70004FF040239B68AB42D7D207E0E9204FF00C
:100A80008041FFF777FF0028EDD1F1E77A200021C0
:100A9000FFF770FF0028C8D10546FFF729FF7855FA
:100AA0000135042DF9D19DF8043013F0400F0CBF2F
:100AB00004260C2621E0E9202146FFF75BFF0128F0
:100AC0008CBF012602268CBF4127E9274FF0402327
:100AD0009B68AB420AD34FF040239B68AB420CD3D8
:100AE0004FF400715020FFF745FF06E03846002123
:100AF000FFF740FF0028E9D1EDE70A4B1E704FF0E9
:100B00000073C8F818301EB1044B04221A6100E0CB
:100B10000324204602B0BDE8F08100BF000003407E
:100B200020C00920180000100020704770B505464D
:100B30001446002A35D01C4B4FF00072DA611B4A74
:100B40001E46127812F0080F08BF4902012C0DD181
:100B50005120FFF70FFFE8B928464FF40071FFF767
:100B6000DCFED0F1010438BF002413E05220FFF76F
:100B700001FF78B928464FF40071FFF7CEFE28B187
:100B8000013C14F0FF0405F50075F3D14C20002161
:100B9000FFF7F0FE4FF00073201CB36118BF012077
:100BA00070BD042070BD00BF20C0092018000010D7
:100BB000044B9860DA68D206FCD4024B9868C0B245
:100BC000704700BF000003400020704700207047BE
:100BD000174B70B5560240224C02DA610546E820F8
:100BE000FFF7E6FFC4F30740FFF7E2FFC4F3072077
:100BF000C0B2FFF7DDFF0020FFF7DAFFFF20FFF7AD
:100C0000D7FFFF20FFF7D4FFFF20FFF7D1FFFF2022
:100C1000FFF7CEFF0024B44205DA285DFFF7C8FFD6
:100C200028550134F7E7024B40229A61002070BD3D
:100C300000C0092000B581428BB009D3322305934F
:100C40000690079105A86946034B9847009800E075
:100C50000C200BB05DF804FBF11FFF1F00B5332320
:100C60008BB00593084B08921A684FF47A73B2FB65
:100C7000F3F306900791099305A86946034B98473B
:100C800000980BB05DF804FB00000010F11FFF1F7F
:100C900000B581428BB010D334230593094B0690E5
:100CA0001A684FF47A73B2FBF3F30791089305A81F
:100CB0006946054B9847009800E00C200BB05DF8A2
:100CC00004FB00BF00000010F11FFF1F10B51C4601
:100CD0008AB0382305930690079105A808926946C3
:100CE000044B984700980A2802D10CB1019B23605D
:100CF0000AB010BDF11FFF1F154B0001D3F8C4202F
:100D000042F00802C3F8C420124A116821F0F00131
:100D10001160116841F050011160D3F8A82122F050
:100D2000C002C3F8A821D3F8A82142F04002C3F8BA
:100D3000A821A3F5702380221A7300221A71064A93
:100D40001268B2FBF0F2D2B21A7003221A73704723
:100D500000C00F4000C0024000000010024B1A7D8E
:100D60005206FBD51870704700C000404FF4803326
:100D7000002053F8042BB3F5002F1044F9D170472D
:100D800010B50023934203D0CC5CC4540133F9E77F
:100D900010BD0244904202D000F8011BFAE77047F0
:100DA0004FF040239B6818444FF0402292688242E3
:100DB000FAD370474FF040239B681844064B1A7DC6
:100DC000D20702D51878C0B270474FF040239B6815
:100DD0008342F3D9FF20704700C0004010B5441E85
:100DE00014F8010F10B1FFF7B9FFF9E710BD08B50E
:100DF000FFF7F4FFBDE808400A20FFF7AFBF00008F
:100E000007B54FF4FA70FFF7CBFF00238DF80730DA
:100E1000044B1B78DBB28DF807309DF8073003B028
:100E20005DF804FB00C0004010B59EB07822044677
:100E30000B496846FFF7A4FFADF10402002352F806
:100E4000041F8C4202D351688C4205D301331E2B00
:100E5000F5D14FF0FF3000E018461EB010BD00BFC6
:100E600040140000F0B5ADF5805D85B00746002167
:100E700068461022FFF78DFF002604AD34464FF47C
:100E8000FA70FFF797FF285501340644B4F5805FE8
:100E9000F6B2F4D14FF4FA70FFF78CFF864203D01C
:100EA000FFF7AEFF402026E007F11006360330467C
:100EB000FFF7BAFF431C01461AD0FFF7BBFE104BE9
:100EC00029461A68304602F580521A6000232246ED
:100ED000019345F8103CFFF7C1FE304629462246F3
:100EE0006B46FFF7F3FE002814BF5E20212002E0CE
:100EF000FFF786FF5E200DF5805D05B0F0BD00BFF9
:100F0000140000102DE9F0478CB0054600AF07F142
:100F1000140029460122FFF74BFA38B13F48FFF78A
:100F20005DFF2846FFF763FF002072E04FF480303A
:100F3000FFF77AFF0646386A00F58030FFF774FF46
:100F4000814649463046FFF775FE08B1344805E052
:100F500030464946FFF79CFE38B13248FFF747FF5D
:100F600007F11400FFF7A7FCDEE74FF040239A6873
:100F70002D4BEA46ADF5805D6E4638601A604FF441
:100F80008034984607F1140031464FF480523B46B6
:100F9000FFF7E6FB814628BB3B681BB3234A20468C
:100FA00011680B441360FFF73FFF0146FFF742FE55
:100FB00031464FF480522046FFF750FE494610223A
:100FC000381DFFF7E6FE204631464FF480523B1DA8
:100FD000FFF77CFE18B11648FFF709FF02E004F5A1
:100FE0008054CFE74FF040239A68D8F8003007F1DB
:100FF0001400D31AC8F80030FFF75DFC0D48FFF766
:10100000EDFE2846FFF7EAFE0B48FFF7F0FE012051
:10101000D5463037BD46BDE8F08700BFB8140000A4
:10102000C2140000DA1400001000001014000010B8
:10103000F0140000081500000E15000010B5AA20DD
:10104000FFF78CFE4FF4FA70FFF7B4FE0446FFF78B
:1010500085FE1D211020FFF7EDFD1D211020FFF75B
:1010600017FE11480134B0FBF4F0FFF745FE0F48BE
:10107000FFF7BDFE2120FFF771FE4FF4FA70FFF776
:1010800099FE04464FF4FA70FFF794FE4FF6FF7393
:1010900040EA0420984202D0FFF7E4FEEBE72A2062
:1010A000BDE81040FFF75ABEC0C62D00281500004D
:1010B00080F30988704780F308887047274B4FF406
:1010C000803210B59A60264BAA20D3F88020552193
:1010D00022F00202C3F88020C3F88C00C3F88C1001
:1010E000D3F8802022F00102C3F880200022C3F848
:1010F0008C00C3F88C10C3F80C21C3F88420C3F80B
:101100008C00C3F88C101749C3F80421086820F03C
:10111000F0000860D3F8A811802021F0C001C3F8C6
:10112000A811114908730A710A700A734FF040211F
:101130004A600A67D3F8A80120F00C00C3F8A801A0
:101140000A4BCA604FF6F4701C68FFF7B1FF4FF608
:10115000F470FFF7B0FFA04710BD00BF00ED00E046
:1011600000C00F4000C0024000C000400400010069
:1011700010B5C0B004464FF4704168464FF4807219
:10118000FFF7FEFD029B013304BF00230293039B84
:1011900013B94FF0FF3303931A4B1B680493009B62
:1011A0000133009314B1019B01330193164B029A52
:1011B0001B689342039A88BF0293934238BF0393FC
:1011C000124BD3F8C4309B0507D5114B1B7A23B1C2
:1011D000104A05AB07CA83E807000F200146FFF756
:1011E00029FD0F200146FFF753FD0F200146FFF7B1
:1011F00021FD69464FF480724FF47040FFF72EFDD9
:1012000040B010BD100000101400001000C00F40CE
:1012100000400240144002402DE9F041ADF5896DD7
:10122000FEF798FF4FF0402501236B60714E0023BD
:101230002B67D6F8A8314FF4164023F00C03C6F8FC
:10124000A831D6F8A8316C4C43F00403C6F8A83195
:101250006A4B1A684FF47A73B2FBF3F3EB60FFF753
:101260004BFD0A20FFF7A6FDFF20FFF777FD644B3B
:101270005A6C644B6769D31AD3F1000807F4C0674E
:1012800058EB0308B7F5C062574257413346B8F1EF
:10129000000F02D1002F00F08E80D3F8C4206946E1
:1012A00042F48062C3F8C420D3F8A821002022F4BD
:1012B0004012C3F8A821D3F8A82142F48012C3F841
:1012C000A821514B07221A6002225A6004221A6197
:1012D000A3F580431A6822F47C221A601A6842F44B
:1012E00028221A60494B40229A611A6842F0400253
:1012F0001A604FF00073A361236843F0007323600A
:10130000FFF742F8012089A9FFF73EF84048FFF7B0
:1013100065FDB8F1000F0DD0394B00225A643D48ED
:10132000FFF75CFD3C48FFF762FDFFF71FFD054638
:10133000384814E0EFB13948FFF750FD3848FFF75F
:101340004DFD3848FFF74AFD3748FFF750FDFFF7DE
:101350000DFD05463148FFF7D5FD18B93148FFF7B7
:10136000D1FD30B1FFF702FD281A18BF0120FFF7A9
:10137000FFFE204BD3F8A82122F44012C3F8A82185
:10138000A3F54C2300221A605A601A61A3F580432A
:101390001A6822F47C221A601C4B1A6822F0400260
:1013A0001A60226822F0007222604FF00072E2613F
:1013B0004022DA6118E04FF4FA70FFF7FBFC552881
:1013C00012D1FFF7D3FC194CAB6806462360FFF738
:1013D00035FEAA682368D31A2360FFF7C7FC301ACA
:1013E00018BF0120FFF7C4FE0520FFF7D9FCFFF767
:1013F00065FEFEE700C00F4020C00920000000107D
:10140000004002400DD0ADDE0000034000C00920C6
:1014100040150000484002405515000070150000BE
:101420007B150000821500008D15000010000010D3
:10143000222A2B2C3A3B3C3D3E3F5B5D7C7F0000EB
:10144000000000000010000000200000003000003C
:10145000004000000050000000600000007000002C
:10146000008000000090000000A0000000B000001C
:1014700000C0000000D0000000E0000000F000000C
:101480000000010000800100000002000080020056
:10149000000003000080030000000400008004003E
:1014A0000000050000800500000006000080060026
:1014B00000000700008007004E6F2066696C653AE7
:1014C00020004572726F7220707265706172696E71
:1014D0006720736563746F7273004572726F722058
:1014E00065726173696E6720736563746F727300F0
:1014F0004572726F7220766572696679696E6720CF
:10150000736563746F72730046696C6520002073A5
:1015100075636365737366756C6C792070726F6741
:1015200072616D6D65642100244C5043313735384C
:101530003A343039363A33323736383A3531320088
:101540000A54727920746F20666C61736820667229
:101550006F6D202700272028726567697374657294
:1015600020696E737472756374696F6E73292E00CF
:10157000303A70726F672E62696E0027204F5220DA
:101580002700313A70726F672E62696E002720283B
:101590007472696767657265642062792062757428
:0815A000746F6E732900FFFF58
:0415A800006CDC02F5
:0400000300000117E1
:00000001FF
