:020000021000EC
:10000000E03F082091010100FD000100E100010036
:100010000D0101001D0101002D0101000000000083
:1000200000000000000000000000000085A40100A6
:100030003D0101000000000015A501005D01010067
:10004000B1AA0100B1AA0100B1AA0100B1AA010040
:10005000B1AA0100B1AA0100B1AA0100B1AA010030
:10006000B1AA0100B1AA0100B1AA0100B1AA010020
:10007000B1AA0100B1AA0100B1AA0100B1AA010010
:10008000B1AA0100B1AA0100B1AA0100B1AA010000
:10009000B1AA0100B1AA0100B1AA0100B1AA0100F0
:1000A000B1AA0100B1AA0100B1AA0100B1AA0100E0
:1000B000B1AA0100B1AA0100B1AA0100B1AA0100D0
:1000C000B1AA0100B1AA0100B1AA0100CC5B0200F3
:1000D00000C00720BC010000C0C1072004040000CC
:1000E00004207146084200F00480EFF309800AF012
:1000F000FDBCEFF308800AF0F9BC704708B5024870
:1001000007F0ECFAFEE700BF4A55020008B50248C6
:1001100007F0E4FAFEE700BF5555020008B50248B3
:1001200007F0DCFAFEE700BF6055020008B50248A0
:1001300007F0D4FAFEE700BF6B55020008B502488D
:1001400007F0CCFAFEE700BF7855020008B5024878
:1001500007F0C4FAFEE700BF8655020008B50AF0B2
:1001600057F90AF0F9F9BDE808400AF065B910B589
:100170000023934203D21C585C500433F9E710BDAE
:1001800000238B4203D200221A500433F9E7704750
:1001900015480AF063FA14480AF063FA134C144B3A
:1001A0009C4207D294E803000C3454F8042CFFF767
:1001B000DEFFF4E70F4B9C4205D294E80300FFF703
:1001C000DFFF0834F6E70CF043FA0AF061FA01F0B9
:1001D000D5FD02F0D7FC4FF416400AF0ABFD0648FF
:1001E00007F07CFAFEE700BFE03F0820CC000100EA
:1001F000D8000100E00001009A550200134A70B5D2
:100200001168034611B94FF0805111601068104910
:10021000C518104E2944B14298BF0F480B4C96BFE9
:1002200019182560216011680C4A914203D90C49C4
:10023000064A002011603BB10A4A11680131116081
:10024000094A1060094A136070BD00BFC4C107208D
:10025000FF7FFFEFFE3F0710C4C50720FF3F0820C8
:1002600000400820CCC10720C0C10720C8C107201A
:100270000CF02ABA0CF030BA0CF02EBA10B58AB0D5
:10028000044668460CF0A8FE204B214A2360089BD8
:100290002049A360079B636053B90B681E488342E3
:1002A0008ABF03F1604303F17043A3F5E823636061
:1002B0006368B3F5803F04D903F17043A3F5E823E5
:1002C00063600023E3600B6813498B4205D8C2F1D9
:1002D000405202F50C22D21A09E010498B4207D88D
:1002E000C2F1804202F58012D21A002A00DDE260DB
:1002F000E3610B4B20461B68A3610A4B1B686361DB
:10030000094B1B6823610AB010BD00BFC405000083
:10031000C4C50720C4C1072000800010FF3F08208B
:10032000C0C10720C8C10720CCC10720FEE70000DC
:10033000014B1860704700BFD4C10720014B186003
:10034000704700BFD0C1072008B502480CF08CFFF1
:10035000FEE700BF342B020008B502480CF084FF12
:10036000FEE700BF4E2B02000020704701207047BF
:10037000F8B5084B15461A680E461F463AB10024D8
:10038000AC4204DA305D3A6890470134F8E7284619
:10039000F8BD00BFD4C10720F8B5094B0E46186858
:1003A00015461F4650B10024AC4205DA3A680020D9
:1003B000904730550134F7E725EAE570F8BD00BFF6
:1003C000D0C107207047002070470000074B1B6812
:1003D0009A68824207D05A68824204D0DB681B1AAE
:1003E0005842584170470120704700BF40C1072064
:1003F000002070470020704730B504468DB00028BB
:1004000035D0684608F08CF99DF80030002503F0DF
:100410003F0303939DF8013003A803F03F030493C7
:100420009DF802300B9503F01F0305939DF80430EF
:1004300003F01F0306939DF8053003F00F03013B03
:100440000793BDF80630C3F30B03A3F26C73089354
:100450009DF8033003F007030993BDF80830C3F398
:100460000B03013B0A930CF05BFA84E821000020A7
:100470000DB030BD70B50F4C0F4D266816F001065B
:1004800015D120460AF0E6FE88B14FF40E70FFF752
:10049000EFFE302280F835223A2280F8346280F86C
:1004A000362280F83762286020460AF0E1FE28688C
:1004B00070BD00BFF4C10720DCC1072070B50F4C30
:1004C0000F4D236813F0010616D120460AF0C2FE34
:1004D00090B14FF40E70FFF7CBFE012280F834226A
:1004E000312280F835223A2280F8362280F83762AD
:1004F000286020460AF0BCFE286870BDF0C10720C5
:10050000D8C107202DE9F047ADF50A7D0E4607F06A
:100510005DFD041E04DD09F047FF204609F0D6FC0E
:100520000DF114092B4D4C460FCD0FC42B68102133
:100530000DEB010200250AA82360049509F0F0FCE8
:1005400025498246254A304608F084FB2F460FACE9
:100550004FF00008D0451FD02368AB4218D1636824
:10056000049A1F4422B16421B2FBF1F2B3FBF2F210
:1005700014F808EC009521890292890001910393F7
:100580003046174954F8102C59F82E3008F062FB09
:1005900008F101082034DDE70135052DD7D1049B92
:1005A0006422DF1BB3FBF2F30E490F4AB7FBF3F3F0
:1005B0000097304608F04EFB09F068FB102804D97C
:1005C00030460A49102208F045FB01200DF50A7D4E
:1005D000BDE8F087682B0200872B0200AE2B0200DB
:1005E000B32B0200D02B0200EF2B0200FA2B0200EB
:1005F00010B5ADF5007D0C4668460AF0DFF92046DF
:1006000069464FF0FF3208F0EFFA01200DF5007D4A
:1006100010BD000030B50C4691B02C49054607F0DE
:10062000DEFB002847D008AB009309AB01930AAB6F
:1006300002930BAB03930CAB04932846244906AA00
:1006400007AB07F031FB072801D000203BE09DF805
:100650003930069A0DA862F303038DF83930079AF2
:100660009DF8383062F304038DF83830089ABDF8ED
:100670003A3062F30B03ADF83A30099A9DF8363000
:1006800062F304038DF836300A9A9DF8353062F330
:1006900005038DF835300B9A9DF8343062F305036D
:1006A0008DF834300C9A9DF8373062F302038DF8E0
:1006B000373008F05FF808F0F9F80649024620469E
:1006C00008F0C8FA012011B030BD00BF9D450200FE
:1006D000242C02008A4D0200F7B50D46514904460C
:1006E00007F070FC064640B106F0F4FE28464E497D
:1006F0004FF0FF3208F078FA91E020464B4907F0BE
:1007000061FC60B306F00AFF49490246284608F03A
:10071000A1FA06F00FFF47490246284608F09AFA68
:1007200006F002FF44490246284608F093FA304694
:1007300006F0EAFE0646012006F0E6FE0446022028
:1007400006F0E2FE0746032006F0DEFE0097019069
:100750003A4928463246234608F07CFA5FE02046B4
:10076000374907F03CFB50B101212022204607F019
:10077000D7FB204607F028FC06F090FF4FE020460C
:10078000304907F02CFB064628B920462E4907F0D1
:1007900026FB002831D001212046202207F0C0FB93
:1007A00020462A4907F033FB60B92046284907F064
:1007B0002EFB28B92046274907F029FB044602E012
:1007C000032400E002242046314606F0B9FE224B05
:1007D000224A002E18BF1A463CB1012C07D01B4BF1
:1007E0001B49022C18BF0B4602E01D4B00E0194BC1
:1007F00028461C4908F02EFA11E0204607F0E4FBD9
:1008000019491A4A0090F723012006F0A7FE204656
:1008100007F0DAFB16490246284608F01BFA0120C9
:1008200003B0F0BD5F2C0200652C02007E2C02009C
:10083000852C02009A2C0200AF2C0200CE2C020064
:10084000FE2C0200022D02000A2D02005A2C02008A
:10085000542C0200C24402003D2C0200452C020030
:100860004E2C0200132D02002C2D02007C2B0200C6
:100870005F2D020030B589B004AB002400930D4613
:100880000222194903AB0394049407F01BFA0228CF
:1008900027D107AB009305AA0398049906AB0594EA
:1008A0000694079403F0E0FB024638B1049B284607
:1008B00000930E49039B08F0CDF910E0059A069BC2
:1008C000002A079C08BF0122002B08BF01232846ED
:1008D0000749B4FBF2F2B4FBF3F308F0BBF90120D3
:1008E00000E0204609B030BD5A3E02006D2D0200E6
:1008F0008C2D02002DE9F04F8846ADF2344D4B4966
:10090000044607F0F9FA4A498146204607F01CFBE5
:100910002046474907F038FB0023464940468DF8FA
:10092000073008F097F9D8F8003040461B680DF101
:1009300007014FF0FF3298479DF80730782B70D0B1
:10094000204607F041FB0122014683A805F0A8FBE1
:10095000054640B1204607F037FB3749024640467E
:1009600008F078F95DE00DF10C0B29464FF40072A8
:1009700058460BF0FAFE02950AF00CF8AA46064615
:100980000F4683A859464FF4007202AB05F01AFCDB
:1009900008B9029B33BB83A805F0F6FDB9F1000F3F
:1009A00019D009F0F7FF4FF47A7200230BF066FAC2
:1009B0004FF47A7204460023304639460BF05EFA53
:1009C000201A14BF034601231C4940465246BAFB75
:1009D000F3F308F03FF9404619494FF0FF3208F0B1
:1009E00003F91EE09A44B9F1000FCAD14C46029BAC
:1009F0009C42D8F8003008D21BF804105B684046CF
:100A00004FF0FF3298470134F1E71B6840460DF183
:100A100007014FF0FF3298479DF80730782BB0D18F
:100A2000B9E701200DF2344DBDE8F08FBA2D020078
:100A30005A3E0200C32D0200062E02001A2E0200AA
:100A4000A83302002DE9F0470023BEB00C465349FD
:100A500005460C9307F0B6FA20B9284607F0B4FA19
:100A6000054600E04E4D15A8294605F04CFE074608
:100A700020462FB14B492A463B4608F0EBF888E068
:100A800049492A4608F0E6F8B8460DF1780980236E
:100A900015A80DA9CDF84C90149305F073FE00280D
:100AA0005FD19DF83D30002B5BD09DF83C600D99E7
:100AB00016F0100F02D00137442205E00C9B08F11C
:100AC00001080B440C932D2216F0010F0CBF2D23AF
:100AD000522316F0020F0CBF4FF02D0A4FF0480AB8
:100AE00016F0040F0CBF4FF02D0C4FF0530CBDF857
:100AF000380016F0200F0CBF4FF02D0E4FF0410EB6
:100B00008DE800544FEA602EBDF83A600EF2BC7ECC
:100B1000CDF80CE0C0F3431E00F01F0005900891D3
:100B2000F0120DF13D01C6F34516CDF810E0069028
:100B30000991079620461D4908F08CF820461C496B
:100B40004FF0FF3208F03DF8494620464FF0FF32A3
:100B500008F037F8204611494FF0FF3208F044F80A
:100B600093E700973EAE56F8C83D124942462046EC
:100B700008F070F8284631460BAA05F032FE40B95D
:100B80000B9B20469A780C9B0B495A43520808F05D
:100B900061F801203EB0BDE8F08700BFA833020035
:100BA000352E0200382E02005C2E0200772E020045
:100BB000A42E0200A82E0200D22E020070B50E460E
:100BC000054607F001FA0446284607F0FDF905F04E
:100BD000CAFE064A064B0749002818BF134630468E
:100BE000224608F037F8012070BD00BF92300200A5
:100BF00088300200E62E020070B50E46054607F06A
:100C0000E3F90446284607F0DFF905F04FFE064AEF
:100C1000064B0749002818BF13463046224608F005
:100C200019F8012070BD00BF923002008830020028
:100C3000022F02007FB503AB002400930E46022270
:100C40000F4902AB0294039407F03CF8022814D138
:100C5000029D039C2846214605F030FF094B0A4AB5
:100C60000A49002814BF1046184600902A4630460C
:100C7000234607F0EFFF012000E0204604B070BDDE
:100C80005A3E02008830020092300200142F020007
:100C900030B5ADF50D7D0C46054607F095F90A22F5
:100CA000014603A805F0FCF940B1284607F08CF98D
:100CB0001F490246204607F0CDFF35E08DF80700BA
:100CC00002901C4920467E2242F2107307F0C2FFB8
:100CD0001949204607F0BEFF236820461B680DF126
:100CE000070142F21072984718B19DF807307E2B29
:100CF00003D103A805F048FC16E003A80DF1070195
:100D0000012202AB05F01CFB10B9029B012B02D0A3
:100D100020460A49DEE7236820465B689DF80710F5
:100D20004FF0FF329847D7E701200DF50D7D30BD1C
:100D30002C2F0200532F02008B2F0200AB2F02003A
:100D40002DE9F047ADF5407D002304AC236003930B
:100D50000D4600944149022203AB06F0B3FF02287E
:100D600006D028463E494FF0FF3207F03DFF6FE0C6
:100D700017A8216805F0C7FC18B128463949226830
:100D800007E017A8039905F0BEFC28B13649039A7D
:100D9000284607F05FFF5BE040A94FF4807205A88A
:100DA00006F052FF0AA880A94FF4807206F04CFFAB
:100DB00020AB159317A880230FA9169305F0E2FC2A
:100DC00000283FD19DF84530002B3BD09DF84430A2
:100DD00003F0100303F0FF06002BE9D1039A0DF195
:100DE000450305A8214907F039F922680DF14503AB
:100DF0001E490AA807F032F905A807F0E5F8814670
:100E00000AA807F0E1F8804605A80F9F07F0DCF874
:100E100082460AA807F0D8F83246014633460096C3
:100E2000504603F021F9124B124A0097002814BFD4
:100E3000104618460190104928464A46434607F096
:100E400009FFB5E70AA806F014FF05A806F011FF90
:100E500001200DF5407DBDE8F08700BF5A3E02003D
:100E6000D22F0200173002003C3002005C3002003A
:100E700088300200923002006230020070B50C46E9
:100E80002149054607F09EF8064628B1FFF716FBF4
:100E9000002100F2352009E028461C4907F092F8AD
:100EA00050B1FFF7E7FA314600F235200A4605F067
:100EB00095FE174B17491CE02846174907F082F8A2
:100EC00048B1FFF7FBFA012200F2352105F0AAF83C
:100ED000124B13490DE02846124907F073F888B108
:100EE000FFF7C8FA012200F2352105F09BF80E4BFE
:100EF0000E49002808BF19464FF0FF32204607F080
:100F000073FE012070BD00BFE9300200F330020023
:100F1000813002008B300200003102009830020064
:100F2000A830020009310200BF300200CD300200BB
:100F300008B508464FF0FF32084907F055FE06F0A5
:100F4000C9FA4FF4FA6008F0C1FF4FF08043AA22BB
:100F50001A7200221A70012008BD00BF153102006C
:100F600010B501200C4606F063FE38B100210A4698
:100F70000B4608F032FB2046044901E004492046B4
:100F80004FF0FF3207F030FE012010BD2631020085
:100F90003C31020038B5064C236833B91C20FFF7FA
:100FA00067F9054607F0CAFA2560206838BD00BF1A
:100FB000E8C107202DE9F04F0C46C7B052498046E2
:100FC00006F025FF51498246404606F020FF504971
:100FD0008346404606F01BFF002604AF05AD814660
:100FE000029603963E602E60BAF1000F44D0009541
:100FF0004046484902AA03AB06F056FE012807DC2A
:10100000204645494FF0FF3207F0EEFD304678E0CC
:1010100006AF4FF480783846314642460BF0A5FBC8
:101020002B6813B901232B6004E0B3F5807F88BFE0
:10103000C5F80080FFF7AEFF2B689DF808109DF8FB
:101040000C2000933B4607F0C6FE344A344B35492A
:10105000002808BF13462046029A07F0FBFD002631
:101060002B689E424AD2039ABB5D324420462E49E9
:1010700007F0F0FD0136F3E7BBF1000F29D0009730
:1010800040462A4902AA03AB06F00EFE032807D009
:10109000204627494FF0FF3207F0A6FD504630E0CA
:1010A000FFF778FF9DF808109DF80C203B7807F0BB
:1010B000A7FE40B1039B204600931E493A68029B5D
:1010C00007F0C8FD1AE020461B49029A07F0C2FD4E
:1010D00014E0A8B102230293029BFE2B10DCFFF761
:1010E00059FF9DF8081007F096FE20B120461349DD
:1010F000029A07F0AFFD029B0233ECE7012000E00B
:10110000484647B0BDE8F08F7D3F020075310200D0
:101110007B310200843102009331020092300200E0
:1011200088300200B4310200D8310200E8310200F8
:10113000F83102001F32020039320200563202003A
:101140002DE9F04F5F4C91B023680E4633B92C2047
:10115000FFF78EF8054607F095FC2560D4F800806F
:10116000FFF788F910AC002544F80C5D00F235203B
:1011700021460CAA05F035FB48B90C9A0D9D9769DC
:101180009378023F5D435F436D087F0800E02F4680
:101190004D4B1A689A467AB90C20FFF769F88146D8
:1011A000FFF7F8FE902389F804300023C9F8000007
:1011B000C9F80830CAF80090DAF8000002F042FFDF
:1011C00081460AF015FE83460AF06EFC0146484649
:1011D0000AF0B4FB3D490AF0BBFC0AF009FE0B9093
:1011E000204609F04BFA03F08DFE40B307F0D8FB20
:1011F00003F072FE00240146A146A2468C420BD0A9
:1012000020460A9103F0CCFE504594BF5046A146BB
:101210000A9901348246F1E707F0DAFB642202FB07
:101220000AF22B493046B2FBF1F2C2F164028DE8BA
:10123000040628492A463B4607F00CFD05E03046E7
:1012400025492A463B4607F005FD244C23681BB977
:101250000120FFF70DF82060206802F0B7FE044679
:1012600007F024FB9DF83930019003F00F0302933F
:101270009DF83830009403F01F030393BDF83A3013
:101280003046C3F30B0304939DF83630144903F042
:101290001F0305939DF835305A4603F03F0306932C
:1012A0009DF8343003F03F030793B8F824300893D7
:1012B000B8F8263009930B9B07F0CCFC012011B045
:1012C000BDE8F08FECC10720E0C1072000002041FD
:1012D000A08601007C320200B0320200E4C1072087
:1012E000BE32020070B5ADF50A7D05460C4606F02B
:1012F000D2FC0B2803DD204620490C2237E028468B
:1013000006F062FE0122014601A804F0C9FE06466D
:1013100038BB01A805F038F9284606F055FE1849F3
:101320000246049B204607F095FC236820469B68F4
:1013300098470A2008F0CAFD09F0C4F8284606F0CC
:1013400043FE0246516800680E4B03C390680E4A84
:10135000186043F80C2C4FF08043AA221A721E70BA
:1013600007E0284606F030FE08490246204607F00E
:1013700071FC01200DF50A7D70BD00BF3B330200FA
:1013800062330200484002400DD0ADDEA9330200B6
:1013900070B5404EA4B033680546DB070C460CD44C
:1013A000304609F057FF40B14FF480600BF08CF9E4
:1013B000394B1860304609F05BFF2846374906F084
:1013C00026FD064620B30021802204A80BF0CDF9AB
:1013D00000230293039303AB0093314904AA02ABA9
:1013E000284606F061FC2C4A029B116804A8039A67
:1013F00013B902F0DAFE01E002F0FAFE294A2A49A6
:101400000346002B08BF1146204607F023FC3DE0B1
:101410002846264906F0FBFC002838D0284604ABB5
:10142000234903AA039604968DF8086006F03CFC55
:10143000039D049B2B44B3F5806F0DDD20461D49B1
:101440004FF4806210E0144B9DF808201B685A5539
:101450009DF8083001351E44039BEA1A049B9A420A
:1014600005DB15492046324607F0F4FB0EE0B5F5E2
:10147000806FF6DA236820461B6802A94FF4FA62EF
:1014800098470028DFD120460C49BEE7012024B050
:1014900070BD00BFFCC10720F8C10720D433020093
:1014A000DB330200BE330200C2330200EB33020022
:1014B000F2330200FC330200303402002034020018
:1014C00030B50C4687B00B49054607F0C3FBA17A3F
:1014D00062880091E17A23880191E188284602918F
:1014E00021890391A1880491034907F0B3FB07B058
:1014F00030BD00BF41340200773402001FB501A89F
:101500000C4602F07BF801F06FFD01A9024620466F
:10151000FFF7D6FF012004B010BD00002DE9F04117
:101520008CB003AB002500930C4690463A4902224A
:1015300002AB0295039506F0C5FBA84267DD029851
:101540000AF083FFC7B2039818B10CF03BF9C6B29A
:1015500000E0064604A8002102F0D2FB30B120468C
:101560002E494FF0FF3207F03FFBF3E718F1000878
:1015700018BF4FF001080223009338464146039AF2
:10158000334601F065FE054638B9204624494FF040
:10159000FF3207F029FB012539E0B8F1000F36D002
:1015A00004A84FF47A7102F0B5FB58B39DF81030DF
:1015B000BB4227D19DF817300C2B04D1204606A939
:1015C0003A46FFF77DFF2046B6B9164907F042FBC1
:1015D0009DF817309E420ADA236804AA3244117A31
:1015E0005B6820464FF0FF3298470136F0E720460F
:1015F0000D4907F02FFB0AE00C494FF0FF3207F0CE
:10160000F3FA04E020460A49029A07F023FB284631
:101610000CB0BDE8F08100BF5A3E020095340200D4
:10162000B7340200DF340200273B0200F33402002B
:101630001035020038B50D4606F0C8FC0446C0B2AD
:1016400001F0C6FC054A064B0649002808BF1346B0
:101650002846224607F0FEFA012038BD3635020042
:10166000883002003D35020037B50C4601F034FEEB
:1016700016490546204607F0EDFA154920462A4648
:1016800007F0E8FA2046114907F0E4FAD5B111490C
:10169000204607F0DFFA20460C4907F0DBFA002568
:1016A000E8B201F003FE013540B181780278437859
:1016B00000912046084907F0CDFAF1E7204603499A
:1016C00007F0C8FA012003B030BD00BF5435020056
:1016D0006F35020089350200A435020030B58BB0A9
:1016E0000AAA4FF47A730C4642F8243D174906F0D3
:1016F000DBFA002502A8019902F002FBD8B12046CE
:1017000013499DF8082007F0A5FA00259DF80F3031
:101710009D420ADA236802AA2A44117A5B682046AD
:101720004FF0FF3298470135F0E72046094907F0AE
:1017300091FA0125DEE72DB9204607494FF0FF3227
:1017400007F052FA01200BB030BD00BFF9330200A0
:10175000BF350200A7330200D63502002DE9F3475A
:101760003C4D07462E688946002E62D12420FEF7A4
:101770007FFD0423044680E848008660C66020217F
:1017800030460BF0DDFDA668E0604FEA8608072EC4
:101790000ED81020FEF76CFD0021102282460AF0C0
:1017A000E4FFE368013643F808A008F10408EEE717
:1017B000002608234FF00108636084F8208020464B
:1017C0002549264A264B00962C6005F063FC2868C4
:1017D0002449254A254B009605F05CFC28682449DD
:1017E000244A254B009605F055FC28682349244AD5
:1017F000244B009605F04EFC28682349234A244BCD
:10180000009605F047FC28682249234A234BCDF86F
:10181000008005F03FFC28681E49214A214B0096B4
:1018200005F038FC009628681F49204A204B05F037
:1018300031FC38461F4906F0C5FB18B138461E4931
:1018400006F07AFC286839464A4602B0BDE8F047FF
:1018500005F000BD04C20720FD1A0100E7350200B3
:10186000EE350200DD180100283602003136020094
:10187000DD160100574502008536020035160100CD
:10188000073C0200A836020069160100EE3602008D
:10189000D23602001D15010037370200F53602006E
:1018A000363702003B370200FD1401007B3702008F
:1018B00060370200A83302008137020038B5064CB9
:1018C000236833B95820FEF7D3FC054606F008FF1D
:1018D0002560206838BD00BF00C207202DE9F04F09
:1018E000ADF2DC5D044680220DF1B40A89460DA8F4
:1018F00000210AF03AFF0021802250460AF035FF0D
:1019000006AE002333602046009672490DAA534666
:1019100006F0CAF9032801D00020D7E0EDA80DA9F0
:10192000012204F0BDFB05460028F5D1FFF7C6FFF4
:1019300033684DA980F853308022044608A88DF8FA
:101940001750079506F080F9CDF800A04846624987
:101950000DAA336807F07EF9A846EDA86DA94FF4EB
:10196000007207AB04F02EFC38B1EDA804F00CFEB9
:1019700008A806F07EF90120A8E0079B002BF4D010
:101980006F1C5649079A204607F064F923682046E1
:101990009B68984700267D1EB346079B22689E429F
:1019A0000DD26DAB995DD2F804C0204603934FF081
:1019B000FF32E047039BF35C01369B44EDE79368FD
:1019C0002046984708A806F0FFFA064608A806F041
:1019D00065F94FF47A7302463146204607F012F952
:1019E0000121202208A806F09BFA08A806F0EEFACA
:1019F000584520D008A806F0E9FA394903465A4666
:101A0000484607F027F92046364907F023F92368AE
:101A100020469B689847236820461B680DF11701F4
:101A20004FF47A7298470028F5D1022F07F101038D
:101A30009BD81F46A5E7079B2B495246009320469B
:101A4000434607F007F9236820469B68984708A893
:101A500006F0BAFA064608A806F020F93146024612
:101A60004FF47A73204607F0CDF808A81F4906F016
:101A7000A4F9D0B908A806F0A7FA1D4902464846BD
:101A800007F0E8F82046174907F0E4F823682046F5
:101A90009B689847236820461B680DF117014FF497
:101AA0007A7298470028F5D1BFE708A8114906F0D7
:101AB00043FB079B484698440F494246F09B07F07A
:101AC000C9F8002D3FF449AF013D46E70DF2DC5D5A
:101AD000BDE8F08F8637020095370200AC37020070
:101AE000BE370200A7330200E5370200FB370200D1
:101AF000FE370200A8330200363802002DE9F0411B
:101B000086B006AA0026074642F80C6D0D463C49F1
:101B100006F0CAF838460121202206F001FA039B9C
:101B2000002B63D0384606F0B6F800285ED0FFF7E9
:101B3000C5FE8DF80B600446236820461B680DF136
:101B40000B010522984706460028F5D1039B38462D
:101B500084F8533006F038FA4FF0FF320146204641
:101B600007F042F8236820469B689847254B059666
:101B7000186837460490236820461B680DF10B0156
:101B80004FF47A72984778B10DF11501032205A838
:101B90000AF0D0FD9DF80B8005A804A904228DF859
:101BA00017800AF0AFFD38B91822B7FBF2F302FB39
:101BB000137262B101330AE02B6828465B68414624
:101BC0000122013798470028D5D10136D3E72846AE
:101BD0000D493A4607F03EF876B161230093284656
:101BE0000A4932460A4B07F035F805E0284609490C
:101BF0004FF0FF3206F0F8FF012006B0BDE8F0819B
:101C0000F93302003D340200423802006938020014
:101C1000223902005E39020001480BF025BB00BFEB
:101C20008A39020038B504460D4609F029F8074BF9
:101C3000B0FBF3F00223B0FBF3F2954201D3236132
:101C400038BDB3F5807FFAD00233F4E740420F008D
:101C50007FB500F235260D460122314604F0E2F947
:101C6000044648BB04A941F8040D02AA304604F01A
:101C7000B8FDF8B9029A0399937892695943023AE8
:101C80005A435208B2F5004F1048114B2CBF4FF485
:101C9000806401244FEA510128BF0346B1FBF4F1EF
:101CA0008DE80A000B482946B2FBF4F20BF064FA07
:101CB000012008E0084B00E0084B0948294622466D
:101CC0000BF05AFA002004B070BD00BFC839020002
:101CD000C5390200D2390200CB390200CF390200E7
:101CE000003A020038B5074D2B684BB90820FEF7C3
:101CF000BFFA0446FFF74EF94023206023712C60A1
:101D0000286838BD10C2072038B5054C256825B9AC
:101D10000120FEF7ADFA05702060206838BD00BFD5
:101D20000CC2072038B5084D2B685BB90C20FEF7B4
:101D30009FFA0446FFF72EF99023237100232060B9
:101D4000A3602C60286838BDE0C1072010B5044CA2
:101D500023681BB90120FEF78BFA2060206810BDB4
:101D6000E4C1072010B5044C23681BB90120FEF71D
:101D70007FFA2060206810BD08C20720AD49AE4A36
:101D80004023F0B58B614FF0007393614FF48033C3
:101D90008B61AA4BADF5057D1868072520F0F00092
:101DA00018601868022440F050001860186820F489
:101DB00040501860086840F040000860186820F43F
:101DC0007C201860186840F428201860186820F4F7
:101DD00070001860186840F420001860186820F03F
:101DE00040401860186840F000401860586820F0C3
:101DF0003C005860586840F028005860586820F04F
:101E000003005860086840F480300860586820F487
:101E100040505860086820F480000860D96821F4B8
:101E20004031D960116841F080711160596821F426
:101E300040215960596841F480215960986880496F
:101E400001409960116841F4897141F0010111600C
:101E5000996821F470119960996821F07041996036
:101E6000116821F446411160D96821F03001D96030
:101E7000D96841F03001D960D96821F47011D96076
:101E8000136843F000731360136823F080631360DA
:101E900006F0AAF90A20012108F016FD0A20012106
:101EA00008F02AFD6748012105604460FFF7BAFE8B
:101EB00006F006FD1520012108F006FD1520012180
:101EC00008F01AFD6048012105604460FFF7AAFE92
:101ED000FFF760F8642106F0FBFA10B95B480BF0DD
:101EE000C3F908F02DFD01F0E5FE10B958480BF0DC
:101EF000BBF94FF4FA6006F036F9FFF78DFE08F0F3
:101F0000BFFE09F0CDFD534909F0D6FE09F04EFCA5
:101F100002460B4650480BF02FF908F0A9FB0528A4
:101F200004AC14D1002363604C4B1B682360FFF7A3
:101F300073FE4B4B4B48D96C1A6D5B6D00940BF0E4
:101F40001BF9FFF769FE41F2883006F00CF9FEF745
:101F500091FA4549FFF77CFE054668BB43480BF004
:101F60000BF903F047F8FEF785FA29462A4600F2F6
:101F7000352004F033FE3E4B3E4A002814BF104685
:101F800018460BF071F9FEF775FA3749FFF760FE56
:101F900090B939480BF068F902F0AEFF01463748B6
:101FA0000BF0EAF802F098FF054602F0A5FF05FBEA
:101FB00000F133480BF0E0F8324D334E2B6813F04C
:101FC000010716D1284609F045F990B14FF40E707B
:101FD000FEF74EF9012280F83422312280F83522B2
:101FE0003A2280F8362280F837723060284609F0AD
:101FF0003FF930682549264EFFF72AFE114818217F
:10200000FFF710FEFFF708FE33684BB90820FEF714
:102010002FF90546FEF7BEFF382328602B71356087
:10202000306801F0C6FE0546B0BB1A480BF01CF93B
:1020300033E000BF00C0092020C0092000C00240DA
:10204000F0FCFCFF0000034000800840443A02001E
:10205000753A0200002474499A3A02004440024052
:1020600000400240B23A02002A3B0200323B02002A
:10207000333A0200383A02006F3B02008E3B020006
:102080009D3B0200F0C10720D8C10720B7300200F5
:1020900018C20720B83B02000125FFF743FE01F0FC
:1020A000A7FF064618B970480BF0DEF83546FFF773
:1020B00019FE01F01BFF064618B96C480BF0D4F866
:1020C00035466B4E33681BB90120FEF7D1F83060FE
:1020D000306801F0DBFEFFF739FE01F075FFFFF716
:1020E00013FE01F03EFFFFF73DFE01F072FFFFF728
:1020F0000BFE002101F038FF8DB9FFF78DFDFFF7D2
:10210000F1FD2D2101F0DAFEFFF7ECFD2D2101F0AC
:10211000E1FEFFF7F9FDFF2101F026FF0CE0FFF7DC
:10212000E1FD0546FFF7FEFD01F08CFF09F086FE9C
:10213000C1B2284601F0F6FE0021102220460AF026
:1021400014FB4C4821460F22002302F00BF880B903
:1021500020460AF07AF9C5B2284600F039FF464A0F
:10216000464B2946002808BF13464548414A0BF014
:1021700003F8FFF7EBFD01F029FF054600200CF006
:10218000ABFD28440BF078F84FF400720021204694
:102190000AF0EBFA204608F011FC214639480AF013
:1021A000EBFFFFF739FD8022002120460AF0DDFA1F
:1021B000204602F07DFE2278FF2A04D021463248D4
:1021C0000AF0DAFF29E0FFF7CDFD01F005FF09284D
:1021D0001DD12E480BF048F821462D480BF05AF936
:1021E00021462C480AF0C8FF2B480BF03DF800238D
:1021F0002A4803A903930BF04DF99DF80C30592B95
:1022000003D1204602F034FE07E0254803E02548CC
:102210000BF02AF824480BF027F84FF208031D684A
:102220004FF20C031E684FF210031C684FF20403B8
:1022300019684FF470431A68AD0AB60A1B480AF0D1
:102240009BFF2A4631461A480AF096FF2146194854
:102250000AF092FFFFF7E0FC17480BF005F8FFF7D4
:10226000DBFC0DF5057DF0BDD33B0200ED3B02002C
:1022700014C20720063C0200363502003E3A020036
:102280000C3C02008A4D0200403C02005C3C020013
:102290007E3C0200833C02009E3C0200E13C0200C6
:1022A000E53C0200FD3C02002B3D02005D3D0200CA
:1022B000893D0200B63D0200D33D0200014B0360A0
:1022C000704700BF103E0200012070470120704798
:1022D0000120704710B5034B04460360FDF7CAFFA9
:1022E000204610BD103E020010B5044C23681BB9F7
:1022F0000120FDF7BDFF2060206810BD14C207203B
:1023000001207047F8B504460E46C06889000BF0FE
:1023100017F8A568E060AF00B5420BD20C20FDF7BE
:10232000A7FF0023036043600372E3680135D851BF
:102330000437F1E76660F8BD38B5114B0446036019
:102340000025636DE06D9D4205D250F82500FDF734
:1023500091FF0135F5E708B1FDF78EFF0025A36B6E
:10236000206C9D4205D250F82500FDF783FF013512
:10237000F5E708B1FDF780FF024B2046236038BD2A
:10238000383E0200103E020010B50446FFF7D4FFAD
:102390002046FDF76FFF204610BD0000F7B5002472
:1023A0000B464FF4805200942549064605F026FC62
:1023B000244B042533607563B463F463346406F11D
:1023C00034000221FFF79EFF35657465B465F4653E
:1023D000204660210AF0B4FFB46DF065A500172C0B
:1023E0000CD81020FDF744FF0021102207460AF008
:1023F000BCF9F36D01345F510435F0E718237365C0
:10240000012386F87030104C0023A6F87430A6F82B
:102410007630B367002200230025C6E92023C6E9F1
:10242000224508F0B7FA4FF47A72002309F026FD2E
:10243000001941EB0501C6E92001304603B0F0BDAB
:10244000503E0200383E0200C0D40100F8B591E8C9
:1024500060000F7A14468FB1082A0FD1304605F07C
:102460001AFC00281BDD28460E494FF0FF3206F00B
:10247000A8FB3046012105F013FD08E00A2C05D029
:102480000D2C03D03046214605F02BFE4FB12B68B2
:1024900028465B6821464FF0FF329847F8BD072475
:1024A000F5E7F8BD593E0200F8B50446142016467B
:1024B0000D46FDF7DDFE8021074605F0C2FDA36B4A
:1024C000E26B9A4206D3626B991803D204F134008E
:1024D000FFF718FFE36B226C591C52F82330E163BD
:1024E00083E8A0001E72F8BD2DE9F043CF6B85B0E4
:1024F00005460E4601AC4FB94FF47A7007F0E6FC82
:10250000204639460C220AF030F949E00B6C1B6872
:1025100093E8070084E8070000238DF8033007F0F4
:102520009DFB00278046F36B9F4269D2336C4FEAD4
:10253000870953F827301868027C002A5ED00268A9
:102540000DF10301D2F800C00022E047002855D069
:10255000F36B9F422CD2336C53F8093093E8070099
:1025600084E807009DF8032030462146FFF76EFF00
:1025700008F010FA4FF47A72002309F07FFCD6E9D4
:102580002223801841EB0301C6E92001029805F0DF
:1025900082FB0746029805F081FB013887420ADB7F
:1025A00094E8070085E80700284605B0BDE8F083F9
:1025B00006F14403D2E7D6E9222352EA030127D0E9
:1025C00008F0E8F94FF47A72002309F057FCD6E9D5
:1025D0002023994208BF90421AD308F0DBF94FF448
:1025E0007A72002309F04AFCD6E92223801841EBD5
:1025F00003010023C6E920010193D1E7013792E7E7
:1026000007F02CFB4045C1D1022007F05FFCBDE77D
:102610009DF803300A2B82D1C2E700002DE9FF416B
:10262000074621480AF0A8FD01A83946FFF75CFFDC
:10263000019E1EB91D480AF017FE31E0DDF8088042
:10264000404605F028FB00282ADD08F0A3F90446DF
:10265000F8B1B7F8743007F150000133A7F87430BF
:102660004146324604F0F6FD114B002718680090F1
:1026700033681DF807105B6830464FF0FF320137B2
:102680009847042FF4D108F085F9011B09480AF096
:1026900073FD404605F004FB336830469B6898475D
:1026A000012004B0BDE8F0815C3E0200A8330200C6
:1026B000283E0200623E020038B5064C236833B95A
:1026C0002C20FDF7D5FD054606F0DCF925602068D5
:1026D00038BD00BFECC1072010B50446FFF7ECFF82
:1026E000036821465B684FF0FF32984710BD13B571
:1026F000002302AC04F8013DFFF7DEFF036821462A
:102700001B684FF0FF3298479DF8070002B010BDDC
:102710002DE9F04100F150048AB0002506460095ED
:1027200020465B495B4A5C4B04F0B4FC00952046B4
:102730005A495B4A5B4B04F0ADFC009520465A4970
:102740005A4A5B4B04F0A6FC0095204659495A4A68
:102750005A4B04F09FFC009520465949594A5A4B60
:1027600004F098FC009520465849594A594B04F00A
:1027700091FC009520465849584A594B04F08AFC70
:10278000009520465749584A584B04F083FC009561
:1027900020465749574A584B04F07CFC0095204688
:1027A0005649574A574B04F075FC00952046564948
:1027B000564A574B04F06EFC009520465549564A40
:1027C000564B04F067FC009520465549554A564B38
:1027D00004F060FC009520465449554A554B04F0DE
:1027E00059FC009520465449544A554B04F052FC7C
:1027F000009520465349544A544B04F04BFC009535
:1028000020465349534A544B04F044FC009520465B
:102810005249534A534B04F03DFC0095204652491F
:10282000524A534B04F036FC009520465149524A17
:10283000524B04F02FFCFFF73FFF4FF480734FF42F
:1028400016412022054606F0FBF8012780462F742A
:102850004B48FDF773FD4B48FDF76AFD30462946AE
:102860003A46FFF721FE03A9082205A805F0ECF976
:1028700005A8454905F060FC05A92A46204604F054
:10288000E9FC05A805F0F5F940460AB0BDE8F0817D
:1028900005050100C2440200783E0200F105010076
:1028A000AF3E0200B73E020041110100D53E0200DA
:1028B000C73E0200150601001D3F0200DC3E02007B
:1028C000F5080100223F0200263F020075080100C2
:1028D000C53F0200823F0200410D0100C43F0200DB
:1028E000C83F0200450A01001340020016400200E2
:1028F000BD0B0100444002004A400200350C0100BB
:102900006F40020072400200910C0100FE5902006B
:102910009F400200F90B010092450200C4400200F2
:10292000B50F0100E7400200EB4002007D0E010000
:102930009D410200A5410200310F0100E841020063
:10294000EF410200D90601000242020006420200E5
:10295000610F0100CE420200D44202005D17010067
:10296000913A0200FC420200911301001A44020055
:1029700026430200E5120100FA300200E3430200A0
:10298000EF260100D926010081370200014B0360C8
:10299000704700BF103E020010B5034B04460360B1
:1029A000FDF768FC204610BD103E020013B5002361
:1029B000009307494FF400620123044605F01EF915
:1029C000044B204623606423E36102B010BD00BFC6
:1029D000844502004844020038B5074D2B684BB9C6
:1029E0000820FDF745FC0446FEF7D4FA38232060A2
:1029F00023712C60286838BD18C2072070B54E4C72
:102A00008AB023681BB90120FDF732FC20602068E2
:102A100001F0E2FA431E0446072B64D8DFE803F016
:102A20000420633263636346FFF7D6FF01F0D1F9F8
:102A30000646FFF7D1FF01F0D5F90546FFF7CCFFB9
:102A400001F0D9F92A46034631463C480AF094FB86
:102A5000FFF748F90546FFF7BFFF01F0BAF90EE0AE
:102A6000FFF774F901F0B2FA014635480AF084FB29
:102A7000FFF738F90546FFF769F901F0A7FAC1B287
:102A8000284629E0FFF74EF901F0DCFA09F0B0F929
:102A900001462C480AF070FBFFF724F90546FFF7C2
:102AA00041F901F0CFFA09F0C9F9E8E7264D002114
:102AB0000091FF202A46012300F0CAFB08B92348F1
:102AC0000EE002A84FF4FA7101F01AF938B1FFF7DD
:102AD00009F929784B1C2B7001F024FA23E01C48DB
:102AE0000AF0C2FB1FE0F0B9FFF70EF901F06AFA35
:102AF000C8B902A8002101F003F9D0B19DF80F3048
:102B0000012B16D100210091124A0323FF2000F06F
:102B10009FFB0D4C9DF810302370FFF7E3F82178F0
:102B200001F000FA05E0FFF7EFF8214601F01CFA8A
:102B3000DFE701200AB070BD08C20720314602005D
:102B40004C460200594602001CC207206A46020099
:102B50008046020037370200014B0360704700BF18
:102B6000103E020010B5034B04460360FDF782FBE4
:102B7000204610BD103E020008B501F0D5F8012036
:102B800008BD000037B59020FDF772FB0321044615
:102B9000FFF704FC204604F0FFFF3420FDF768FB3C
:102BA00000244FF400720E4900940423054605F0FA
:102BB00025F80C4B28462B6004F0EEFF3420FDF77F
:102BC00057FB0546FFF7F2FE284604F0E5FF2046D6
:102BD000214604F0F1FF4FF0FF3003B030BD00BFDD
:102BE000913A0200D8460200242310B503FB0103EA
:102BF00098420BD0417839B1018C4FF6FF741144E3
:102C0000A14228BF214601842430F1E710BD000015
:102C100037B5002302A840F8043D0C4B04215B6843
:102C200098470B4B019A1C680546141B1A6009480B
:102C300022460421FFF7D8FF074802212246FFF76A
:102C4000D3FF281C18BF012003B030BD20C20720CD
:102C5000E8C2072034C207200CC3072008B50B4B7D
:102C60001A78037893420A4B03D1198801311980ED
:102C700002E0998801319980064B8270DB6820213F
:102C80009847003018BF012008BD00BF05C00720CD
:102C9000DCC2072020C207200A4B02781B789A4228
:102CA000094B03D1DA880132DA8002E01A89013255
:102CB0001A810379C3F3C202073262F3C5030371B9
:102CC000FFF7CCBF05C00720DCC2072010B50023EA
:102CD000064A990012F82340844201D1501810BDD1
:102CE0000133042BF4D1002010BD00BFF9C207202E
:102CF00070B1C3780133DBB2FF2BC37008D100235E
:102D0000044A1A44D17804334908102BD170F7D102
:102D1000704700BFF9C2072070B5242202FB0101F1
:102D2000034602468A4206D01046243212F8234C4B
:102D3000002CF7D112E0184600228B420ED01C79ED
:102D40001E8CC4F3C20446EA0444A2421D4624BFBA
:102D500014460546243322462846EEE770BD00009F
:102D600038B501310446CD00FFF752FF1B4B1A78EE
:102D700023789A4204D102211948FFF7CDFF0CE0D5
:102D800018480421FFF7C8FFE37833B990F82330DF
:102D9000042543F0800380F82330002380F820309E
:102DA00080F8213090F8233080F8225023F07F0300
:102DB00043EA152580F823502346024604F12001FA
:102DC00053F8044B8B4242F8044BF9D1064A03797D
:102DD000127862F3C503037138BD00BF05C0072038
:102DE0000CC3072034C2072004C0072010B5FFF72A
:102DF0006DFF0446F8B9FFF769FF0446D8B90F4ADA
:102E0000D378D179994238BF0B46D17A34BF141D9B
:102E1000144699423CBF0B46094CD17B094A994262
:102E200038BF144620460422002109F09EFC064BC0
:102E3000DA7A0132DA72204610BD00BFF9C20720EB
:102E400001C3072005C30720DCC20720F8B52427EB
:102E500007FB021705460C46BC4200F0B38094F80D
:102E60002310CB092BD0BDB12B786278934203D1CC
:102E70006E78207886421CD0E87868B168789042F5
:102E800008D122789A4205D1A379AA79D61A734239
:102E9000734100E0002363B994F82220238C01F0F1
:102EA0007F0142EA01218B42C0F28A802046FFF76F
:102EB000D5FE20460021242209F057FC80E06378EB
:102EC000002B7DD0002D3CD02A799209032A1AD1FB
:102ED0006A782078904202D128789842E9D0E67842
:102EE000A878864210D1934209D120782A7890425E
:102EF00005D1AA79A079801A4242424100E000221D
:102F0000002AD6D100E0E2B1A878E278904218D148
:102F10006A789A4209D120782A78904205D1A0791E
:102F2000AA79821A5042504100E0002048B122792B
:102F3000002363F3C50284F8203084F82130227125
:102F40003EE094F82200228C01F07F0140EA01214A
:102F50008A4235DB2179002284F8202084F8212060
:102F6000C1F3C202D6B21EB12046FFF795FE27E09C
:102F70008909032918D0144920780978884213D187
:102F8000E178994210D079B16379E270032262F35B
:102F9000071363712046FFF77FFE0C4A23791278EE
:102FA00062F3C503237100E001266078FFF78EFE0F
:102FB00018B10021042209F0D8FB002E7FF479AF6C
:102FC000243449E7F8BD00BF05C0072004C007202E
:102FD000431EDBB2FD2B9DBF024B18700120002069
:102FE000704700BF05C00720014B1878704700BF2D
:102FF00005C0072007289CBF014B1870704700BF11
:1030000004C007202DE9F7430446914698469DF8F1
:1030100028600D4600295BD0314B1F78B94259D04A
:10302000B8F10F0F56D8002856D02022002109F001
:103030009CFBFF2D237914BF09F00302002262F3E9
:103040008713032262F30203264A65701278277001
:1030500062F3C503244A23711378A7700133DBB2EE
:103060001370A3710BAB01930EB9012713E0019B01
:10307000E0791A4652F8081B013E01925A68F6B2EE
:103080008718FFB2182F05D80830204409F049FBF3
:10309000E771E9E70027DFF854900123284689F813
:1030A0000030FFF713FE0646FFF722FE002389F8E3
:1030B0000030637926B968F307136371E67005E0A1
:1030C000B27862F3071363717378E370384603E0F4
:1030D000084601E00020FFE703B0BDE8F08300BF31
:1030E00005C0072004C007200BC3072009C3072021
:1030F000154B012270B51A7004461E4608B900250A
:103100001DE0FFF7ABFD05460028F8D022799209B3
:10311000D11C032A01F0030106D1E3782BB16278B8
:10312000D31A18BF012300E00023012903F0010393
:1031300000D923B1617920460909FFF711FE002368
:103140003370284670BD00BF09C3072082B0F0B5B8
:103150001746421ED2B28DB0FD2A04460D46139387
:1031600001D900205AE0002BFBD0159B002BF8D092
:10317000179B002BF5D0169B002BF2D0149B002B35
:10318000EFD000214822284809F0EFFA00219022D0
:10319000264809F0EAFA00211022254809F0E5FA4C
:1031A00000210C22234809F0E0FA00210C222248D9
:1031B00009F0DBFA214B224E1C70224B34461D7065
:1031C00013AD0FCD0FC42B68002118221E482360B9
:1031D00009F0CBFA39461C4817220AF033FB0020CD
:1031E000B368014698470028BBD09DF8603013B9FA
:1031F000FFF70EFD12E0154A01230192062202920A
:10320000009304A8FF210022FFF7FCFE0028A8D0AD
:1032100004A8FFF76DFF0028A3D0E9E70DB0BDE8D3
:10322000F04002B0704700BF0CC3072034C2072033
:10323000F9C20720EDC20720DCC2072005C0072025
:1032400020C20720ECC20720C4C20720F0460200BB
:1032500070B5182B8CB006460D4617D81C1C18BF2D
:103260000124002A14BF214684F0010171B10192AA
:103270000293009404A831462A469DF84030FFF797
:10328000C1FE18B104A8FFF733FF00E000200CB026
:1032900070BD13B50446107852790B46120900929E
:1032A00003212246FFF7D4FF02B010BD30B5002342
:1032B0001A4608499C0011F823502DB1904201D1C3
:1032C000081930BD0132D2B20133042BF1D10020F4
:1032D00030BD00BFF9C2072000231846044A9A5C9B
:1032E0000AB10130C0B20433102BF7D1704700BFD0
:1032F000F9C207202DE9F04188B06846002120225C
:1033000009F033FA9C4B1B7803F0FF04002B40F0CC
:1033100030819A4F68463B6920219847002800F089
:103320008280974D6B8801336B80FFF7D5FF9DF846
:103330000410A87201F00703032B04D0914B1A78F4
:1033400042F0010209E0904B1D789DF80230AB423B
:1033500005D18C4B1A7842F002021A70DBE0C1F3FF
:10336000C2019DF800E09DF80600CEB2874A13190D
:10337000A25C724509D15A78824206D19A7801241A
:10338000961B18BF0126997018E003340C2CEDD160
:103390007F4A136899707D49587001F10900834292
:1033A00083F800E040F0C48011609DF800009DF8B3
:1033B0000230834240F0BF80002426469DF8020080
:1033C000FFF714FD9DF8022002709DF80220427064
:1033D00000228270FFF78CFC002C08BF012616B378
:1033E0009DF80030AB4200F095809DF80160FF2E03
:1033F0001BD13B6868462021984720B9614B1A7859
:1034000042F004021A709DF8053003F00F02511CBF
:1034100061F303038DF80530C3F303139A4202DA14
:103420006846FFF71BFC002475E0B5422AD164B959
:103430009DF807304BB13B6868462021984720B97A
:10344000504B1A7842F004021A709DF804309B0920
:10345000012B12D19DF8073013B94E48182108E00E
:1034600047480C216A46FFF714FF002852D100207C
:1034700001466A46FFF70DFF4CE09DF80330002B34
:1034800048D1F4E7444B1B78002BCCD09DF8054085
:1034900004F00F082709B845C5DA3046FFF716FCD7
:1034A0009DF8033008F1010868F303049D428DF88C
:1034B000054019D19DF804209209D51C05F003059B
:1034C000012D8CBF0025012508B1437800E003469B
:1034D000032A05D19E4203D0003318BF012300E028
:1034E00000231D4330B90AE0A3B91D4610B9684650
:1034F00039460DE043788DF80330847802E08DF88A
:10350000030004466846FFF7A9FB1DB16846214643
:10351000FFF726FC6C46FFF77BFB20461F49042281
:10352000FFF794FC20461E490222FFF78FFC20E0A3
:103530000333136039E785423FF43EAFFFF756FC93
:103540000446FFF7D5FB23783BB19DF80520A3780F
:1035500002F00F029A423FF72FAF9DF80030237020
:103560009DF8023063709DF80530C3F30303A37028
:1035700022E708B0BDE8F08109C3072020C2072078
:10358000DCC207200AC3072005C00720EDC20720C0
:1035900000C00720C4C20720ECC2072034C20720A5
:1035A0000CC3072000231846094A1A4452780AB16E
:1035B0000130C0B22433902BF6D1064B5A780AB1B1
:1035C0000130C0B293F825300BB10130C0B2704762
:1035D00034C207200CC3072008B5FFF777FB064B62
:1035E00028B18278187802FB0000C00008BD1B7863
:1035F0001820584308BD00BF04C0072003490B68CA
:1036000003604B6843608B6883607047DCC20720AF
:1036100030B5404C4FF48035E5613F4CA060E06828
:10362000C506FCD43C488068C0B2002B6BD00B466A
:10363000002A5DD0072A384C0D782FDDA5604D7823
:10364000083AA5608D78A560CD78A5600D79A56054
:103650004D79A5608D79A56001F10805C979A16052
:103660002D498C696407FBD58C681C708C685C7074
:103670008C689C708968D9702749CC68E406FBD4B3
:103680008C68083303F8044C8C6803F8034C8C688E
:1036900003F8024C896803F8011C1BE0032A1BDDB8
:1036A000A5604D78043AA5608D78A5600D1DC97898
:1036B000A1601949CC68E406FBD48C68043303F894
:1036C000044C8C6803F8034C8C6803F8024C89683E
:1036D00003F8011C2946ABE70131A560013AE56812
:1036E000ED06FCD40C4C0133A46803F8014C9FE7B1
:1036F000084B4FF480329A6130BDE568ED06FCD48A
:10370000054C0133A4689342F2DACD5C024CA5600B
:10371000F3E700BF00C009200080084007B5002380
:1037200002A9012201F8013D00F01F001346FFF736
:103730006FFF9DF8070003B05DF804FB07B502AB0F
:1037400003F8011D00F01F0019460122002340F07C
:103750002000FFF75DFF03B05DF804FB08B51720FC
:10376000FFF7DCFFC0F3001008BD07207021FFF752
:10377000E5BF03460A46A02019460023FFF748BFCD
:1037800008B50020FFF7CAFFBDE8084000F0FE01C1
:103790000020FFF7D3BF0000024B4FF08072DA61C8
:1037A000704700BF20C0092008B50020FFF7B6FF12
:1037B00040F00101C9B20020FFF7C0FF024B4FF0FB
:1037C00080729A6108BD00BF20C009200720202117
:1037D000FFF7B4BF0021E1200A460B46FFF718BFF0
:1037E00037B50C460546FFF7F5FF21462846FFF79B
:1037F000C0FF0D4B4FF080729A610022ADF8062099
:103800001C46BDF8063001339BB2ADF8063033B923
:103810004FF08073E361FFF7DDFF03B030BDFFF7CA
:103820009DFF0028EDD0F3E720C0092008B5172040
:10383000FFF774FF00F0010080F0010008BD0720D1
:103840004021FFF77BBF08B503460A4661201946B1
:103850000123FFF7DDFEC0F3420008BD0021E22096
:103860000A460B46FFF7D4BE70B5044600200D464D
:103870001646FFF753FF14B100F0BF0002E040F01E
:103880004000C0B215B100F0DF0101E040F02001BE
:1038900016B101F0EF0101E041F010010020BDE898
:1038A0007040FFF74BBF10B504460020FFF736FF0E
:1038B00014B900F0F7010DE0012C04D100F0FB0178
:1038C00041F0080106E0022C14BF40F0080140F06E
:1038D0000C01C9B20020BDE81040FFF72FBF08B5AA
:1038E0000020FFF71BFFBDE8084040F00201C9B20D
:1038F0000020FFF723BF08B50020FFF70FFFBDE84A
:10390000084000F0FD010020FFF718BF40F6DD136E
:10391000984206D840F66213B0F5166F38BF1846C5
:1039200000E01846A0F51661C9B20520FFF706BFF2
:1039300010B504460620FFF7F1FEFA2C00F0D7017F
:1039400002D141F0200104E0B4F5FA6F08BF41F064
:1039500008010620BDE81040FFF7F0BE10B5044690
:103960000620FFF7DBFE032C34BF2146032120F0A5
:10397000060040EA4101C9B20620BDE81040FFF749
:10398000DDBEF9284FF0FA0305D9B0F57A6F88BF8C
:103990004FF47A6000E01846B0FBF3F3013BDBB272
:1039A0000F2928BF0F2141EA03110420C9B2FFF7F4
:1039B000C5BE1130C0B2162804D8202928BF202146
:1039C000FFF7BCBE7047032804D004280CBF0221B7
:1039D000032100E001210320FFF7B0BE03460A46A1
:1039E000302019460023FFF713BE03460A462A205B
:1039F00019460023FFF70CBE73B504460E46154664
:103A0000FFF72CFFFFF7E6FE2B4B4FF08072DA61D9
:103A1000FFF771FF00210A460120FFF725FFFFF79E
:103A2000A4FE0220FFF73FFF3046FFF76FFF284656
:103A3000FFF77EFF0320FFF791FF02200321FFF72E
:103A40007DFE01200021FFF779FE4FF4FA7003217B
:103A5000FFF797FF21460020FFF7ABFF1220002160
:103A6000FFF76CFE13200021FFF768FE14200021F1
:103A7000FFF764FE15200021FFF760FE00211620ED
:103A8000FFF75CFE0D4B18681B79009005208DF840
:103A90000430FFF798FF68460521FFF79FFF68464F
:103AA0000521FFF7A2FFFFF71AFF4FF4FA6004F0B9
:103AB00045FB02B070BD00BF20C00920F7460200E0
:103AC00007B5094B002102AA186842F8041D0B46ED
:103AD00005F01CFE019B1BB1044B4FF080521A6095
:103AE00003B05DF804FB00BF5CC3072004ED00E0F9
:103AF00070B5174E326822B90320202105F03CFD35
:103B00003060144D2A6822B90120202105F034FDCF
:103B10002860114C216821B90120032205F02CFDF9
:103B20002060202040F6C3114FF4FA62FFF764FFD3
:103B3000FFF73AFE16200121084A04F0B1FC306874
:103B400028B1286818B12068003018BF012070BD66
:103B500058C3072054C307205CC30720C13A0100A3
:103B600070B5037906469B09032B0CBF0D4B0E4B1A
:103B700000221D6888B028463146134605F02DFD09
:103B8000044660B9224623466946284605F0FBFDF7
:103B9000224623462846314605F01FFD04462046AE
:103BA00008B070BD54C3072058C3072038B5044679
:103BB0000D46FFF719FA237883420AD0E37843B918
:103BC00009F084FBBD2300F0030000FB033004F088
:103BD000B5FAFFF7E1FDFFF7D3FD2046A9B2FFF7E5
:103BE000FFFDFFF7F3FDFFF7DFFD06F03FFB0228C7
:103BF00006D1044B002118680A460B4605F086FDE5
:103C0000012038BD5CC3072038B504460D46FFF7D8
:103C10000DFE48B1A9B22046FFF715FEFFF706FEDC
:103C200008B9FFF70CFE012038BD2DE9F0418046B0
:103C30000F46164606F01AFB022807D132464046C8
:103C40003946002305F09FFDC6B21CE006F0A2FE37
:103C50004FF47A72002308F011F9841941F100053C
:103C6000002240463946134605F08DFDC6B256B9CE
:103C700006F090FE4FF47A72002308F0FFF88D42B0
:103C800008BF8442ECD23046BDE8F081042938B543
:103C9000054603D1041C18BF012400E0002406F0EF
:103CA00079FE2CB14FF47A72002308F0E7F828600F
:103CB000204638BD00B50C4B8DB009930B4B0C4A18
:103CC0000B930C4B0A930CAB43F8102D002204927B
:103CD0000FCB8DE80F00084B0121084A6A20FFF73F
:103CE00035FA0DB05DF804FBF13A0100093C010022
:103CF0008D3C0100AD3B0100613B0100FC46020030
:103D00000A460349034608681946FFF78EBF00BFFD
:103D100058C307200A460349034608681946FFF7B7
:103D200084BF00BF54C3072008B506F09FFA0F4BAD
:103D300002285B6913D15A020DD5FFF733FC0C4BF7
:103D400000284FF0000118680CBF4FF0FF3201222D
:103D50000B4605F018FDBDE80840FFF7CBBA5B0243
:103D6000F9D5FFF71FFC0028F5D108BD00C00920D8
:103D70005CC3072030B504460D46134621792A4618
:103D80000068BDE8304005F03BB81FB50A4604ABFB
:103D90000021022423F8041D01790094006805F035
:103DA0001AF89DF80C009DF80D3043EA002004B08D
:103DB00010BD10B52A2104461922FFF7DBFF206849
:103DC00021790D2205F00BF8B0F12A035842584131
:103DD00010BD08B50121FFF7D8FF102300B290FBFA
:103DE000F3F008BD08B50321FFF7CFFF102300B2A1
:103DF00090FBF3F008BD08B50521FFF7C6FF1023BF
:103E000000B290FBF3F008BD044A13881F2B04D8BE
:103E1000581C1080024A42F82310704764C30720E0
:103E200068C30720164BF0B519881E46012923D90F
:103E3000144B00221C46481E824203F1040307DA99
:103E400053F8040C1D680132281A43F8040CF2E7F9
:103E5000636803EB530700231A4699B2814209DADB
:103E600054F82150BD4203D9012505FA01F10A4356
:103E70000133F2E7044B1A6000233380F0BD00BF2A
:103E800064C3072068C3072060C3072008B5022069
:103E9000012106F019FD084B01209A6A22F0070261
:103EA0009A629A6A42F006029A6203F51033DA685F
:103EB00042F03002DA6008BD0080004008B5044AD4
:103EC00001F07F034171D25C0321FFF753FF08BD6E
:103ED0000147020008B5044A01F07F038171D25CFA
:103EE0000221FFF747FF08BD0147020038B504462D
:103EF0002179006804F08FFF054688B1204606212D
:103F00000022FFF737FF204607210022FFF732FF8C
:103F100020462E21FFF7D2FF20462E21FFF7DAFFA1
:103F2000284638BD642370B5B1FBF3F404FB1311CC
:103F30000A23CCB2B4FBF3F603FB164303F13001C2
:103F4000C9B20546FFF7C6FF092C02D82846202132
:103F500003E006F130012846C9B2BDE87040FFF722
:103F6000ADBF01207047000038B50D46044606F08D
:103F7000B5FA05F00F032370114B15F0010F4FF048
:103F8000010214BFDA619A61227812F0020F4FF039
:103F9000020214BFDA619A61227812F0040F4FF026
:103FA000100214BFDA619A61227812F0080F4FF400
:103FB000807214BFDA619A61BDE8384006F0A0BA99
:103FC00020C009200078704701207047022004F0CB
:103FD00045B9012070470000044B5B69C3F3813091
:103FE000C3F3412343EA8000704700BF20C009208B
:103FF00010B5012104468122FFF7BCFE206821791B
:10400000012204F0ECFE10F0600F0CBF0020012034
:1040100010BD38B500210446FFF7B7FE812285B2F6
:1040200001212046FFF7A6FE102328B290FBF3F0F3
:1040300007F03AFD4FF0765107F08AFDA16807F0CE
:104040007FFC38BD08B5FFF7E4FF054907F080FDA8
:10405000044907F031FE4FF0844107F071FC08BDC0
:10406000000010410000A0402DE9F04F0546ADF2E0
:10407000546D0C46174682A8294601229B4602F041
:104080000FF800286AD121460DF22C400A2202F0D6
:1040900007F8044620B182A802F076FA20465DE0D7
:1040A0000090019082460446064606F073FC4FF4E9
:1040B0007A72002307F0E2FE02A980464FF40072F4
:1040C00082A86B4602F07EF80546F8B9009BEBB17A
:1040D00006F060FC4FF47A72002307F0CFFEB6EBD7
:1040E000080866EB060900EB080606F053FC4FF4DF
:1040F0007A72002307F0C2FE02A98046009A0DF2F0
:104100002C4001AB02F01CF90546A0B107B13E609E
:10411000BBF1000F01D0CBF80040DDF878360BB1D1
:10412000C3F800A082A802F02FFA0DF22C4002F092
:104130002BFA284612E0019A009B9A42E6D106F03B
:1041400029FC00234FF47A7207F098FE009BB4EB31
:10415000080464EB040504449A44A6E70DF2546D88
:10416000BDE8F08FF0B50446ADF50B7D0F46164661
:1041700021461D4601A800230122009301F090FF73
:10418000044670B91DB101A8294602F00FFA01A832
:10419000394632466B4602F015F8044601A802F093
:1041A000F3F920460DF50B7DF0BDF0B50446ADF5F5
:1041B0000B7D0F46164621461D4601A800230A2204
:1041C000009301F06DFF044670B91DB101A82946A6
:1041D00002F0ECF901A8394632466B4602F0B0F81D
:1041E000044601A802F0D0F920460DF50B7DF0BD84
:1041F000F0B50446ADF50B7D0F46164621461D462B
:1042000001A800231222009301F04AFF044680B95E
:1042100001A80DB1294600E0049902F0C7F901A8F0
:10422000394632466B4602F08BF8044601A802F08C
:10423000ABF920460DF50B7DF0BD00007F2816D9A7
:1042400031B1FF2812D80A4B803833F8100070477C
:10425000074A8BB232F81120824203D00131802903
:10426000F6D10B4603F18000C0B2704700207047C2
:10427000824702000023064A32F8132032B19042EE
:1042800001D00133F7E7034A32F81300704700BF4B
:1042900082480200624A020010B501200C4605F077
:1042A0000FFA2060003018BF012010BD01207047B8
:1042B00010B5044605F0DAFF02280AD100210B46AA
:1042C00020464FF0FF3205F05EFA431E5842584137
:1042D00010BD012010BD10B5044605F0C7FF02282F
:1042E00007D1002120460A460B46BDE8104005F0E4
:1042F00074B910BD10B5044604F052FB24B1012C72
:1043000006D100F077F901E000F0FAFC044600E085
:10431000042404F05DFB204610BD20B1012801D12A
:1043200000F024BA04207047F8B504460F4616463C
:104330001D4604F035FB3CB1012C0CD1384631460A
:104340002A4600F01BFA04E0384631462A4600F0BF
:1043500025FD044600E0042404F03AFB2046F8BDA5
:10436000F8B504460F4616461D4604F019FB3CB14D
:10437000012C0CD1384631462A4600F04DFA04E0B3
:10438000384631462A4600F031FD044600E0042458
:1043900004F01EFB2046F8BD70B504460E461546D7
:1043A00004F0FEFA34B1012C0AD13046294600F05F
:1043B0008FFA03E03046294600F03EFD044600E057
:1043C000042404F005FB204670BD08B506F0E2FAAF
:1043D0004FF47A72002307F051FD08BD10B5044672
:1043E00006F04EFC074BB0FBF3F00223B0FBF3F2F8
:1043F000944202D3044A136110BDB3F5807FF9D013
:104400000233F3E740420F0000000340044B986082
:10441000DA68D206FCD4024B9868C0B2704700BF7D
:104420000000034038B5FFF7D0FF00F5FA75FF2014
:10443000FFF7ECFFFF20FFF7E9FFFF28044607D056
:10444000FFF7C3FF2A460023994208BF9042F1D3E9
:10445000204638BD38B5064C4FF00075E561FFF7D2
:10446000E1FF044BA5611A7842F001021A7038BDD1
:1044700020C0092006C0072070B505460E46FFF78C
:10448000A4FF00F16404FF20FFF7C0FFFF2809D15B
:10449000FFF79BFF22460023994208BF9042F2D3C8
:1044A000002070BDFE28FBD1102E06D928464FF4FF
:1044B0000071002204F012FA15E02C46FF20FFF7ED
:1044C000A5FF2070FF20FFF7A1FF6070FF20FFF71E
:1044D0009DFFA070FF20FFF799FF043404F8010C42
:1044E000AB19A342EAD1FF20FFF790FFFF20FFF7AF
:1044F0008DFF012070BD70B506460D46FFF792FF97
:10450000FF28044619D12846FFF780FFFD2D16D05D
:104510004FF400712246304604F0E0F92046FFF7E0
:1045200075FF2046FFF772FF2046FFF76FFF00F090
:104530001F00431F5842584170BD002070BD01202C
:1045400070BD0000020638B504460D4607D5772039
:104550000021FFF7F7FF012837D804F07F041B4B39
:104560004FF000729A61DA61FFF75CFFFF2818BF15
:10457000FF202AD12046FFF749FF280EFFF746FF0C
:10458000C5F30740FFF742FFC5F30720FFF73EFFE3
:10459000E8B2FFF73BFF402C04D0482C0CBF87202B
:1045A000012000E09520FFF731FF4C2C02D1FF20C5
:1045B000FFF72CFF0A24FF20FFF728FF030604D58E
:1045C000013C14F0FF04F6D138BD38BD20C00920ED
:1045D000064A074913784969DBB2490154BF03F021
:1045E000FD0343F003031370704700BF06C00720AC
:1045F00020C009202DE9F347FFF7EAFF584B1A784E
:104600001E4612F0020F01D01878A4E00120FFF737
:10461000E5FE0A24FF20013CFFF7F8FE14F0FF043A
:10462000F8D1504D4FF00073EB6140202146FFF769
:1046300089FF0128A84602D04FF0000976E0FFF775
:10464000C4FE4FF4D57100F57A774820FFF77AFF62
:10465000012841D1FF20FFF7D9FE0DF1040909F827
:1046600004000134042CF5D19DF80630012BE3D170
:104670009DF80730AA2BDFD1FFF7A7FE3C460025A7
:10468000A94208BFA04206D3FFF79FFEA94208BF78
:10469000A042D1D207E0E9204FF08041FFF752FF5E
:1046A0000028E9D1F0E77A200021FFF74BFF00282E
:1046B000C2D10446FF20FFF7A9FE09F80400013427
:1046C000042CF7D19DF8043013F0400F0CBF4FF0CD
:1046D00004094FF00C0929E0E9202146FFF732FFD9
:1046E00001288CBF4FF001094FF002098CBF4FF039
:1046F000410A4FF0E90AFFF768FE3C460025A9424F
:1047000008BFA0420BD3FFF760FEA94208BFA0423A
:104710000CD34FF400715020FFF714FF06E0504611
:104720000021FFF70FFF0028E5D1ECE70E4B83F8DF
:1047300000904FF00073C8F81830B9F1000F07D09F
:104740003378182003F0FE033370FFF747FE01E0D3
:10475000FFF780FE3078C0B202B0BDE8F08700BF3E
:1047600006C0072020C00920E8C3072008B5FFF7CE
:104770002FFF014B187808BD06C00720F8B5144676
:1047800005460E46FFF724FF002C3BD01F4B1B783D
:10479000DB0739D41E4B4FF00072DA611D4A1F4609
:1047A000127812F0080F08BF7602012C0ED15120AA
:1047B0003146FFF7C7FEF0B928464FF40071FFF706
:1047C0005BFED0F1010438BF002414E052203146D2
:1047D000FFF7B8FE78B928464FF40071FFF74CFE9A
:1047E00028B1013C14F0FF0405F50075F3D14C200D
:1047F0000021FFF7A7FE4FF00073201CBB6118BF1C
:104800000120F8BD0420F8BD0320F8BD06C0072034
:1048100020C00920E8C30720F8B5144605460E4617
:10482000FFF7D6FE002C46D0264B1A78D20744D488
:104830001B785B0743D4244A4FF00073D361234BAA
:1048400017461B7813F0080F08BF7602012C0DD114
:1048500058203146FFF776FE30BB2846FE21FFF791
:104860004AFED0F1010438BF00241DE013F0060F0A
:1048700003D0D7202146FFF765FE59203146FFF7C8
:1048800061FE88B92846FC21FFF735FE28B1013CBE
:1048900014F0FF0405F50075F4D10020FD21FFF7A9
:1048A0002AFE002808BF01244FF00073201CBB61C2
:1048B00018BF0120F8BD0420F8BD0320F8BD022078
:1048C000F8BD00BF06C0072020C00920E8C30720AC
:1048D0007FB505460C46FFF77BFE052D18D12378E2
:1048E000012B00F001810AD3022B40F0FB80814BA9
:1048F0005B6983F08063C3F380636370F4E07D4B96
:10490000586910F0806440F0EF80FFF7A3FDEBE002
:10491000794B1B78DB0700F1E9800E2D00F2DA807D
:10492000DFE805F008124A4ED8D8D8D8D8D8A5A9BB
:10493000ABB5C5006F4B4FF00072DA61FFF772FD47
:10494000FF3818BF0120C8E049200021FFF7FAFD19
:10495000054608B10120C0E068461021FFF78CFD34
:104960000028F7D09DF800309DF808209B09012B06
:104970009DF8093006D1013303EB022292B2920274
:10498000226042E09DF807109DF80A00890001EBC3
:1049900092129DF80610013201F0030102EB812210
:1049A0009DF8051003F0030301F00F0101EBD01196
:1049B00001EB4303073B25E04FF4007323808BE0BA
:1049C0004E4D2B7803F0040303F0FF01FBB1CD2023
:1049D0000021FFF7B7FD0028BCD1FF20FFF716FD2F
:1049E00068461021FFF748FD0028B3D03025FF208E
:1049F000013DFFF70BFD15F0FF05F8D19DF80A30DA
:104A000010221B0902FA03F32360284665E04920BF
:104A1000FFF798FD064600289CD168461021FFF755
:104A20002BFD002896D029789DF80A2001F002017C
:104A300001F0FF009DF80B3069B19DF80D1002F0F8
:104A40003F02DB0903EB42038909013301398B4043
:104A50003046236041E003F003015B0903EBC1032F
:104A6000C2F38402013302FB0333236035E0234B9E
:104A70001B78237030E0492000E04A200021FFF736
:104A800061FD00287FF466AF204610211BE07A20EC
:104A90000021FFF757FD00287FF45CAF0546FF209B
:104AA000FFF7B4FC60550135042DF8D114E0CD209A
:104AB0000021FFF747FD00287FF44CAFFF20FFF7F0
:104AC000A5FC20464021FFF7D7FCD0F1010038BFFC
:104AD000002002E0042000E00020064B4FF00072AE
:104AE0009A6104E0042002E0002000E0032004B00A
:104AF00070BD00BF20C0092006C00720E8C3072002
:104B0000054B1B78253BDBB2032B9ABF034A52F8B7
:104B100023000020704700BFECC307204C4C02006C
:104B2000F8B5194B05461C880E46B4F5007F1746AC
:104B300002D1084611460AE0B4F5807F09D1084643
:104B400011462246A84706F5807007F58071224677
:104B500017E0B4F5047F05D1510A304689024FF4BD
:104B600000720EE0B4F5847F0CD1170A08464FF4AA
:104B700080727902A847791C06F5807049024FF4CB
:104B80008072A847F8BD00BFEAC3072010B50346EE
:104B900000295DDD07291C782E4A2FDD94605C78A2
:104BA000083994609C789460DC7894601C799460F7
:104BB0005C7994609C79946003F10804DB799360DC
:104BC000244B9A695207FBD59A6802709A68427022
:104BD0009A6882709B68C3701E4BDA68D206FBD459
:104BE0009A68083000F8042C9A6800F8032C9A6838
:104BF00000F8022C9B6800F8013C1BE003291BDD38
:104C000094605C78043994609C7894601C1DDB7817
:104C10009360104BDA68D206FBD49A68043000F82F
:104C2000042C9A6800F8032C9A6800F8022C9B6800
:104C300000F8013C2346ABE7013394600139D468A6
:104C4000E406FCD4034A0130926800F8012C9FE787
:104C500010BD00BF0000034007B50B0C8DF8040029
:104C60008DF805308DF807100B0A01A804218DF886
:104C70000630FFF78BFF03B05DF804FBF7B50F4C70
:104C8000402517460322E5618DF804200A0C0646EC
:104C90008DF805208DF807100A0A01A804218DF867
:104CA0000620FFF773FF30463946002203F016FE58
:104CB000A561A561A56103B0F0BD00BF00C00920DA
:104CC0000D4B4022DA610D4BD7229A60DA68D1068B
:104CD000FCD40A4B9B68094BFF229A60DA68D20623
:104CE000FCD4064B98680306F5D5034B40229A6125
:104CF000C0B29A619A61704700C009200000034069
:104D0000F7B5FFF7DDFF204E002333801F4B204C0B
:104D100040251A889B78E5610746032101A8ADF874
:104D200004208DF80630FFF731FF9DF805209DF82F
:104D300006301F2AA561A561A56134461CD1A3F1E7
:104D40002502032A18D8134A252B137007F00100F7
:104D500006D100280CBF4FF484734FF4807305E034
:104D600000280CBF4FF404734FF400732380FFF747
:104D7000C7FE094B400A18602088D0F1010038BFF7
:104D8000002003B0F0BD00BFEAC30720424C020080
:104D900000C00920ECC30720F0C30720114B2DE908
:104DA000F0411B6816468A18013A9A42074615D800
:104DB0004FEA4128FFF784FF3C460025C7EB080275
:104DC000B542224407DA21460748FFF7A9FE04F559
:104DD00000740135F2E70020BDE8F0810120BDE854
:104DE000F08100BFF0C307207D4C0100104B2DE97E
:104DF000F0411B6816468A18013A9A42074613D8B2
:104E00004FEA412804460025C7EB0802B542224478
:104E100007DA21460748FFF783FE04F500740135E1
:104E2000F2E70020BDE8F0810120BDE8F08100BF7D
:104E3000F0C30720154F010010B50C46072815D800
:104E4000DFE800F004070C1012121212FFF738FF0F
:104E50000AE0FFF755FE400A206005E04FF40073BA
:104E60000B8001E001230B60002010BD042010BD69
:104E700070B590B003466A4600F14005186859685D
:104E8000144603C40833AB422246F7D1074D4024F1
:104E9000EC619B200021FFF7DFFE68462146FFF70B
:104EA00075FEAC61AC61AC6110B070BD00C0092092
:104EB00070B5084D4024064600217720EC61FFF7CD
:104EC000CBFE30462146FFF761FEAC61AC61AC61C0
:104ED00070BD00BF00C00920064B10B51C8834F01F
:104EE0001F0404D0FFF70CFEB0FBF4F010BD204609
:104EF00010BD00BFEAC30720014B1888704700BFF0
:104F0000EAC30720024B1878003018BF0120704711
:104F1000EAC307202DE9F7434FF0FF330F469046D1
:104F200001938146FFF7CCFEFFF7ECFF0646B0B1D8
:104F3000194C4025194BE5611B880320B3F5847F8C
:104F400014BF4FF400714FF480713943FFF784FEB2
:104F500001A80421FFF71AFEA561A561A5610E4C09
:104F6000402382203946E361FFF776FE48464146FA
:104F7000012203F0B3FC3EB1019B02A8013340F8CB
:104F8000043D0421FFF702FE4023A361A361A36156
:104F900003B0BDE8F08300BF00C00920EAC30720CA
:104FA000F7B5124B07461B88B3F5847F4FF0FF33EC
:104FB00014BF4FF400764FF480760193FFF7A2FF01
:104FC00070B10B4C4025032046EA4721E561FFF70D
:104FD00043FE01A80421FFF7D9FDA561A561A561E4
:104FE0000198431C08BF002003B0F0BDEAC30720AE
:104FF00000C0092037B5074B074C186840250190C1
:105000000421E56101A8FFF7C1FDA561A561A561C6
:1050100003B030BD454C020000C009201FB501A8F7
:1050200003F07EFB9DF809209DF8083002F00F0286
:1050300003F01F03520542EA03429DF806309DF833
:10504000050003F01F0342EAC32300F03F0043EAD8
:1050500040109DF80430C3F344031843BDF80A30F0
:105060005B0603F10843184305B05DF804FB10B577
:105070000023D41A032C03D9CC58C4500433F8E7C6
:1050800002F0030422F00302104400230A44A34266
:1050900003D0D15CC1540133F9E710BD0244904202
:1050A00002D000F8011BFAE77047002310B5044650
:1050B0001846C201E15C42EA500201330A440B2B5C
:1050C00002F0FF00F5D110BD036810B50146B3B181
:1050D0001A46144612F8010B1F2802D93A28F8D1B3
:1050E00001E0002010BD1A4612F8010B944206D1CF
:1050F0003038C2B2012A02D802330B6010BD4FF023
:10510000FF3010BDF8B503690C4601F1090243B345
:105110004169002501354B1913F8013C202B16D0AD
:10512000052B08BFE523092D02D12E26167001326A
:10513000A3F14106192E08D8092D0E7B34BF08278C
:10514000102737421CBF2033DBB2137001320B2D06
:10515000E0D1CB7A2372CB6923600B8BA380CB8AFF
:10516000E38000251570A669EEB103690BB900252F
:1051700017E0E369002BFAD0028C4FF6FF739A42D6
:10518000F5D0C76937F8150058B10021FFF756F878
:105190000028ECD0E369013B9D42E8D2705501350F
:1051A000F0E700237355F8BDF8B504460079F8B16F
:1051B000256B04F13407607839462A460123FFF74E
:1051C000CFF8A0B9636A2071EA1AE3699A4201D361
:1051D0000020F8BDE678012EFAD9E36960781D4415
:1051E00039462A460123FFF7BBF8013EF3E70120C9
:1051F000F8BD0000F8B50446FFF7D6FF0546002DC0
:1052000031D12378032B26D16679012E23D104F1E5
:105210003407384629464FF40072FFF73FFF4AF63D
:105220005523A4F83232104B226A636303F1FF5313
:1052300003F500532033C4F8183263690132C4F80F
:105240001C3223692263C4F8203260783946334621
:10525000FFF786F86571002160780A46FFF79CF831
:10526000003018BF0120F8BD52526141036B70B588
:10527000994205460E460DD0FFF796FF044658B9F1
:10528000687805F1340132460123FFF74DF818B96B
:105290002E6302E0002400E00124204670BD0000DF
:1052A000002310B503714FF0FF3303630446FFF78B
:1052B000DDFFA0B9B4F832224AF655239A4210D144
:1052C000D4F86A3023F07F42074B9A420AD0D4F8D0
:1052D000860020F07F40C01A18BF012010BD0320B7
:1052E00010BD022010BD00BF464154002DE9FF4112
:1052F00000230360074608461546FFF7E5FE061E35
:10530000C0F2EC807D4B53F82640002C00F0E88082
:10531000E068FEF7CDFF002800F0E4803C602378D1
:105320006BB16078FEF7F9FFC70708D4002D00F0D5
:10533000DB8010F0040F0CBF00200A20DBE0F0B28D
:10534000002323706070FEF7D5FFC60700F1CE8002
:1053500015B1410700F1CC8020460021FFF7A0FFE6
:1053600001281CD1221D002392F8F21109B1D2F8B4
:10537000F6114DF803100433102B02F11002F3D193
:1053800000265DF806502DB120462946FFF788FF1C
:1053900008B90BE002200436102EF2D100E00025FF
:1053A000032800F0A78008B10D20A4E0B4F83F3036
:1053B000B3F5007FF8D1B4F84A3003B9A36D94F87F
:1053C0004460E361721E012AE670EDD894F8410052
:1053D000A0700028E8D0421E0242E5D1B4F8451082
:1053E0000A072181E0D1B4F8472002B9626DB4F810
:1053F00042C0BCF1000FD7D006FB03F80CEB11172D
:105400004744BA42D0D3D21BB2FBF0F2002ACBD031
:1054100040F6F570824206D94FF6F576B2428CBF5F
:105420000326022600E00126023205EB0C002F4481
:10543000032EA26125626062E76205D10029B3D123
:10544000216E9200A1620FE00029ADD0022E4FEA3A
:10545000420118BF8918404418BF02F00102A0623F
:105460000CBF0A4602EB510202F2FF12B3EB522FBD
:105470009AD34FF0FF3363612361032E4FF0800313
:10548000637122D1B4F86430012B1ED12046691C0F
:10549000FFF7ECFEC8B9B4F832224AF655239A4217
:1054A000607112D1636B164A93420ED102F1FF5222
:1054B000D4F8183202F500522032934205D1D4F8C4
:1054C0001C326361D4F8203223610E4A267013889F
:1054D000002001339BB21380E3800CE00B200AE034
:1054E0000C2008E00F2006E0284604E0032002E03C
:1054F0000A2000E0012004B0BDE8F081F8C30720D5
:1055000052526141F4C3072010B50446A8B10368A4
:105510009BB11A788AB1D988828891420DD1D86816
:10552000FEF7C6FE58B123685878FEF7F6FE10F075
:10553000010F0CBF0020032010BD092010BD0F205B
:1055400010BD50B1A1F10B03012B06D9092904D0DC
:105550000F2902D0C068FEF7BEBE704783690239CA
:10556000023B99423DBF8278C36A02FB01300020B2
:1055700070470129F8B504460D464BD98369994215
:1055800048D20378022B29D0032B34D0012B41D1F0
:1055900001EB5106416A01EB5621FFF767FE10B19E
:1055A0004FF0FF30F8BD616AC6F3080301362344AB
:1055B000204601EB562193F83470FFF757FE002880
:1055C000EED1C6F30806344494F83400EB0747EAFA
:1055D00000204CBF0009C0F30B00F8BD416A01EB8D
:1055E0001521FFF743FE0028DAD16D0005F4FF75A1
:1055F0002C44A08EF8BD416A01EBD511FFF736FEB1
:105600000028CDD1AD0005F4FE752C44606B20F070
:105610007040F8BD0120F8BDF8B584680546012C3E
:105620000E46E98001D10220F8BD03689A699442D0
:10563000F9D254B91A78032A01D19A6A22B91A897F
:105640009642F0D2986A15E014469F783F01BE4218
:10565000286821460CD3FFF78CFF431C044618D062
:105660000128E0D92B689B699842DCD2F61BEEE753
:10567000FFF774FFEC600028D5D02B6800EB161004
:1056800006F00F0603EB4613343328616B610020EC
:10569000F8BD0120F8BD0129F8B504460D461646AF
:1056A0005ED9836999425BD20378022B37D0032BF2
:1056B00041D0012B50D101EB5107416A01EB572139
:1056C000FFF7D4FD002848D1C7F3080315F0010502
:1056D0002344F2B206D093F8341001F00F0141EAEE
:1056E0000212D2B2616A83F8342001370123237198
:1056F000204601EB5721FFF7B9FD70BBC7F3080740
:10570000274415B1C6F3071606E097F83430C6F300
:10571000032623F00F031E4387F834601DE0416A1F
:1057200001EB1521FFF7A2FDB8B96D0005F4FF7577
:105730002544AE8611E0416A01EBD511FFF796FDD5
:1057400058B9AD0005F4FE75303525446B6803F09B
:1057500070431E436E6000E0022001232371F8BDF8
:105760000220F8BDF8B504460F4631B9066996B176
:1057700083699E4228BF01260EE0FFF7FAFE01284A
:105780003FD9451C02D14FF0FF30F8BDA3699842C4
:1057900038D33E4600E001263546A36901359D42D7
:1057A00004D3012E01D80020F8BD02252046294649
:1057B000FFF7DFFE30B1411CE5D0012821D0B54212
:1057C000EBD1F0E7204629466FF07042FFF763FF08
:1057D000A8B957B9636925615A1C0ED0013B6361B2
:1057E000637943F00103637107E0204639462A4696
:1057F000FFF751FF0028EDD001E02846F8BD012851
:10580000C1D00120F8BD2DE9F843C6880446013611
:10581000B3B20F4613B90420BDE8F8830369002B27
:10582000F9D016F00F0859D1C1680133036100683F
:1058300019B903899E42EED250E08278013A12EA09
:1058400016124BD1FFF795FE0128054602D802201B
:10585000BDE8F883421C02D10120BDE8F88320682E
:1058600083699D4234D3002FD5D0E168FFF77AFFDA
:10587000054600283BD00128E9D0431CECD0206825
:10588000FFF792FC07460028E6D1206839463430FD
:105890004FF40072FFF702FCD4F800902946484606
:1058A000FFF75CFEC9F8300023689A7897420CD263
:1058B00001221A712068FFF777FC0028CCD12368F9
:1058C00001371A6B01321A63EEE71A6BD71B1F639D
:1058D000E56020682946FFF741FE20612368E680E5
:1058E00003EB4813343363610020BDE8F8830720DD
:1058F000BDE8F8832DE9F74F4FF6FF734FF0FF082F
:1059000004460384454620682169FFF7AFFC07463B
:1059100000287CD166693378002B73D0E52BF17AAF
:1059200064D001F03F02090702D50F2A5ED101E0E1
:105930000F2A46D1D4F81CB0BBF1000F5AD05A063A
:1059400006D503F0BF05E38896F80D80238401E0B7
:10595000AB424ED1737B43454BD137780D2327F0B3
:105960004007013F5F434FF001094FF0000A2A4B07
:105970001AF80330F05AB9F1000F0FD0FEF77AFC95
:105980007F2F814635D87B1C3BF817000193FEF72B
:1059900071FC8145019B2CD11F4603E04FF6FF733C
:1059A000984226D10AF1010ABAF10D0FDFD13378FE
:1059B0005B0629D5B9F1000F26D03BF817301BB391
:1059C00017E025B93046FFF770FB80451FD0A2696C
:1059D000D37A13F0010309D1F15C0133D01810F828
:1059E000010C884202D10B2BF6D110E04FF6FF7369
:1059F0002384FF2520460021FFF705FF07460028E6
:105A000081D004E0042702E0013DEDB2F2E7384620
:105A100003B0BDE8F08F00BF364D02002DE9F74F0F
:105A20000B7806462F2B894601D05C2B01D109F15A
:105A300001090024B46099F800301F2B62D8304669
:105A40002146FFF7E9FD74610FE101333AF81310C5
:105A50002029FAD02E29F8D00BB144F00304424695
:105A600032F8021D2E2901D0013DF9D14FF0000B73
:105A70004FF008085F465A1C3AF81330002B40F0EC
:105A80008B80B3691A78E52A04BF05221A70B8F131
:105A9000080F04BFBF00FFB207F00C030C2B00F08F
:105AA000C88007F00302032A00F0C380A10709D4CD
:105AB00007F00307012F08BF44F01004042B08BFB0
:105AC00044F00804B3693046DC720021FFF7A4FDFE
:105AD00010B93046FFF70EFFB369DB7A002840F0BB
