:100000000080001017010000E1000000E300000084
:10001000E5000000E7000000E9000000000000002B
:10002000000000000000000000000000EB000000E5
:10003000ED00000000000000EF000000F1000000F3
:10004000F3000000F3000000F3000000F3000000E4
:10005000F3000000F3000000F3000000F3000000D4
:10006000F3000000F3000000F3000000F3000000C4
:10007000F3000000F3000000F3000000F3000000B4
:10008000F3000000F3000000F3000000F3000000A4
:10009000F3000000F3000000F3000000F300000094
:1000A000F3000000F3000000F3000000F300000084
:1000B000F3000000F3000000F3000000F300000074
:1000C000F3000000F3000000F300000094150000AE
:1000D00000000010040000000400001018000000E0
:1000E000FEE7FEE7FEE7FEE7FEE7FEE7FEE7FEE7E8
:1000F000FEE7FEE710B50023934203D21C585C5084
:100100000433F9E710BD00238B4203D200221A50BA
:100110000433F9E7704710B50A4C0B4B9C4205D2EB
:1001200094E807000C34FFF7E5FFF6E70748844240
:1001300005D294E803000834FFF7E5FFF6E701F085
:1001400065F8FEE7CC000000D8000000E0000000E9
:10015000154B164903220020C3F80421C3F80C01F3
:100160005522C3F884100120AA21C3F88C10C3F8CB
:100170008C20C3F88000C3F88C10C3F88C20D3F80F
:100180008810094A4901FAD50323AA205521C2F84B
:100190008030C2F88C00C2F88C10034AD2F8883044
:1001A00013F0407FF9D0704700C00F402F000100CE
:1001B00010B50C4611461A4620B92046BDE810403D
:1001C00000F00EBD2046BDE8104000F0B7BC38B5C9
:1001D000036A05468B420C460CD059B1407805F1B4
:1001E000240122460123FFF7E3FF08B92C6238BD42
:1001F000012038BD002038BD10B504460A464078BD
:1002000004F124010123FFF7D3FFA0B9B4F822229F
:100210004AF655239A4210D1D4F85A10084B21F0CF
:100220007F429A420AD0D4F8760020F07F41C81A63
:1002300018BF012010BD032010BD022010BD00BF5B
:100240004641540008B5437813B900F0C7FC01E0FB
:1002500000F072FC10F0010F14BF0320002008BD55
:10026000C36802399A1E914204D28278C06902FBA7
:1002700001007047002070470129F8B504460D467B
:1002800048D9C368994245D20178022927D0032969
:1002900030D001293BD1426905EB550602EB5621CE
:1002A000FFF795FF002832D16369F005013604EBB2
:1002B000D05703EB5621204697F82470FFF787FFAD
:1002C00028BBF60504EBD65494F82410EB0747EA54
:1002D000012201D51009F8BD1005000DF8BD4269D5
:1002E00002EB1521FFF773FF88B92D0604EBD554F7
:1002F000A08CF8BD436903EBD511FFF768FF30B957
:100300006D0604EBD554616A21F07040F8BD4FF0E2
:10031000FF30F8BD0120F8BD816838B50023012900
:100320000446C38001D1022038BD0568E8688142D7
:10033000F9D261B92978032901D1A96939B92A8982
:100340000021E160002AEED0AB69236113E0AA78B6
:1003500062B92068FFF790FF421C01460FD00128C8
:10036000E1D92368D8688142F3D3DCE7E16028460D
:10037000FFF776FF206124356561002038BD01203C
:1003800038BD0000012810B50CD8074A52F82030BB
:100390000BB100241C7009B100230B7042F820102F
:1003A000002010BD0B2010BD080000102DE9F04703
:1003B0000023036091F800808AB0A8F13008B8F1FA
:1003C000090F06460D46174609D84A783A2A06D13B
:1003D0008D1C0B20B8F1010F00F2AD8000E09846B3
:1003E000A74850F828400394002C00F09D80217805
:1003F00041B900225FFA88F02270607068B900F09D
:10040000EBFB0CE0637813B900F0E8FB01E000F0CF
:1004100093FB10F00100ECD18DE000F0F9FA10F040
:10042000010840F0838020464146FFF7E5FE0128A1
:1004300009D194F8E61100297CD0D4F8EA8120464D
:100440004146FFF7D9FE032872D0002872D1B4F8D4
:100450002F30B3F5007F6DD1638F03B9A36C94F88F
:1004600034A023610AF1FF32012A84F803A061D885
:1004700094F831200AFB03FAA270002A5AD0501EC9
:10048000104257D1B4F835000107208152D1B4F899
:10049000371001B9616CB4F832C0BCF1000F49D01B
:1004A0000CEB1019D144494544D3C9EB0101B1FB10
:1004B000F2F2002A3ED040F6F5718A4206D901F5E3
:1004C00070418A428CBF0321022100E001210232E7
:1004D000C1440329E044E260C4F81C90C4F81480CD
:1004E00004D138BB206DA06190000DE010B30AEB81
:1004F00008000229A06101D1500005E0032050430B
:1005000002F0010202EB500000F2FF12B3EB522F97
:1005100010D321705B490B88581C82B200200A80DE
:10052000E2802062207106E00C2004E0032002E05B
:10053000012000E00D2000A90991002840F0D3809F
:100540002C782F2C01D05C2C00D101352B78002485
:100550001F2B05944CD803A8FFF7DEFE0894C2E0D9
:100560002020A05401320B2AFAD100208446082210
:10057000014615F80C300CF1010C202B3BD86544DA
:10058000202B94BF04230023002800F0AB802078A8
:10059000E52801D105202070082A01D18A00D1B2B6
:1005A00001F00300012801F00C0208BF43F0100322
:1005B000042A08BF43F00803E37203A8FFF7ACFE68
:1005C000002853D00999CB7A00287FD103F0040288
:1005D000D1B2002940F087800898C37A03F0100256
:1005E000D1B200297CD0848A408B40EA0443059331
:1005F000099C0022B4E72F2BC1D05C2BBFD02E2B3F
:1006000000F0A38090426DD213F0800F6AD1DFF822
:10061000789019F8018FB8F1000F6FD09845F8D194
:1006200060E0089A1378002B4ED0D47A04F00801C9
:10063000CBB243B9DDF824E00346D45C1EF80310C6
:1006400001338C4219D0BDF81200421C94B2002C28
:100650003AD00799002937D014F00F0816D0039923
:10066000ADF8124001EB481324330893039807991F
:10067000FFF7ADFD0028D4D0A4E70B2BDDD1A1E717
:1006800008000010040000101B1400004B1C069909
:100690000793039819B90089A04215D9DFE782783A
:1006A000531E13EA1413DAD1FFF7E6FD01280146C1
:1006B00052D9013052D00398C268914204D20691B7
:1006C000FFF7CEFD0790CAE704207BE704280AD194
:1006D00003F00402D1B2002914BF0420052002E077
:1006E000052000E00620089B002839D1D3B1DA7A32
:1006F00002F01001CAB2BAB1042031E0A3F14108FE
:10070000B8F1190F02D841F0020108E0A3F1610825
:10071000B8F1190F03D8203B41F00101DBB223549B
:10072000013026E706201BE007F00107B7715A8B5E
:10073000998A42EA0141039A3161DB69D188F36009
:10074000B060B0613260B1800AE0082ACAD1890085
:100750001046C9B20B220CE7022033E7012031E733
:100760000AB0BDE8F08700BF2DE9F84F04460068E5
:100770009946002388461646C9F80030A18800280B
:1007800000F093800278002A00F08F80C5888D42A7
:1007900040F08B80FFF756FD0546002840F08A8028
:1007A000A079010600F18380C20740F18280E768EA
:1007B000A368FF1ABE4238BF3746002F7AD0A1681F
:1007C000CA0536D1206890F802B00BF1FF3202EA78
:1007D000512313F0FF0B0AD109B9206902E06169C6
:1007E000FFF74AFD012809D9431C2FD06061D4F8D6
:1007F00000A061695046FFF733FD20B9A17961F08F
:100800007F00A07153E07E0A00EB0B0210D09AF833
:10081000020006EB0B03834288BFCBEB0006414688
:100820009AF80100F3B2FFF7C3FC78B9760231E021
:10083000A261A668F005C10DC1F500762068A16926
:10084000B74238BF3E46FFF7C2FC28B1A57965F034
:100850007F02A27101252DE0A2682368D10503EB78
:10086000D15202F12402311A032904D9115848F84F
:1008700000100430F7E726F00303D01806F0030158
:10088000434400228A4205D010F802C003F802C097
:100890000132F7E7A268D9F8000091198319A16025
:1008A000B044C9F80030BF1B87E7092502E00225E4
:1008B00000E007252846BDE8F88F10B5044600681B
:1008C000A28848B1017839B1C388934204D1FFF7B7
:1008D000B9FC10B9206010BD092010BD044BFF22E7
:1008E0009A60D868C206FCD401498B68D8B27047B8
:1008F00000000340044B9860DA68D106FCD402483B
:100900008168C8B2704700BF000003404FF0402329
:1009100010B59C6804F5FA74FFF7E0FFFFF7DEFFFF
:10092000FF2804D04FF040218A68A242F6D310BDC0
:100930004FF0402370B59C6805460E466434FFF7BF
:10094000CDFFFF2805D14FF040218A68A242F6D39F
:1009500018E0FE2816D12C46FFF7C0FF2070FFF7E5
:10096000BDFF6070FFF7BAFFA070FFF7B7FFE07040
:100970000434A819A042EFD1FFF7B0FFFFF7AEFF94
:10098000012070BD002070BD020638B504460D463A
:1009900007D577200021FFF7F7FF012834D804F0AE
:1009A0007F041A4B4FF000729A61DA61FFF7AEFFD5
:1009B000FF2828D12046FFF79DFF280EFFF79AFF5A
:1009C000C5F30740FFF796FFC5F30720FFF792FF37
:1009D000E8B2FFF78FFF402C04D0482C0CBF8720D3
:1009E000012000E09520FFF785FF4C2C01D1FFF797
:1009F00075FF0A24FFF772FF030605D5013C14F0CA
:100A0000FF04F7D138BDFF2038BD00BF20C009204A
:100A1000464B642273B51A610A24013CFFF75EFF5E
:100A200014F0FF04F9D142494FF00070C861402032
:100A30002146FFF7A9FF012801D0002467E04FF00D
:100A40004025AA6848204FF4D57102F57A75FFF762
:100A50009BFF012839D1FFF741FF01AB1855013445
:100A6000042CF8D19DF806000128E6D19DF8071066
:100A7000AA29E2D14FF040229368AB4205D34FF050
:100A80004024A068A842D8D207E0E9204FF0804176
:100A9000FFF77AFF0028EDD1F1E77A200021FFF778
:100AA00073FF0028C9D10446FFF718FF01A90855B4
:100AB0000134042CF8D19DF8042002F04003D8B290
:100AC00000280CBF04240C2421E0E9202146FFF774
:100AD0005BFF01288CBF012402248CBF4126E9263C
:100AE0004FF040239868A8420AD34FF040218A680B
:100AF000AA420CD350204FF40071FFF745FF06E0E7
:100B000030460021FFF740FF0028E9D1EDE7094911
:100B1000074B4FF000720C709A6124B10349042016
:100B20000861002000E003207CBD00BF00000340FE
:100B300020C00920180000100020704738B5054675
:100B40001446002A36D01C4B4FF000721B48DA6165
:100B5000027802F00803D8B200B94902012C0DD185
:100B60005120FFF711FFE8B928464FF40071FFF755
:100B7000DFFED0F1010438BF002413E05220FFF75C
:100B800003FF78B928464FF40071FFF7D1FE28B172
:100B9000013C14F0FF0405F50075F3D14C20002151
:100BA000FFF7F2FE044A4FF00071201C916118BF5C
:100BB000012038BD042038BD20C0092018000010D5
:100BC000044B9860DA68D206FCD402488168C8B247
:100BD000704700BF000003400020704700207047AE
:100BE000174B70B5560240224C02DA610546E820E8
:100BF000FFF7E6FFC4F30740FFF7E2FFC4F3072067
:100C0000C0B2FFF7DDFF0020FFF7DAFFFF20FFF79C
:100C1000D7FFFF20FFF7D4FFFF20FFF7D1FFFF2012
:100C2000FFF7CEFF0024B44205DA285DFFF7C8FFC6
:100C300028550134F7E7024A40219161002070BD38
:100C400000C0092000B581428BB009D33223069041
:100C5000079105A805936946034A9047009800E06C
:100C60000C200BB000BD00BFF11FFF1F00B58BB003
:100C70000690094808920268332307914FF47A716D
:100C80000593B2FBF1F305A809936946034A90471F
:100C900000980BB000BD00BF00000010F11FFF1F47
:100CA00000B581428BB010D3069009483423026806
:100CB00007914FF47A710593B2FBF1F305A80893FD
:100CC0006946044A9047009800E00C200BB000BD34
:100CD00000000010F11FFF1F10B51C468AB038231A
:100CE00006900791089205A805936946044A904723
:100CF00000980A2802D10CB1019921600AB010BDF8
:100D0000F11FFF1F154B0001D3F8C42042F008016A
:100D1000134AC3F8C410116821F0F0011160116882
:100D200041F050011160D3F8A82122F0C001C3F8AE
:100D3000A811D3F8A82142F04001C3F8A8118022DD
:100D4000A3F570231A730021064A19711168B1FBCB
:100D5000F0F0C2B203211A701973704700C00F403F
:100D600000C0024000000010044B1A7D02F0400158
:100D7000CAB2002AF8D01870704700BF00C0004007
:100D80004FF48033002053F8042BB3F5002F1044A8
:100D9000F9D1704710B50023934203D0CC5CC45402
:100DA0000133F9E710BD8218904202D000F8011B10
:100DB000FAE770474FF04023996840184FF04022FF
:100DC00093688342FAD370474FF0402399684018E4
:100DD000064B1A7DD20701D5187870474FF0402195
:100DE0008B688342F4D9FF20704700BF00C00040E9
:100DF00010B5441E14F8010F10B1FFF7B5FFF9E765
:100E000010BD08B5FFF7F4FF0A20BDE80840FFF762
:100E1000ABBF000007B54FF4FA70FFF7CBFF00231C
:100E200004488DF8073001788DF807109DF80730D9
:100E30000EBD00BF00C0004010B59EB07822044631
:100E40000A496846FFF7A6FFADF10402002052F8F8
:100E5000041F8C4202D353689C4204D301301E28E5
:100E6000F5D14FF0FF301EB010BD00BF2C140000B4
:100E7000F0B5ADF5805D85B00746002168461022CB
:100E8000FFF791FF002634464FF4FA70FFF79CFFFE
:100E900004AD605501343618B4F5805FF6B2F3D175
:100EA0004FF4FA70FFF790FF864203D0FFF7B2FFCE
:100EB000402027E007F1100006033046FFF7BCFF93
:100EC000431C01461BD0FFF7BDFE104B00201A68E3
:100ED00045F80C0C02F58051196045F8100C2946B4
:100EE00022463046FFF7C2FE3046294622466B4670
:100EF000FFF7F2FE002814BF5E20212002E0FFF77A
:100F000089FF5E2005B00DF5805DF0BD1400001076
:100F10002DE9F0438DB0054600AF07F114002946D6
:100F20000122FFF743FA804638B13F48FFF760FFE0
:100F30002846FFF766FF002071E04FF48030FFF78E
:100F40007BFF0646386A00F58030FFF775FF814663
:100F500049463046FFF776FE044608B1334805E0BF
:100F600030464946FFF79CFE38B13148FFF749FF4C
:100F700007F11400FFF7A1FCDDE74FF040239A686A
:100F80002C49E946ADF5805D6E4638600A604FF445
:100F9000803407F1140031464FF480523B46FFF78E
:100FA000E3FB804628BB386818B3234A1368191836
:100FB00020461160FFF740FF0146FFF743FE314630
:100FC0004FF480522046FFF751FE41461022381D53
:100FD000FFF7E9FE204631464FF480523B1DFFF7F4
:100FE0007BFE18B11548FFF70CFF02E004F58054B2
:100FF000CFE7104B4FF0402081681A68881A1860BC
:1010000007F11400FFF759FC0D48FFF7F1FE2846E1
:10101000FFF7EEFE0B48FFF7F4FE0120CD4607F187
:101020003407BD46BDE8F083A4140000AE140000F0
:10103000C61400001000001014000010DC140000A2
:10104000F4140000FA14000010B5AA20FFF78CFE7B
:101050004FF4FA70FFF7B8FE0446FFF785FE1D2136
:101060001020FFF7EFFD1D211020FFF719FE11489A
:10107000611CB0FBF1F0FFF745FE0F48FFF7C1FE22
:101080002120FFF771FE4FF4FA70FFF79DFE044632
:101090004FF4FA70FFF798FE4FF6FF7340EA042012
:1010A000984202D0FFF7E4FEEBE72A20BDE81040AB
:1010B000FFF75ABEC0C62D001415000008B5234B1B
:1010C0004FF480329A60224BD3F8800020F0020166
:1010D000C3F88010AA205521C3F88C00C3F88C10E7
:1010E000D3F8802022F00102C3F880200022C3F848
:1010F0008C00C3F88C10C3F80C21C3F88420C3F80B
:101100008C00C3F88C101349C3F80421086820F040
:10111000F0000860D3F8A81121F0C0000E49C3F810
:10112000A801802008730A710A700A734FF04021E9
:101130004A600A67D3F8A80120F00C00C3F8A801A0
:10114000064BCA601A68904708BD00BF00ED00E07A
:1011500000C00F4000C0024000C000400400010079
:1011600010B5C0B004464FF4704168464FF4807229
:10117000FFF710FE029B013301D10020029003997A
:1011800011B94FF0FF3203921B4B009918684A1CAB
:101190000490009214B1019B581C01901749029AC7
:1011A0000B680398934288BF02931549834238BF66
:1011B0000393D1F8C4309A0509D5124A107A30B198
:1011C000114A05AB5168106803C3916819600F207C
:1011D0000146FFF737FD0F200146FFF761FD0F20A5
:1011E0000146FFF72FFD69464FF480724FF47040BF
:1011F000FFF73CFD40B010BD1000001014000010BF
:1012000000C00F400040024014400240F0B5ADF273
:101210004C4DFEF79DFF724D4FF0402401230020FE
:1012200063602067D5F8A8116E4B21F00C02C5F859
:10123000A821D5F8A8614FF47A7146F00407C5F8E3
:10124000A8711868684EB0FBF1F2E2604FF41640E6
:10125000FFF758FD0A20FFF7B7FDFF20FFF784FDD9
:10126000624A776C624B5669F81A414206F4C063D1
:1012700051EB0007B3F5C060414251EB000617B9CE
:10128000002E00F08D80D5F8C41041F48062C5F8BE
:10129000C420D5F8A841072224F44013C5F8A8318A
:1012A000D5F8A801022440F48011C5F8A811514DC9
:1012B00004232A60A5F580406C602B6101684E4BC9
:1012C00021F47C250560026842F428240460402053
:1012D000986119684FF0007241F040051D609A63F3
:1012E0001C6A694644F0007018620020FFF74AF853
:1012F000012089A9FFF746F84048FFF779FD6FB153
:10130000394B00265E643E48FFF772FD3D48FFF70B
:1013100078FDFFF735FD0746394814E0EEB13A484D
:10132000FFF766FD3948FFF763FD3948FFF760FDB9
:101330003848FFF766FDFFF723FD07463248FFF701
:10134000E7FD18B93248FFF7E3FD30B1FFF718FDAC
:10135000381A18BF0120FFF703FF21490020D1F8F8
:10136000A851A1F54C2425F44012C1F8A821A4F5F8
:1013700080472060606020613E681F4D26F47C231A
:101380003B602968194C21F040022A6020684FF028
:10139000007620F0007740232760E661EB6118E0DB
:1013A0004FF4FA70FFF710FD552812D1FFF7E8FC53
:1013B000194EA26807463260FFF746FE3368A468FC
:1013C000E01A3060FFF7DCFC381A18BF0120FFF785
:1013D000C7FE0520FFF7EEFCFFF770FEFEE700BF3B
:1013E00000C00F40000000100040024020C0092053
:1013F0000DD0ADDE0000034000C009202B15000019
:1014000048400240401500005B15000066150000D2
:101410006D1500007815000010000010222A2B2CFA
:101420003A3B3C3D3E3F5B5D7C7F0000000000009E
:10143000001000000020000000300000004000000C
:1014400000500000006000000070000000800000FC
:101450000090000000A0000000B0000000C00000EC
:1014600000D0000000E0000000F0000000000100DB
:101470000080010000000200008002000000030064
:10148000008003000000040000800400000005004C
:101490000080050000000600008006000000070034
:1014A000008007004E6F2066696C653A2000457227
:1014B000726F7220707265706172696E67207365F9
:1014C00063746F7273004572726F7220657261731C
:1014D000696E6720736563746F7273004572726F13
:1014E0007220766572696679696E672073656374C8
:1014F0006F72730046696C652000207375636365C5
:10150000737366756C6C792070726F6772616D6D44
:1015100065642100244C5043313735383A34303932
:10152000363A343039363A353132000A547279203D
:10153000746F20666C6173682066726F6D2027007F
:10154000272028726567697374657220696E7374E9
:1015500072756374696F6E73292E00303A70726F02
:10156000672E62696E0027204F52202700313A70A3
:10157000726F672E62696E00272028747269676730
:101580006572656420627920627574746F6E732968
:0415900000FFFFFF5A
:04159400006CDC0209
:0400000300000117E1
:00000001FF
