:020000021000EC
:10000000E03F082095010100FB000100E100010034
:10001000090101001901010029010100000000008F
:1000200000000000000000000000000051AD0100D1
:100030003901010000000000B1AD010059010100CB
:1000400091B3010091B3010091B3010091B301009C
:1000500091B3010091B3010091B3010091B301008C
:1000600091B3010091B3010091B3010091B301007C
:1000700091B3010091B3010091B3010091B301006C
:1000800091B3010091B3010091B3010091B301005C
:1000900091B3010091B3010091B3010091B301004C
:1000A00091B3010091B3010091B3010091B301003C
:1000B00091B3010091B3010091B3010091B301002C
:1000C00091B3010091B3010091B30100CC6502002E
:1000D00000C00720F4020000F8C20720A0040000BE
:1000E00004207146084203D0EFF309800BF06EB98B
:1000F000EFF308800BF06AB9704708B5014807F0C4
:10010000DDFEFEE77A5F020008B5024807F0D6FE82
:10011000FEE700BF855F020008B5024807F0CEFE8B
:10012000FEE700BF905F020008B5024807F0C6FE78
:10013000FEE700BF9B5F020008B5024807F0BEFE65
:10014000FEE700BFA85F020008B5024807F0B6FE50
:10015000FEE700BFB65F020008B50AF0ABFD0AF08B
:1001600049FEBDE808400AF0B9BD0B4610B5401A7B
:100170005C1AA24203D9C45843F8044BF8E710BDF7
:10018000034610B500221C1AA14202D943F8042BE1
:10019000F9E710BD16480AF0CFFE15480AF0CFFE69
:1001A000144C154DAC4201D3144D07E094E8030004
:1001B0000C3454F8042CFFF7D8FFF3E7AC4206D216
:1001C00054F8080B54F8041CFFF7DAFFF6E70CF0BC
:1001D0003FFD0AF0CBFE01F0D9FD02F0C3FD4FF464
:1001E00016400BF011FA064807F068FEFEE700BF64
:1001F000E03F0820CC000100D8000100E000010031
:10020000CA5F02000AF0B8BD0AF0C6BD144B10B5B3
:100210001A68014612B94FF080521A60114C1868E2
:100220002468421894421A6007D20F4CA24204D8A4
:100230000E4A0B488C18046010460D4A1B68126861
:10024000934222BF064B00201A6039B1094A136855
:1002500001331360084B1860084B196010BD00BFD4
:10026000FCC2072004C30720FFBF072098C7072050
:1002700008C307200CC30720F8C2072000C30720CB
:100280000CF01EBE0CF024BE0CF022BE30B50446AD
:100290008BB068460DF0D0F8224B079A2360089B7C
:1002A000214DA36062602149214B52B90A68186848
:1002B00082428ABF02F1604202F17042A2F5E82256
:1002C000626062681B68B2F5803F82BF02F17042D3
:1002D000A2F5E82262600022E2600A68934206D337
:1002E000991AC5F1005303F504230B440BE0114B9D
:1002F0001B68934208D9991AC5F1005303F5F823F6
:100300000B44002B00DDE36020460B4BE2611B68D1
:10031000A3610A4B1B686361094B1B6823610BB027
:1003200030BD00BF9807000098C70720FCC2072017
:1003300004C3072008C30720F8C2072000C3072012
:100340000CC30720034A044B1A60044A044B1A608A
:10035000704700BF0080001004C307200040082041
:1003600008C30720014B1860704700BF14C3072063
:10037000014B1860704700BF10C3072008B5024842
:100380000EF002F8FEE700BF5437020008B502483D
:100390000DF0FAFFFEE700BF6E3702000020704745
:1003A00001207047F8B5084B16461A680F461C46E0
:1003B00042B10D46EB1B9E4204DD236815F8010B8C
:1003C0009847F7E73046F8BD14C30720F8B5094B46
:1003D0000F46186816461C4658B10D46EB1B9E4248
:1003E00005DD23680020984705F8010BF6E726EAAB
:1003F000E670F8BD10C30720704700207047FFFF6C
:10040000074B1B689A68824207D05A68824204D020
:10041000DB681B1A5842584170470120704700BFE3
:1004200038C10720002070470020704730B50446CF
:100430008DB0A8B3684608F023FD9DF80030002574
:1004400003F03F0303939DF8013003A803F03F033B
:1004500004939DF802300B9503F01F0305939DF85C
:10046000043003F01F0306939DF8053003F00F03DB
:10047000013B0793BDF80630C3F30B03A3F26C7383
:1004800008939DF8033003F007030993BDF8083083
:10049000C3F30B03013B0A930CF05CFE84E82100DC
:1004A00000200DB030BDFFFF70B50F4D0F4E2C6812
:1004B00014F0010415D128460BF046FC88B14FF426
:1004C0000E70FFF7DDFE302380F835323A2380F8D6
:1004D000344280F8363280F83742306028460BF0DC
:1004E0003FFC306870BD00BF30C3072034C3072015
:1004F00070B50F4D0F4E2B6813F0010416D128462E
:100500000BF022FC90B14FF40E70FFF7B9FE0123FF
:1005100080F83432312380F835323A2380F836328D
:1005200080F83742306028460BF01AFC306870BD06
:1005300028C307202CC307202DE9F04FADF51B7D04
:100540000F4608F0DFF8041E04DD0AF07BFB2046AE
:100550000AF0BEF80DF114094C462A4D4FF0640B19
:100560000FCD0FC42B6804AA2360102100240AA811
:1005700004940AF06BFA244A82462449384608F06B
:10058000EFFE26460AAD4FF00008D0451CD06B693F
:10059000A34215D1AA69049B16441BB1B3FBFBF31C
:1005A000B2FBF3F3297B039202932B8C00949B0004
:1005B000019359F821306A681549384608F0D0FE91
:1005C00008F101082435E0E701340A2CDAD1049B54
:1005D00064229E1BB3FBF2F30E49B6FBF3F30E4A03
:1005E0000096384608F0BCFE09F046FF102804D9F2
:1005F00010220A49384608F0B3FE01200DF51B7D94
:10060000BDE8F08F88370200A7370200AC37020040
:10061000D3370200FB370200F03702001A3802001D
:1006200010B50C46ADF5007D68460AF037FE204651
:100630004FF0FF32694608F05DFE01200DF5007DA8
:1006400010BDFFFF30B50C4691B02C49054607F0B0
:1006500065FF002847D00CAB04930BAB03930AABA8
:10066000029309AB019308AB009306AA07AB244998
:10067000284607F0BBFE072801D000203BE09DF88C
:100680003930069A0DA862F303038DF83930079AC2
:100690009DF8383062F304038DF83830089ABDF8BD
:1006A0003A3062F30B03ADF83A30099A9DF83630D0
:1006B00062F304038DF836300A9A9DF8353062F300
:1006C00005038DF835300B9A9DF8343062F305033D
:1006D0008DF834300C9A9DF8373062F302038DF8B0
:1006E000373008F0F5FB08F08FFC0649024620463B
:1006F00008F036FE012011B030BD00BF44380200C2
:1007000048380200DA570200F7B50D464E49044654
:1007100007F0F4FF064640B107F068FA4FF0FF32E9
:100720004A49284608F0E6FD8BE04949204607F093
:10073000E5FF60B307F07EFA46490246284608F016
:100740000FFE07F083FA44490246284608F008FEE7
:1007500007F076FA41490246284608F001FE304685
:1007600007F05EFA0446012007F05AFA0646022016
:1007700007F056FA0746032007F052FA0097019057
:10078000334622463649284608F0EAFD59E0354905
:10079000204607F0C3FE50B120220121204607F079
:1007A0005BFF204607F0ACFF07F068FB49E02E49ED
:1007B000204607F0B3FE064620B92C49204607F034
:1007C000ADFE60B32A49204607F096FE60B929497C
:1007D000204607F091FE28B92046274907F08CFEF5
:1007E000044602E0032400E002243146204607F0DC
:1007F0009DFA224A224B002E18BF1A463CB1012C0A
:1008000007D01C491A4B022C18BF0B4602E01D4BA7
:1008100000E0194B1C49284608F0A2FD11E02046D3
:1008200007F06EFF194A1A490090F323012007F0E0
:100830008BFA204607F064FF16490246284608F066
:100840008FFD012003B0F0BD83380200893802001B
:10085000A2380200A9380200BE380200D3380200D4
:10086000F238020022390200263902002E39020035
:100870007E38020078380200724A020069380200AD
:100880006138020072380200373902009C370200DA
:10089000503902008339020030B589B004AB00241E
:1008A00000930D4603AB022218490394049407F009
:1008B000ABFD022827D107AB009305AA06AB04992C
:1008C000039805940694079403F09CFE024638B101
:1008D000049B0F4900932846039B08F041FD10E05C
:1008E000059A069B002A079908BF0122002B08BF22
:1008F0000123B1FBF3F3B1FBF2F22846054908F0FE
:100900002FFD012000E0204609B030BD124A020050
:1009100091390200B03902002DE9F0470E46ADF5DD
:10092000856D3949054607F083FE38490746284654
:1009300007F0A7FE3549284607F0C3FE284607F012
:10094000DFFE0122014681A805F0A6FE044640B163
:10095000284607F0D5FE2E490246304608F000FD35
:100960004CE00DF1040A01464FF4007250460CF0C1
:100970000CFB00940AF07CFC804689466B464FF4E1
:100980000072514681A805F021FF08B9009B23BBE6
:1009900081A806F0EAF8CFB10AF06AFC4FF47A7247
:1009A00000230BF0CDFE002305464FF47A7240463B
:1009B00049460BF0C5FE281A14BF03460123B4FBB9
:1009C000F3F322461349304608F0CAFC4FF0FF32D9
:1009D0001149304608F08EFC10E01C44002FCDD1A8
:1009E0003D46009B9D42C9D233681AF805105B68EA
:1009F0004FF0FF32304698470135F2E701200DF500
:100A0000856DBDE8F08700BFDE390200124A0200A2
:100A1000E7390200FB390200893F02002DE9F04767
:100A20000023BEB00C46534905460C9307F066FE02
:100A300020B9284607F064FE064600E04E4E3146D7
:100A400015A806F04BF9054630B1034632464B492E
:100A5000204608F085FC89E032464949204608F0E6
:100A60007FFC2F460DF1780880230DA915A8CDF83D
:100A70004C80149306F076F9002861D19DF83D3042
:100A8000002B5DD09DF83C100DF13D00CA065BBF08
:100A90000D9B0C9A44229B185BBF0C932D220135B1
:100AA000013711F0010F14BF52232D23BDF83AA0D6
:100AB00011F0020F09900D9814BF4FF0480E4FF03F
:100AC0002D0E11F0040F14BF4FF0530C4FF02D0CEE
:100AD000089011F0200FCAF34510BDF838100790A8
:100AE0004FEAEA20069001F01F000590C1F3431081
:100AF0004FEA612114BF4FF041094FF02D0901F277
:100B0000BC71CDF804C0CDF800E004900391CDF89D
:100B100008901C49204608F023FC4FF0FF321A4988
:100B2000204608F0D3FB41464FF0FF32204608F044
:100B3000CDFB4FF0FF320F49204608F0DBFB91E779
:100B40003A46124900950C9B204608F009FC0BAA76
:100B50000CA9304606F035F940B90B9B0C499A7840
:100B60000C9B20465A43520808F0FAFB01203EB085
:100B7000BDE8F087893F0200163A0200193A0200E8
:100B80003D3A0200583A0200853A0200893A0200D2
:100B9000B33A020070B50C46064607F0B1FD0546B3
:100BA000304607F0ADFD06F0CEF9064A064B074980
:100BB000002808BF13462A46204608F0D1FB012032
:100BC00070BD00BF693C0200733C0200C73A0200DE
:100BD00070B50C46064607F093FD0546304607F013
:100BE0008FFD06F053F9064A064B0749002808BF57
:100BF00013462A46204608F0B3FB012070BD00BF13
:100C0000693C0200733C0200E33A02007FB503AB8B
:100C1000002400930E4602AB02220F490294039473
:100C200007F0F2FB022814D1029C039D20462946BE
:100C300006F032FA094B0A49224600280CBF084642
:100C400018462B4600900749304608F089FB0120E2
:100C500000E0204604B070BD124A0200733C02005E
:100C6000693C0200F53A020030B5ADF50D7D0C4649
:100C7000054607F045FD0A22014603A805F00CFDD4
:100C800040B1284607F03CFD1F490246204608F0C7
:100C900067FB34E08DF8070002901C4942F21073A4
:100CA0007E22204608F05CFB1949204608F058FBDC
:100CB000236842F210721B680DF107012046984725
:100CC00018B19DF807307E2B03D103A805F04DFF26
:100CD00015E002AB01220DF1070103A805F02EFE7D
:100CE00058B9029B012B08D123684FF0FF325B6893
:100CF0009DF8071020469847DAE70649D5E7012016
:100D00000DF50D7D30BD00BF0D3B0200343B0200F0
:100D10006C3B02008C3B02002DE9F04FADF5417DAC
:100D2000002304AC236003930D46009403AB02221E
:100D3000414907F069FB022806D04FF0FF323F49D6
:100D4000284608F0D7FA72E0216817A805F0C6FF18
:100D500010B122683A4906E0039917A805F0BEFFD2
:100D600028B1039A3749284608F0FAFA5FE04FF4B1
:100D700080720DEB020105A807F008FB4FF48072AA
:100D800080A90AA807F002FB20AE80270FA917A8A8
:100D90001596169705F0E6FF002842D19DF84530DC
:100DA000002B3ED09DF8443003F0100303F0FF0AFF
:100DB000002BEBD10DF14503039A234905A807F059
:100DC000E9FC0DF1450322681F490AA807F0E2FC7F
:100DD00005A807F095FC07460AA807F091FC804695
:100DE00005A8DDF83C9007F08BFC83460AA807F0C5
:100DF00087FC534652460146CDF800A0584603F002
:100E000001FC124A124BCDF8009000280CBF184686
:100E100010461049019043463A46284608F0A0FA89
:100E2000B3E70AA807F0C7FA05A807F0C4FA01203B
:100E30000DF5417DBDE8F08F124A0200B33B020080
:100E4000F83B02001D3C02003D3C0200733C0200E6
:100E5000693C0200433C0200F8B50D4624490646B1
:100E600007F04CFC0446074618B1FFF741FB00228F
:100E700008E02049304607F041FC044660B1FFF726
:100E800013FB3A46114600F2352006F095F94FF073
:100E9000FF32194B194922E01949304607F02EFC60
:100EA000044658B1FFF724FB012200F2352105F07A
:100EB000B5FB4FF0FF32134B134910E01349304696
:100EC00007F01CFC044680B1FFF7EEFA012200F2A5
:100ED000352105F0A3FB0E4B0E494FF0FF320028E1
:100EE00018BF1946284608F005FA2046F8BD00BF8D
:100EF000CA3C0200D43C02006C3C0200623C02008E
:100F0000E13C0200893C0200793C0200EA3C02001C
:100F1000AE3C0200A03C020008B508464FF0FF328C
:100F2000084908F0E7F906F061FE4FF4FA6009F0AD
:100F3000CFFB4FF08043AA221A7200221A700120C0
:100F400008BD00BFF63C020010B501200C4607F0BA
:100F500011FA40B100231A46194608F0CBFE4FF0B3
:100F6000FF32054902E005494FF0FF32204608F004
:100F7000C1F9012010BD00BF073D02001D3D020068
:100F800038B5064C236833B91C20FFF779F90546BC
:100F900007F07EFE2560206838BD00BF20C3072013
:100FA0002DE9F04F5F4C91B023680E4633B92C20E9
:100FB000FFF766F9054608F0FFF825602768FFF798
:100FC00073FA00240CAA0DA900F235200D9405F047
:100FD000F8FE48B90C9A0D9C95699378023D5C43E4
:100FE0005D4364086D0800E025464F4B1A6898463B
:100FF0007AB90C20FFF744F98146FFF7C1FF90232F
:1010000089F804300023C9F80000C9F80830C8F88E
:101010000090D8F8000003F0E3FA81460BF04AFB99
:101020000A900BF0A3F9014648460BF0E9F83F4956
:101030000BF0F0F90BF03EFB81460DA809F08CFF98
:1010400004F024FA68B308F059F804F009FA4FF0F4
:10105000000A0346D346D0469A450B930BD0504620
:1010600004F062FA804538BFD3460B9B38BF8046F8
:101070000AF1010AF0E708F059F8642303FB08F3CA
:101080002B4ACDF80880B3FBF2F3C3F1640300935D
:10109000CDF804B02B4622462649304608F060F9C8
:1010A00005E02B4622462449304608F059F9234CE6
:1010B00023681BB90120FFF7E3F82060206803F0E4
:1010C00053FA044607F0A0FFFB8C0A9A0993BB8CE5
:1010D0001B4908939DF83430019003F03F030793B8
:1010E0009DF83530009403F03F0306939DF83630A9
:1010F000304603F01F030593BDF83A30C3F30B03EA
:1011000004939DF8383003F01F0303939DF83930A2
:1011100003F00F0302934B4608F022F9012011B0AF
:10112000BDE8F08F24C3072018C30720000020412A
:10113000A0860100563D02008A3D02001CC3072024
:10114000983D02002DE9F04F0D46C7B05549814644
:1011500007F0FBF954498246484607F0F6F953492F
:101160008346484607F0F1F900270DF1100805AE57
:10117000044602970397C8F800703760BAF1000F71
:1011800045D0009603AB02AA4949484607F02EF91C
:10119000012807DC28464FF0FF32464908F0AAF83C
:1011A00038467CE00DF118084FF480742246394629
:1011B00040460BF0EAFE336813B90123336003E0C5
:1011C000B3F5807F88BF3460FFF7DAFE33689DF89F
:1011D0000C209DF808100093434608F087F9364A22
:1011E000364B3749002818BF1346029A284608F0A4
:1011F000B7F8002433689C424ED2039A18F80430A2
:1012000022443049284608F0ABF80134F2E7BBF13C
:10121000000F2CD0CDF8008003AB02AA2A49484623
:1012200007F0E4F8032807D028464FF0FF3227499B
:1012300008F060F8504632E0FFF7A2FE98F8003060
:101240009DF80C209DF8081008F065F948B1039B43
:101250001F490093D8F80020029B284608F080F828
:101260001AE0029A1B49284608F07AF814E0A8B15F
:1012700002230293029BFE2B10DCFFF781FE9DF8F8
:10128000081008F053F920B1029A1349284608F0D3
:1012900067F8029B0233ECE7012000E0204647B0EC
:1012A000BDE8F08F314B0200013E0200073E020014
:1012B000103E02001F3E0200693C0200733C020027
:1012C000403E0200643E0200743E0200843E020082
:1012D000AB3E0200C53E0200E23E020070B5ADF535
:1012E0000A7D05460C4607F078F80B2802DD0C2233
:1012F00022493CE0284607F003FA0122014601A8F2
:1013000005F0CAF9064668BB01A805F02EFC284680
:1013100007F0F6F91A490246049B204608F020F827
:10132000236820469B6898470A2009F0D1F94FF0BE
:10133000100383F31188BFF36F8FBFF34F8F2846DD
:1013400007F0DEF902460F4B0068516803C390684E
:101350000D4A186043F80C2C4FF08043AA221A72F1
:101360001E7007E0284607F0CBF9024607492046E1
:1013700007F0F6FF01200DF50A7D70BD1C3F02004D
:10138000433F0200484002400DD0ADDE8A3F0200DC
:101390002DE9F041404CA4B023680646DB070D461A
:1013A0000CD420460AF0D0FC40B14FF480600BF022
:1013B00087FD3A4B186020460AF0D2FC3849304687
:1013C00007F0C3F80746044600B38022002104A8B2
:1013D0000BF0DBFD00230293039303AB009304AAFD
:1013E00002AB3049304607F001F82C49029B039AC2
:1013F000096804A813B903F0A1F901E003F0C0F9EA
:10140000294B2A49002818BF194638E02849304698
:1014100007F09BF8074600283AD004AB304603AAF1
:101420002449039404948DF8084006F0DFFF039EDE
:10143000049B3344B3F5806F02DCDFF860800CE07E
:101440004FF480621C4920E0D8F800309DF8082055
:101450009A559DF8083001361C44039B049AF31AF0
:10146000934210DAB6F5806F0DDA2B684FF4FA620A
:101470001B6802A9284698470028E5D10F4928464D
:1014800007F06EFF04E022460D49284607F068FF8A
:10149000384624B0BDE8F0813CC3072038C307209C
:1014A000B53F0200BC3F0200A33F02009F3F020085
:1014B000CC3F0200D33F0200DD3F020001400200AA
:1014C0001140020038B50D4607F01CF90446C0B2C1
:1014D00002F060F8054A064B0649002818BF13467B
:1014E0002246284607F03CFF012038BD693C020037
:1014F000224002002940020030B50C46054687B064
:101500000A4907F02DFFA188238804912189628868
:101510000391E18828460291E17A0191A17A009134
:10152000034907F01DFF07B030BD00BF4040020077
:10153000764002002DE9F0418CB003AB0026009309
:101540000D46904602AB022238490296039606F0F9
:101550005BFFB04266DD02980BF089FAC7B20398D0
:1015600018B10DF013FAC4B200E00446002104A83B
:1015700002F0B0FE30B14FF0FF322D49284607F09F
:10158000B9FEF3E7022318F100010093039A234602
:1015900018BF0121384602F041F9064638B94FF02C
:1015A000FF322449284607F0A5FE01263AE0B8F1AB
:1015B000000F37D04FF47A7104A802F093FE60B3A5
:1015C0009DF81030BB4228D19DF817300C2B04D168
:1015D0003A4606A92846FFF78FFFBCB916492846A8
:1015E00007F0BEFE9DF817309C420ADA04AB1919C9
:1015F0002B684FF0FF325B68097A28469847013420
:10160000F0E70E49284607F0ABFE0BE04FF0FF3243
:101610000B49284607F06EFE04E0029A0949284665
:1016200007F09EFE30460CB0BDE8F081124A020081
:1016300094400200B6400200DE4002000B47020068
:10164000F24002000F4102001FB501A80C4602F053
:10165000C3FA01F0ABFF01A902462046FFF74CFF99
:10166000012004B010BDFFFF30B58BB00AAA4FF4C3
:101670007A730C4642F8243D174906F0B7FE002560
:10168000019902A802F026FED8B19DF8082013495E
:10169000204607F065FE00259DF80F309D420ADACE
:1016A00002AB591923684FF0FF325B68097A204674
:1016B00098470135F0E70A49204607F051FE012519
:1016C000DEE72DB94FF0FF320649204607F012FE43
:1016D00001200BB030BD00BFDA3F020035410200EF
:1016E000883F02004C41020037B50C4602F0D8F8A2
:1016F00005461649204607F033FE15492A4620467E
:1017000007F02EFE1149204607F02AFED5B11149F7
:10171000204607F025FE0D49204607F021FE002552
:10172000E8B202F0A7F8013540B181784378027839
:1017300000912046084907F013FEF1E703492046CF
:1017400007F00EFE012003B030BD00BF5D41020076
:101750007841020092410200AD4102002DE9F347B9
:101760003C4C074626688946002E62D12420FEF7AD
:1017700087FD0423054680E848008660C660202176
:1017800030460CF06BFEAE68E8604FEA8608072E24
:101790000ED81020FEF774FD8246102200210BF0B7
:1017A000F4FBEB68013643F808A008F10408EEE703
:1017B000002608236B604FF00108274B274A284971
:1017C0002846009685F82080256005F081FF254B8E
:1017D000254A26492068009605F07AFF244B254AC1
:1017E00025492068009605F073FF244B244A2549BB
:1017F0002068009605F06CFF234B244A244920689A
:10180000009605F065FF234B234A24492068CDF854
:10181000008005F05DFF224B224A20492068009697
:1018200005F056FF0096204B204A2149206805F01C
:101830004FFF2049384606F061FF18B11E4938466F
:1018400007F016F84A463946206802B0BDE8F0476E
:1018500006F01EB844C30720C8410200024202003D
:10186000091B0100094202005D420200DD1801006F
:101870006642020089420200691601008C420200A1
:10188000EB470200C5140100B6420200D24202003A
:10189000E9160100D942020040430200351501005B
:1018A0001A4302003F430200444302005F43020028
:1018B00049160100893F02006543020038B5064C15
:1018C000236833B95820FEF7DBFC054607F0B8FA69
:1018D0002560206838BD00BF40C307202DE9F04FC8
:1018E0000446ADF2DC5D802288460DA800210BF095
:1018F0004CFB802200212DA80BF047FB06AE0023F5
:1019000033600DAA00962DAB7549204606F06EFD9A
:10191000032801D00020DFE001220DA9EDA804F08A
:10192000BBFE05460028F5D1FFF7C8FF33688022CB
:1019300080F853304DA9044608A88DF81750079534
:1019400006F024FD2DAB009333680DAA654940468F
:1019500007F006FDA94607AE33464FF400726DA9A5
:10196000EDA804F033FF002840F0AF803368002B6F
:1019700000F0AB806F1C32685B49204607F0F0FC3A
:10198000236820469B6898477D1E0DF5DA7B4FF053
:10199000000A6DAB3268C3EB0B039A4223680CD983
:1019A000CDF80CB05B684FF0FF321BF8011B2046EE
:1019B0009847039B1B789A44EBE79B68204698471F
:1019C00008A806F09DFE834608A806F009FD4FF41E
:1019D0007A7302465946204607F09AFC20220121DC
:1019E0000DEB020006F038FE08A806F08BFE8245DB
:1019F00020D008A806F086FE524603463B494046E2
:101A000007F0AEFC3A49204607F0AAFC23682046BE
:101A10009B68984723684FF47A721B680DF1170191
:101A2000204698470028F5D1022F07F101034CD832
:101A30001F46A0E733682DAA2E49009320464B4647
:101A400007F08EFC236820469B68984708A806F09C
:101A500057FE824608A806F0C3FC514602464FF4E2
:101A60007A73204607F054FC234908A806F044FD89
:101A7000D0B908A806F044FE20490246404607F0C7
:101A80006FFC1B49204607F06BFC236820469B68CF
:101A9000984723684FF47A721B680DF117012046AE
:101AA00098470028F5D1BFE7154908A806F0E0FEE1
:101AB0003368144999444A46F09B404607F050FC6D
:101AC000002D3FF448AFBD1E45E7EDA805F04DF8E9
:101AD00008A806F070FC01200DF2DC5DBDE8F08F77
:101AE0006A4302007943020090430200A2430200CD
:101AF000883F0200C9430200DF430200E2430200C4
:101B0000893F02001A4402002DE9F047074686B0DB
:101B100006AA002442F80C4D0E463D4906F066FC2C
:101B200020220121384606F097FD039B002B65D04B
:101B3000384606F052FC002860D0FFF7BFFE05468D
:101B40000DF1180808F80D4D2B6805221B68414659
:101B50002846984704460028F6D1039B384685F866
:101B6000533006F0CDFD274601464FF0FF322846A0
:101B700007F0C0FB2B6828469B689847254B0DF162
:101B80001809186849F8044D04902B684FF47A72CC
:101B90001B68414628469847D0B103220DF1150134
:101BA00048460BF0D7F99DF80BA0042204A948463B
:101BB0008DF817A00BF0B4F950B1336801225B68BF
:101BC00051463046013798470028DED10134DCE722
:101BD0001822B7FBF2F302FB137202B101333A464B
:101BE0000D49304607F0BCFB74B1612300932246D7
:101BF0000A4B0B49304607F0B3FB05E04FF0FF32CC
:101C00000849304607F076FB012006B0BDE8F087B2
:101C1000DA3F02001E400200264402004D4402004A
:101C2000894402004245020001480CF0ADBB00BFF0
:101C30006E45020038B504460D4609F093FC074B8B
:101C4000B0FBF3F00223B0FBF3F2AA4204D9B3F5E0
:101C5000807F01D00233F6E7236138BD40420F0098
:101C60007FB500F235260C460122314604F0D6FC41
:101C7000054648BB039002AA03A9304605F0A1F827
:101C800000BB0298039A837802FB03F18269134830
:101C9000023A5A435208B2F5004F38BF0120104BA8
:101CA0004FEA510124BF03464FF48060B1FBF0F1CD
:101CB000B2FBF0F20091019321460A480CF0F2FACF
:101CC000012008E0084B00E0084B2A46214608485E
:101CD0000CF0E8FA002004B070BD00BFAC45020073
:101CE000A9450200B6450200B2450200AF45020018
:101CF000E445020038B5074C23684BB90820FEF7CD
:101D0000BFFA0546FFF73CF9402328602B71256098
:101D1000206838BD50C3072038B5054C256825B963
:101D20000120FEF7ADFA05702060206838BD00BFC5
:101D30004CC3072038B5084C23685BB90C20FEF76C
:101D40009FFA0546FFF71CF990232B7100232860AA
:101D5000AB602560206838BD18C3072010B5044C5F
:101D600023681BB90120FEF78BFA2060206810BDA4
:101D70001CC3072010B5044C23681BB90120FEF7D3
:101D80007FFA2060206810BD48C30720AD49AE4AE5
:101D90004023F0B58B614FF0007393614FF48033B3
:101DA0008B61AA4BADF5057D1868072520F0F00082
:101DB00018601868022440F050001860186820F479
:101DC00040501860086840F040000860186820F42F
:101DD0007C201860186840F428201860186820F4E7
:101DE00070001860186840F420001860186820F02F
:101DF00040401860186840F000401860586820F0B3
:101E00003C005860586840F028005860586820F03E
:101E100003005860086840F480300860586820F477
:101E200040505860086820F480000860D96821F4A8
:101E30004031D960116841F080711160596821F416
:101E400040215960596841F480215960986880495F
:101E500001409960116841F4897141F001011160FC
:101E6000996821F470119960996821F07041996026
:101E7000116821F446411160D96821F03001D96020
:101E8000D96841F03001D960D96821F47011D96066
:101E9000136843F000731360136823F080631360CA
:101EA00006F044FD01210A2009F07CF901210A20F5
:101EB00009F090F96748012105604460FFF7BAFE18
:101EC00007F0ACF80121152009F06CF9012115206B
:101ED00009F080F96048012105604460FFF7AAFE1F
:101EE000FFF74EF8642106F09FFE10B95B480CF036
:101EF0004BFA09F093F902F0C7F910B958480CF001
:101F000043FA4FF4FA6006F0CAFCFFF78DFE09F0C1
:101F100029FB0AF027FA53490AF030FB0AF0A8F827
:101F200002460B4650480CF0BDF909F00FF80528A1
:101F300004AC14D1002363604C4B1B682360FFF793
:101F400073FE4B4B4B48D96C1A6D5B6D00940CF0D3
:101F5000A9F9FFF769FE41F2883006F0A0FCFEF710
:101F6000A3FA4549FFF77CFE054668BB43480CF0E1
:101F700099F903F003FBFEF797FA29462A4600F287
:101F8000352005F019F93E4B3E4A00280CBF10469B
:101F900018460CF0F9F9FEF787FA3749FFF760FEAB
:101FA00090B939480CF0F0F903F06AFA0146374865
:101FB0000CF078F903F054FA054603F061FA00FBDF
:101FC00005F133480CF06EF9324E334F336813F09D
:101FD000010516D1304609F0B7FE90B14FF40E70EE
:101FE000FEF74EF9012380F83432312380F8353280
:101FF0003A2380F8363280F837523860304609F09C
:10200000AFFE26493868264DFFF72AFE18211148F1
:10201000FFF710FEFFF708FE2B684BB90820FEF70C
:102020002FF90646FEF7ACFF3823306033712E607F
:10203000286802F0A0F90546B0BB1A480CF0A4F9D4
:1020400033E000BF00C0092020C0092000C00240CA
:10205000F0FCFCFF0000034000800840284602001E
:1020600059460200002474497E4602004440024062
:1020700000400240964602000E470200164702004A
:102080001C46020017460200534702007247020036
:102090008147020028C307202CC30720983C020078
:1020A00058C307209C4702000125FFF743FE02F0BA
:1020B0006DFA064618B972480CF066F93546FFF716
:1020C00019FE02F0DBF9064618B96E480CF05CF90F
:1020D00035466D4E33681BB90120FEF7D1F83060EC
:1020E000306802F099F9FFF739FE02F03BFAFFF78A
:1020F00013FE02F007FAFFF73DFE02F038FAFFF791
:102100000BFE002102F000FA8DB9FFF78DFDFFF7FD
:10211000F1FD2D2102F09AF9FFF7ECFD2D2102F0DF
:10212000A1F9FFF7F9FDFF2102F0EEF90CE0FFF74E
:10213000E1FD0546FFF7FEFD02F052FA0AF0E0FA73
:10214000C1B2284602F0C1F91022002120460AF04F
:102150001CFF00230F2221464C4802F0CDFA80B923
:1021600020460AF084FCC5B2284601F013FA484A1A
:10217000484B2946002818BF1346444A46480CF0ED
:1021800091F8FFF7EBFD02F0EFF9054600200DF0A6
:1021900089FB28440CF000F94FF40072002120461E
:1021A0000AF0F3FE204609F079F821463B480CF08E
:1021B00079F8FFF739FD8022002120460AF0E5FE7C
:1021C000204603F039F92278FF2A04D0214634480A
:1021D0000CF068F829E0FFF7CDFD02F0CBF90928F3
:1021E0001DD130480CF0D0F821462F480CF0E0F912
:1021F00021462E480CF056F82D480CF0C5F8002367
:1022000003A92C4803930CF0D3F99DF80C30592BFB
:1022100003D1204603F0EEF807E0274803E0274803
:102220000CF0B2F826480CF0AFF84FF208031D6826
:102230004FF20C031C684FF210031E684FF47043FA
:102240001A684FF20403AD0A1968A40A1D480CF07D
:1022500029F82A4621461C480CF024F831461B4830
:102260000CF020F8FFF7E0FC012005F0F5FC184821
:102270000CF08AF8FFF7D8FC0DF5057DF0BD00BF26
:10228000B7470200D147020054C30720EA470200C3
:102290002246020022400200F0470200DA57020004
:1022A00024480200404802006248020067480200D9
:1022B00082480200C5480200C9480200E148020005
:1022C0000F490200414902006D4902009A4902008B
:1022D000B749020001207047012070470120704774
:1022E00010B5044C23681BB90120FDF7C9FF20601D
:1022F000206810BD54C307200120704738B504463C
:102300000F4B00250360636DE06DAB4205D950F8BB
:102310002500FDF7B7FF0135F5E708B1FDF7B4FF7C
:102320000025A36B206CAB4205D950F82500FDF7C2
:10233000A9FF0135F5E708B1FDF7A6FF204638BD36
:10234000F049020010B50446FFF7D8FF2046FDF71C
:1023500099FF204610BD2DE9F04104460E46C068A5
:1023600089000CF07BF8A568E060AF004FF0000832
:10237000AE420DD90C20FDF783FFE368C0F8008062
:10238000C0F8048080F808800135D8510437EFE7A1
:102390006660BDE8F081FFFFF7B5044600250B46F7
:1023A0004FF480520095254905F0CAFF244B0426BE
:1023B00023606663A563E5632564022104F13400AC
:1023C000FFF7C9FF26656565A565E56528466021B7
:1023D0000CF044F8A56DE065AE00172D0CD8102068
:1023E000FDF74EFF0746102200210AF0CEFDE36DF7
:1023F00001359F510436F0E718236365012384F803
:102400007030104E0023A4F87430A4F87630A3671F
:10241000002200230027C4E92023C4E9226708F032
:1024200027FF4FF47A7200230AF08AF98019794164
:10243000C4E92001204603B0F0BD00BF084A0200F5
:10244000F0490200C0D401002DE9F0410F7A144692
:102450004D680E688FB1082A23D1284605F0BDFFCC
:1024600000281CDD4FF0FF321349304606F02EFFE6
:102470000121284606F0B0F808E00A2A19D00D2AF2
:1024800012D02146284606F0C8F997B13368214694
:102490003046BDE8F0415B684FF0FF321847072433
:1024A000F4E70A2A02D1F1E7BDE8F0810D2AEDD068
:1024B000E7E7BDE8F08100BF114A0200F8B5044625
:1024C000142015460F46FDF7DBFE8021064606F078
:1024D00054F9A36BE26B9A4206D3616B591803D28D
:1024E00004F13400FFF737FFE36B226C591C52F8FC
:1024F0002330E1631F605E601D72F8BD2DE9FF4768
:10250000CF6B06460D4601AC3FB94FF47A7008F028
:10251000DFF801976760A76047E00B6C0DF11008CA
:102520001B6893E8070084E80700002308F80D3DC6
:1025300007F096FF81460027EB6B9F4263D22B6C1E
:102540004FEA870A53F827301868037C002B34D0F1
:10255000036800221B684146984770B3EB6B9F42AB
:102560002DD22B6C53F80A3093E8070084E807005B
:102570009DF8032021462846FFF766FF08F078FE05
:102580004FF47A7200230AF0DBF8D5E92223801891
:102590005941C5E92001029805F01FFF074602983E
:1025A00005F01EFF013887420CDB94E8070086E83F
:1025B0000700304604B0BDE8F0870137BCE705F1FD
:1025C0004403D1E7D5E92223134324D008F050FE79
:1025D0004FF47A7200230AF0B3F8D5E92023994228
:1025E00008BF904217D308F043FE4FF47A720023DD
:1025F0000AF0A6F8D5E92223801859410023C5E93D
:1026000020010193D1E707F02BFF8145C3D10220C0
:1026100008F05EF8BFE79DF803300A2B88D1C4E7C5
:10262000F0B5054685B020480BF03CFE294601A8D0
:10263000FFF764FF019C1CB91C480BF0A5FE30E0BD
:10264000029E304605F0C9FE00282ADD08F010FE83
:102650000746F8B1B5F8743005F150000133A5F81C
:1026600074302246314605F013F9114B00251868E5
:10267000009023681DF805105B684FF0FF3220467C
:1026800001359847042DF4D108F0F2FDC11B09482B
:102690000BF008FE304605F0A5FE236820469B6837
:1026A0009847012005B0F0BD144A0200893F02009E
:1026B000E44902001A4A020038B5064C236833B9CF
:1026C0002C20FDF7DDFD054606F076FD256020682F
:1026D00038BD00BF24C3072010B50446FFF7ECFF48
:1026E00003682146BDE810405B684FF0FF32184791
:1026F00013B5002302AC04F8013DFFF7DDFF0368CA
:102700004FF0FF321B68214698479DF8070002B042
:1027100010BDFFFF2DE9F04100F150048AB0002503
:102720000646009520465B4B5B4A5C4904F0D0FFAF
:10273000009520465A4B5B4A5B4904F0C9FF00955F
:1027400020465A4B5A4A5B4904F0C2FF0095204686
:10275000594B5A4A5A4904F0BBFF00952046594B41
:10276000594A5A4904F0B4FF00952046584B594A3B
:10277000594904F0ADFF00952046584B584A594935
:1027800004F0A6FF00952046574B584A584904F0DC
:102790009FFF00952046574B574A584904F098FF31
:1027A00000952046564B574A574904F091FF009533
:1027B0002046564B564A574904F08AFF009520465A
:1027C000554B564A564904F083FF00952046554B19
:1027D000554A564904F07CFF00952046544B554A13
:1027E000554904F075FF00952046544B544A55490D
:1027F00004F06EFF00952046534B544A544904F0B0
:1028000067FF00952046534B534A544904F060FF3C
:1028100000952046524B534A534904F059FF009506
:102820002046524B524A534904F052FF0095524BF6
:10283000524A5349204604F04BFFFFF73DFF4FF447
:10284000807320224FF41641054606F095FC804621
:1028500001272F744B48FDF78BFD4B48FDF782FD98
:102860003A4629463046FFF729FE082203A905A863
:1028700005F08CFD05A8454905F0FAFF2A4605A993
:10288000204605F005F805A805F095FD40460AB07C
:10289000BDE8F081304A0200724A020039050100A9
:1028A000674A0200774A0200210601007F4A0200BF
:1028B0008D4A0200A10F0100944A0200D54A02008D
:1028C00045060100DA4A0200364B020019090100F0
:1028D0003A4B0200C84B0200990801007C4B0200F1
:1028E000C74B0200190D0100CB4B0200F94B02004F
:1028F0001D0A0100FC4B0200214C0200950B010057
:10290000274C0200544C02000D0C0100574C0200F1
:1029100059620200690C01007C4C02009F4C0200CD
:10292000D10B0100A24C0200754D020045110100BF
:10293000794D0200BC4D0200590E0100C44D020049
:10294000D74D0200190F0100DE4D0200DD4E0200DE
:1029500009070100E14E0200094F0200490F010082
:102960000F4F0200754602005D170100394F02004B
:102970002D50020091130100F64F0200DB3C0200D3
:10298000DD120100F1260100D92601006543020095
:10299000427001707047FFFF0378012B05D002D30E
:1029A000022B06D07047074904E0074940780A68BF
:1029B00003E006490A6840780123834022EA0303C2
:1029C0000B60704700C0092020C0092040C00920CA
:1029D0000378012B05D002D3022B06D0704707499C
:1029E00004E0074940780A6803E006490A6840782D
:1029F0000123834013430B60704700BF00C00920D0
:102A000020C0092040C009200378012B08D002D340
:102A1000022B09D07047427801239340054A07E012
:102A200042789340044A03E0427801239340034AEA
:102A30009361704700C0092020C0092040C00920D0
:102A40000378012B08D002D3022B09D070474278BB
:102A500001239340054A07E042789340044A03E08B
:102A6000427801239340034AD361704700C0092094
:102A700020C0092040C009200378012B07D002D3D1
:102A8000022B07D0704740780123074A05E04078C1
:102A9000064A02E04078064A0123834009B1936167
:102AA0007047D361704700BF00C0092020C00920D3
:102AB00040C009200378012B06D003D3022B10D18C
:102AC000094B05E0094B03E0094A4178526902E0ED
:102AD00041785A6901238B40134214BF0120002022
:102AE00070470020704700BF40C0092000C0092087
:102AF00020C009202DE9F3410678447885782246E4
:102B0000314601A8FFF744FF012E25D002D3022E43
:102B10004CD056E00B2C09D8434964000B680322C3
:102B200002FA04F423EA04040C604AE00F2C05D1F5
:102B30003D4A136823F04043136042E0103CE3B287
:102B40000E2B3ED8384964004B68032202FA04F485
:102B500023EA04044C6034E0012C0FD9042C05D185
:102B6000314A936823F4407393602AE0A4F1080388
:102B7000022B03D9A4F10E03012B09D82A496400C2
:102B80008B68032202FA04F423EA04048C6018E040
:102B9000103CE3B20F2B14D823496400CB68032206
:102BA00002FA04F423EA0404CC600AE00D2C08D8ED
:102BB0001D4964000B69032202FA04F423EA0404A9
:102BC0000C6101A8FFF7E8FE184F194C4FF0000800
:102BD00001A8FFF76FFF06463B78002BFCD10EB132
:102BE000B046F5E7B8F1000FFAD065B1237883F06D
:102BF0000103237023780BB10E4800E00E480BF060
:102C0000C3FB0E4A0CE00E4A137883F001031370E5
:102C100023780BB10B4800E00B480BF0B5FB0B4AD7
:102C2000136801331360DBE700C0024061C3072073
:102C300062C3072058500200695002005CC307209D
:102C400060C307207C5002008D50020064C307203F
:102C500073B50678447885782246314601A8FFF797
:102C600097FE012E25D002D3022E4CD056E00B2C1D
:102C700009D8374964000B68032202FA04F423EAF6
:102C800004040C604AE00F2C05D1314A136823F08C
:102C90004043136042E0103CE3B20E2B3ED82C4977
:102CA00064004B68032202FA04F423EA04044C6033
:102CB00034E0012C0FD9042C05D1254A936823F464
:102CC000407393602AE0A4F10803022B03D9A4F116
:102CD0000E03012B09D81E4964008B68032202FAF7
:102CE00004F423EA04048C6018E0103CE3B20F2BD8
:102CF00014D817496400CB68032202FA04F423EACB
:102D00000404CC600AE00D2C08D8114964000B695A
:102D1000032202FA04F423EA04040C6101A8FFF779
:102D200057FE01A8FFF78CFE0A480BF02DFB0A4C5A
:102D30000A4E2378002BFCD115B1094B197800E01D
:102D4000317881F0010101A8FFF796FEF1E700BF9D
:102D500000C00240A050020061C3072060C30720EA
:102D600062C30720F7B59020FDF78AFA04460321D5
:102D7000234F0125FFF710FB224E2046002405F0CB
:102D8000B1FA01940095204B4FF480621F493846F8
:102D900007F020FA019400951D4B4FF480621D4905
:102DA000304607F017FA019400951B4B4FF48062F0
:102DB0001A49384607F00EFA01940095184B4FF463
:102DC00080621849304607F005FA234601940095C1
:102DD0004FF480621449154807F0FCF923464FF47C
:102DE0008062019400951249124807F0F3F92046D9
:102DF000214605F085FA4FF0FF3003B0F0BD00BF6B
:102E0000512C0100F52A010040510200B650020089
:102E10004F500200CB50020052500200E05002001E
:102E200055500200F55002000A5102003D310100E8
:102E300016510200392E01002DE9F04F89B0002211
:102E4000012101A8FFF7A4FD0122114602A8FFF706
:102E50009FFD0422012103A8FFF79AFD082201210A
:102E600004A8FFF795FD04A8FFF7B2FD03A8FFF73C
:102E7000AFFD02A8FFF7ACFD01A8FFF7A9FD0121F6
:102E80000F2205A8FFF784FD05A8FFF785FDFEF7D3
:102E900031FFA74F06ACB84603C884E8030005A875
:102EA000FFF708FE0028FAD00021012520463D70DA
:102EB00001F00BFB01A8FFF7A7FD4FF4FA7007F034
:102EC00007FC04A8FFF7BCFD2946204601F0FDFAE7
:102ED0004FF4FA7007F0FCFB04A8FFF795FD03A878
:102EE000FFF7AEFD0221204601F0EFFA4FF4FA7031
:102EF00007F0EEFB04A8FFF7A3FD03A8FFF7A0FD72
:102F00000321204601F0E1FA4FF4FA7007F0E0FBEC
:102F100004A8FFF779FD03A8FFF776FD02A8FFF7E5
:102F20008FFD0421204601F0D0FA4FF4FA7007F02B
:102F3000CFFB04A8FFF784FD03A8FFF765FD02A8F7
:102F4000FFF77EFD0521204601F0BFFA4FF4FA702D
:102F500007F0BEFB04A8FFF757FD03A8FFF770FDBD
:102F600002A8FFF76DFD0621204601F0AEFA4FF4EE
:102F7000FA7007F0ADFB04A8FFF762FD03A8FFF7A6
:102F80005FFD02A8FFF75CFD0721204601F09DFAD6
:102F90004FF4FA7007F09CFB04A8FFF735FD03A877
:102FA000FFF732FD02A8FFF72FFD01A8FFF748FD4C
:102FB0000821204601F089FA4FF4FA7007F088FBE7
:102FC00004A8FFF73DFD0921204601F07EFA4FF4E9
:102FD000FA7007F07DFB04A8FFF716FD03A8FFF7C2
:102FE0002FFD0A21204601F070FA4FF4FA7007F025
:102FF0006FFB04A8FFF724FD0B21204601F065FAC2
:103000004FF4FA7007F064FB04A8FFF7FDFC03A877
:10301000FFF7FAFC02A8FFF713FD0C21204601F090
:1030200054FA4FF4FA7007F053FB04A8FFF708FDB9
:103030000D21204601F049FA4FF4FA7007F048FBE1
:1030400004A8FFF7E1FC03A8FFF7FAFC0E212046D5
:1030500001F03BFA4FF4FA7007F03AFB04A8FFF7CF
:10306000EFFC0F21204601F030FA4FF4FA7007F020
:103070002FFB04A8FFF7C8FC03A8FFF7C5FC02A8B4
:10308000FFF7C2FC01A8FFF7BFFC4FF4FA7007F08E
:103090001FFB04A8FFF7D4FC03A8FFF7D1FC02A88C
:1030A000FFF7CEFC01A8FFF7CBFC10214D1C2046FA
:1030B00001F00BFAEDB2052007F00AFB642D29465A
:1030C000F4D1DFF87090DFF870A00A26D9F800205C
:1030D00064207243B2FBF0F1DAF8003000FB1121FA
:1030E000B3FBF6F206FB12330B449D420CD9294682
:1030F00005F1FF3B204601F0E8F95FFA8BFB052064
:1031000007F0E6FA5D46E1E72946204601F0DDF9E1
:1031100004A8FFF779FC03A8FFF776FC02A8FFF7E5
:1031200073FC01A8FFF770FC002388F80030B6E6B6
:1031300061C307205CC3072064C30720F7B5FEF70F
:10314000D9FD03C88DE80300684601F097F90546EC
:1031500068466C4601F0AEF92DB111480BF014F938
:10316000104E114D17E01148F8E7114B2A681F68FF
:103170000A235A436421B2FBF1F001FB1020B7FB94
:10318000F3F203FB1273C118C9B2204601F09DF996
:103190001E2007F09DFA3378002BFCD1E5E700BF35
:1031A0002551020061C307205CC307203351020090
:1031B00064C3072010B54FF6FF74242303FB0101FD
:1031C000884209D043782BB1038C1344A34228BF13
:1031D000234603842430F3E710BDFFFF37B50023F7
:1031E00002A840F8043D0C4B04215B6898470B4B48
:1031F000019A1C680546141B1A60042122460848DF
:10320000FFF7D8FF224602210648FFF7D3FF281C0C
:1032100018BF012003B030BD68C3072038C40720A1
:103220007CC3072055C4072008B50B4B19780378D9
:103230008B420A4B0BBF1A889A880132013214BFA5
:103240009A801A80064B8170DB68202198470030F5
:1032500018BF012008BD00BF05C007200DC407200E
:1032600068C307200A4B02781B789A42094B0BBFB0
:10327000DA881A89013201320CBFDA801A810379A7
:10328000C3F3C202073262F3C5030371FFF7CCBF79
:1032900005C007200DC4072010B50749002311F809
:1032A00023409A00844202D10348104410BD0133E8
:1032B000042BF4D1002010BD27C4072070B1C378BF
:1032C0000133DBB2FF2BC37008D105480023C118BE
:1032D000CA7804335208102BCA70F8D1704700BF67
:1032E00027C40720242202FB01010346024630B511
:1032F000914206D01446243212F8235C002DF7D1F7
:103300000FE00446002599420BD01A79C2F3C2009F
:103310001A8C42EA0042AA4284BF1C461546243356
:10332000F1E7204630BDFFFF38B50546C90001F181
:103330000804FFF753FF1C4B2A781B789A4204D1EC
:1033400002211A48FFF7CEFF0CE004211848FFF7CE
:10335000C9FFEB7833B990F82330042443F080039D
:1033600080F82330002380F8203080F82130024696
:103370002B4690F8231080F8224021F07F01C4F3FF
:1033800006240C4380F8234005F1200153F8044B38
:103390008B4242F8044BF9D1064A0379127862F362
:1033A000C503037138BD00BF05C0072055C4072001
:1033B0007CC3072004C0072008B5FFF76DFF034654
:1033C000D8B9FFF769FF0346B8B90D4AD378D17968
:1033D000D07A8B4296BF1946131D1346814294BF83
:1033E0000846084BD17B084A814238BF134607493B
:1033F00000221A60CA7A0132CA72184608BD00BF9C
:1034000027C407202FC4072033C407200DC407207A
:103410002DE9F84F05460C464FF0240909FB021927
:10342000DFF868A1DFF868B14E1C4FF000084C458A
:1034300000F09A8094F823301A0624D5B5B12A7882
:1034400061788A4205D16F7816F8010C874200F046
:103450008D80E87850B16878884207D116F8011C51
:10346000914203D1A979A27991427FD094F8222088
:10347000218C03F07F0342EA0323994271DB20464B
:10348000FFF7D2FE72E06278002A6AD06DB3297924
:1034900001F0C001C02917D116F8010C69788842E3
:1034A00002D12878904261D0E778A87887420CD181
:1034B00091420AD116F8010C2978884205D1A079E9
:1034C000A979884201D151E079B1A878E1788842A0
:1034D0000BD16978914208D116F8010C29788842FD
:1034E00003D1A079A979884246D094F82210208C83
:1034F00003F07F0341EA0323984232DB237984F807
:103500002080C3F3C201CFB284F821801FB12046CE
:10351000FFF7A8FE25E003F0C003C02B19D016F872
:10352000010C9AF80030984213D1E3789A4210D0F7
:103530007BB16379032262F307136371E170204664
:10354000FFF790FE23799BF8002062F3C5032371F7
:1035500000E001276078FFF79FFE08B1C0F8008007
:1035600027B92434243662E7BDE8F88F24220021ED
:10357000204609F00AFDF4E7237984F820806FF3F0
:10358000C50384F821802371EBE700BF05C0072045
:1035900004C00720431EDBB2FD2B9DBF024B1870F9
:1035A00001200020704700BF05C00720014B18789C
:1035B000704700BF05C0072007289CBF014B18704B
:1035C000704700BF04C007202DE9F7430446914629
:1035D0001E469DF828500F46002966D0364B93F8BA
:1035E0000080414563D00F2E61D8002861D0202291
:1035F000002109F0CAFCFF2F237914BF09F0030250
:10360000002262F38713032262F302032B4A6770DE
:10361000127884F8008062F3C503294A2371137875
:1036200084F802800133DBB21370A3710BAB0193FA
:1036300015B94FF001081BE004F10809019AE0797F
:103640001346526853F8081B00EB02085FFA88F82B
:10365000013DB8F1180F0193EDB207D8484409F0C5
:103660006EFC84F80780002DE8D1E2E74FF00008F7
:10367000DFF850900123384689F80030FFF70CFE40
:103680000546FFF71BFE002389F80030637925B952
:1036900066F307136371E57005E0AA7862F3071318
:1036A00063716B78E370404603E0084601E0002058
:1036B000FFE703B0BDE8F08305C0072004C0072082
:1036C0000CC4072019C40720124B012270B51A70D0
:1036D00004461E4608B9002518E0FFF7A5FD05467B
:1036E0000028F8D0237903F0C003402B06D0C02B6C
:1036F0000AD1E37853B162789A4207D061792046C3
:103700000909FFF711FE01E0802BF7D00023337089
:10371000284670BD19C4072082B02DE9F0439146B8
:10372000421ED2B28DB0FD2A05460E4615939DF875
:10373000688001D9002057E0002BFBD0179F002F95
:10374000F8D0199B002BF5D0189B002BF2D0169BBC
:10375000002BEFD048220021264809F016FC9022C9
:103760000021254809F011FC10220021234809F00E
:103770000CFC234B00241C605C609C60214B1C6093
:103780005C609C60204B1D70204B214D1E7015AE5F
:103790000FCE0FC53368182221461E482B6009F052
:1037A000F4FB494617221B480BF036F92146204608
:1037B000B8470028BED0B8F1000F02D1FFF70EFDC8
:1037C00012E006230293144B224601930123009337
:1037D000FF2104A8FFF7F8FE0028ABD004A8FFF7EC
:1037E00073FF0028A6D0E9E70DB0BDE8F04302B0B2
:1037F000704700BF55C407207CC3072027C407209B
:103800001BC407200DC4072005C007201AC40720C9
:1038100068C307203CC407204351020030B5182B71
:103820008DB016D8B2FA82F41D1C18BF01256409A8
:10383000AC420ED00293019200950A469DF84030AA
:10384000014604A8FFF7C0FE18B104A8FFF73CFF2B
:1038500000E000200DB030BD13B5537914781B097A
:10386000009302460B4620460321FFF7D7FF02B024
:1038700010BDFFFF00231A4630B5084C14F8235042
:10388000990035B1904202D10448084430BD01325C
:10389000D2B20133042BF1D1002030BD27C4072060
:1038A00000231846044A12F8231009B10130C0B2AF
:1038B0000133042BF7D1704727C407202DE9F041CD
:1038C00088B020220021684609F05FFBA14B1B78DD
:1038D00003F0FF04002B40F039819F4F20213B690A
:1038E00068469847002800F084809C4D6B8801331F
:1038F0006B80FFF7D5FF9DF80420A87202F0070344
:10390000032B04D0964A137843F0010309E0954B4A
:103910001D789DF80230AB4205D1914A137843F0EF
:1039200002031370E4E0C2F3C2029DF800E09DF8C8
:1039300006008D49D6B204EB440313F801C0F445E8
:103940000BD10B4493F801C0844506D1997801242A
:103950008E1B18BF01269A7018E00134042CEAD19E
:1039600082490B689A70804A587002F109008342BC
:1039700083F800E040F0C9800A609DF800009DF8DF
:103980000230834240F0C480002426469DF80200A5
:10399000FFF712FD9DF8022002709DF80220427090
:1039A00000228270FFF78AFC04B116B39DF8003044
:1039B000AB4200F09C809DF80160FF2E1BD13B685C
:1039C00020216846984720B9654A137843F00403DC
:1039D00013709DF8053003F00F02511C61F30303CF
:1039E0008DF80530C3F303139A4202DA6846FFF7F5
:1039F0001BFC00247CE0B5422BD164B99DF8073054
:103A00004BB13B6820216846984720B9544A137847
:103A100043F0040313709DF8043003F0C003402BFF
:103A200012D19DF807306A4613B91821504808E0B2
:103A30000C214A48FFF710FF002858D100216A46A0
:103A40000846FFF709FF52E09DF80330002B4ED1E6
:103A5000F4E7484B1B78002BCBD09DF8054004F0D1
:103A60000F074FEA14184745C3DA013767F3030419
:103A70003046FFF711FC8DF805409DF80340A54244
:103A800021D19DF8041001F0C001402906D0A1F118
:103A900080035A425A41144610B90CE0012260B129
:103AA000C029437805D19E4203D0003318BF0123BB
:103AB00004E0002302E0C0290ED10346134303F0C3
:103AC000010420B908E094B908B941460CE04378F4
:103AD0008DF80330857802E000258DF803506846A4
:103AE000FFF7A2FB1CB129466846FFF71DFC6C4698
:103AF000FFF774FB204604221F49FFF789FC0222CE
:103B00001E492046FFF784FC20E003330B6034E7B6
:103B100085423FF439AFFFF74FFC0446FFF7CEFB79
:103B200023783BB19DF80530A27803F00F03934250
:103B30003FF72AAF9DF8003023709DF80230637084
:103B40009DF80530C3F30303A3701DE708B0BDE87B
:103B5000F08100BF19C4072068C307200DC40720E7
:103B600054C4072005C007201BC4072000C007203D
:103B70003CC407201AC407207CC3072055C4072073
:103B800000231846094AD118497809B10130C0B25A
:103B90002433902BF7D1064B5A780AB10130C0B2CA
:103BA00093F825300BB10130C0B270477CC30720B9
:103BB00055C4072008B5FFF76FFB064B28B1827884
:103BC000187802FB0000C00008BD1878182358437D
:103BD00008BD00BF04C0072003490B6803604B68A1
:103BE00043608B68836070470DC4072070B53E4CFE
:103BF0004FF48035E5613D4CA0602046C5683B4CE4
:103C0000ED06FBD4A0680D46C0B20BB923465FE0B9
:103C10002346002A63D0072A0E782DDD9E604E7859
:103C2000083A9E608E789E60CE789E600E799E6087
:103C30004E799E608E799E6001F10806C97999607F
:103C400099694907FCD5A1682970A1686970A168C4
:103C5000A970A168E970D968C906FCD4A1680835C3
:103C600005F8041CA16805F8031CA16805F8021CEE
:103C7000A16805F8011C1AE0032A1ADD9E604E783F
:103C8000043A9E608E789E600E1DC9789960D9684E
:103C9000C906FCD4A168043505F8041CA16805F820
:103CA000031CA16805F8021CA16805F8011C314637
:103CB000AFE701319E60013ADE68F606FCD4A668E3
:103CC000013505F8016CA4E7E668F606FCD4A668A1
:103CD0006E1AB24203DD15F8016B9E60F4E7024BE9
:103CE0004FF480329A6170BD00C009200080084006
:103CF00007B5002302A901F8013D01231A4600F08F
:103D00001F00FFF773FF9DF8070003B05DF804FB89
:103D100013B502AC04F8011D00F01F0000230122BE
:103D2000214640F02000FFF761FF02B010BD08B54A
:103D30001720FFF7DDFFC0F3001008BD702107203A
:103D4000FFF7E6BF0A4600230146A020FFF74EBF5B
:103D500008B50020FFF7CCFFBDE8084000F0FE01E9
:103D60000020FFF7D5BFFFFF024B4FF08072DA61F2
:103D7000704700BF20C0092008B50020FFF7B8FF3A
:103D800040F00101C9B20020FFF7C2FF024B4FF023
:103D900080729A6108BD00BF20C009202021072041
:103DA000FFF7B6BF00231A461946E120FFF71EBFF2
:103DB00037B504460D46FFF7F5FF20462946FFF7C5
:103DC000C1FF0D4B4FF080721C469A610022ADF886
:103DD0000620BDF8063001339BB2ADF8063033B98A
:103DE0004FF08073E361FFF7DDFF03B030BDFFF7F5
:103DF0009EFF0028EDD0F3E720C0092008B517206A
:103E0000FFF776FF00F0010080F0010008BD4021BF
:103E10000720FFF77DBF08B50A4601230146612050
:103E2000FFF7E4FEC0F3420008BD00231A4619461E
:103E3000E220FFF7DBBE70B5064600200D461446B3
:103E4000FFF756FF16B100F0BF0002E040F040005F
:103E5000C0B215B100F0DF0101E040F0200114B163
:103E600001F0EF0101E041F010010020BDE87040D9
:103E7000FFF74EBF10B504460020FFF739FF14B915
:103E800000F0F7010DE0012C04D100F0FB0141F03E
:103E9000080106E0022C14BF40F0080140F00C01BC
:103EA000C9B20020BDE81040FFF732BF08B50020BE
:103EB000FFF71EFFBDE8084040F00201C9B2002034
:103EC000FFF726BF08B50020FFF712FFBDE8084046
:103ED00000F0FD010020FFF71BBF40F6DD13984204
:103EE00006D840F66213B0F5166F38BF184600E0EA
:103EF0001846A0F51661C9B20520FFF709BF10B535
:103F000004460620FFF7F4FEFA2C00F0D70102D198
:103F100041F0200104E0B4F5FA6F08BF41F0080158
:103F20000620BDE81040FFF7F3BE10B5044606209A
:103F3000FFF7DEFE032C28BF032420F0060040EA32
:103F40004401C9B20620BDE81040FFF7E1BEF928E0
:103F50004FF0FA0305D9B0F57A6F88BF4FF47A6055
:103F600000E01846B0FBF3F00F2900F1FF30C0B2BB
:103F700028BF0F2141EA0011C9B20420FFF7C8BED3
:103F80001130C0B2162804D8202928BF2021FFF7FD
:103F9000BFBE7047032804D0042814BF03210221A8
:103FA00000E001210320FFF7B3BE0A4600230146CB
:103FB0003020FFF71BBE0A46002301462A20FFF7E8
:103FC00015BEFFFF73B50E4615460446FFF72DFFDD
:103FD000FFF7E8FE2B4B4FF08072DA61FFF772FFBC
:103FE000002211460120FFF726FFFFF7A7FE02205F
:103FF000FFF740FF3046FFF770FF2846FFF77FFFCF
:104000000320FFF792FF03210220FFF781FE00212A
:104010000120FFF77DFE03214FF4FA70FFF797FFB1
:1040200021460020FFF7ACFF00211220FFF770FEB1
:1040300000211320FFF76CFE00211420FFF768FE1B
:1040400000211520FFF764FE00211620FFF760FE17
:104050000D4B18681B79009005208DF80430FFF790
:1040600099FF68460521FFF7A0FF05216846FFF785
:10407000A2FFFFF71BFF4FF4FA6004F0FBFB02B056
:1040800070BD00BF20C009204A51020070B5174E14
:10409000326822B92021032005F00AFE3060144D59
:1040A0002A6822B92021012005F002FE2860114C67
:1040B000216821B90322012005F0FAFD20604FF4A8
:1040C000FA6240F6C3112020FFF77CFFFFF754FE91
:1040D0001620094A012104F08FFD306828B12868B4
:1040E00018B12068003018BF012070BDA4C407209B
:1040F000A0C40720A8C40720A541010070B503791A
:10410000014603F0C003C02B0CBF0E4B0E4B88B012
:104110001D68002306461A46284605F0EBFD0446B6
:1041200060B9034602466946284605F0E9FE234683
:1041300022463146284605F0DDFD0446204608B0FB
:1041400070BD00BFA0C40720A4C4072038B5044632
:104150000D46FFF72BFA237883420AD0E37843B960
:104160000AF042F9BD2300F0030000FB033004F025
:1041700081FBFFF7F9FDFFF7EBFDA9B22046FFF742
:1041800017FEFFF70BFEFFF7F7FD06F0BDFC022858
:1041900004D1034B0021186805F080FE012038BDD2
:1041A000A8C4072007B5002302A941F8043D084B25
:1041B000186805F073FE019B3BB1064B4FF080522F
:1041C0001A60BFF34F8FBFF36F8F03B05DF804FB2E
:1041D000A8C4072004ED00E038B504460D46FFF7FB
:1041E0000DFE48B1A9B22046FFF715FEFFF706FE07
:1041F00008B9FFF70CFE012038BD2DE970430546D4
:104200000E46144606F080FC022807D12246002301
:104210003146284605F074FEC4B21DE007F028F8C8
:104220004FF47A72002308F08BFA10EB040841F186
:10423000000900231A463146284605F061FEC4B243
:1042400054B907F015F84FF47A72002308F078FAA1
:10425000894508BF8045ECD22046BDE8708304291B
:1042600038B5054603D1041C18BF012400E0002422
:1042700006F0FEFF2CB14FF47A72002308F060FACA
:104280002860204638BDFFFF00B50C4B8DB0099368
:104290000B4B0C4A0B930C4B0A930CAB43F8102DB1
:1042A000002204920FCB8DE80F00084B084A012131
:1042B0006A20FFF731FA0DB05DF804FB8D40010074
:1042C000D94101005F4201004D410100FD40010064
:1042D0004F510200024B0A4601461868FFF78DBF96
:1042E000A4C40720024B0A4601461868FFF785BFA1
:1042F000A0C4072008B506F007FC0F4B02285B6935
:1043000013D15A020DD5FFF73BFC00280B484FF0A4
:10431000000314BF01224FF0FF321946006805F078
:10432000EFFDBDE80840FFF7C9BA5B02F9D5FFF71A
:1043300027FC0028F5D108BD00C00920A8C407202B
:1043400013460A460179006805F0E5B81FB500225A
:1043500004AB047923F8042D0222009200680A4677
:10436000214605F0C3F89DF80C009DF80D3043EA96
:10437000002004B010BD10B5044619222A21FFF711
:10438000DFFF0D222179206805F0B4F8A0F12A039F
:104390005842584110BDFFFF044A13881F2B9FBF8E
:1043A000581C1080024A42F823107047B0C40720FE
:1043B000B4C40720154AF0B513881646012B21D93D
:1043C000134A00201546013B984206DA51681468EA
:1043D0000130091B42F8041BF6E700210C466A680D
:1043E0004FF0010E02EB52008AB2934208DD55F8FD
:1043F00022700131B8423CBF0EFA02F21443F3E7D7
:10440000044B1C6000233380F0BD00BFB0C4072004
:10441000B4C40720ACC4072008B50121022006F06F
:10442000C1FE084B01209A6A22F007029A629A6A3A
:1044300042F006029A62044AD36843F03003D36024
:1044400008BD00BF0080004000C0024008B5044B1A
:10445000417101F07F015A5C0321FFF771FF08BD34
:104460005451020008B5044B817101F07F015A5C80
:104470000221FFF765FF08BD5451020038B504461C
:104480000179006805F052F8054688B1002206213E
:104490002046FFF755FF002207212046FFF750FF77
:1044A0002E212046FFF7D2FF2E212046FFF7DAFF0C
:1044B000284638BD10B504462021FFF7C7FF204627
:1044C000BDE810402021FFF7CDBF642370B5B1FBDC
:1044D000F3F404FB1311CCB20A21B4FBF1F501FB98
:1044E00015413031C9B20646FFF7BCFF092C88BF21
:1044F00005F130013046BDE8704094BF2021C9B2BB
:10450000FFF7A4BF0120704738B50D46044606F0FA
:1045100033FC05F00F032370114B15F0010F4FF022
:10452000010214BFDA619A61227812F0020F4FF093
:10453000020214BFDA619A61227812F0040F4FF080
:10454000100214BFDA619A61227812F0080F4FF45A
:10455000807214BFDA619A61BDE8384006F01CBC75
:1045600020C0092001207047022004F019BA012060
:104570007047FFFF044B5B69180B00F00C00C3F39E
:1045800041231843704700BF20C0092010B50446DE
:1045900081220121FFF7D4FE01222179206804F055
:1045A000A9FF10F0600F14BF0120002010BD38B526
:1045B00000210446FFF7CAFE812205B201212046F0
:1045C000FFF7BEFE102095FBF0F007F0CFFE4FF096
:1045D000765107F01FFFA16807F014FE38BDFFFFFA
:1045E00008B5FFF7E4FF054907F014FF044907F099
:1045F000C5FF4FF0844107F005FE08BD00001041E3
:104600000000A0402DE9F04FADF2546D0C469046ED
:104610000146012282A8994602F03EF8002867D19F
:1046200021460A220DF22C4002F036F8044620B151
:1046300082A802F09AFA20465AE06D4606460746DE
:104640002860019006F014FE4FF47A72002308F0FF
:1046500077F82B4683464FF4007202A982A802F035
:10466000B5F88246E0B92A68D2B106F001FE4FF4EF
:104670007A72002308F064F8B0EB0B00074406F0F0
:10468000F7FD4FF47A72002308F05AF801AB834625
:104690002A6802A90DF22C4002F050F98246B0B10E
:1046A000B8F1000F01D0C8F80070B9F1000F01D0C7
:1046B000C9F80060DDF8783603B11C6082A802F00A
:1046C00054FA0DF22C4002F050FA504610E00199D5
:1046D0002A689142E4D106F0CBFD00234FF47A72B0
:1046E00008F02EF82B68B0EB0B0006441C44A9E739
:1046F0000DF2546DBDE8F08FF0B5ADF50B7D0E46B3
:10470000174601461D460122002301A8009301F02F
:10471000C3FF044670B91DB1294601A802F037FA5B
:104720006B463A46314601A802F050F8044601A80B
:1047300002F01BFA20460DF50B7DF0BDF0B5ADF58E
:104740000B7D0E46174601461D460A22002301A88E
:10475000009301F0A1FF044670B91DB1294601A8DC
:1047600002F015FA6B463A46314601A802F0E6F827
:10477000044601A802F0F9F920460DF50B7DF0BDC5
:10478000F0B5ADF50B7D0E46174601461D461222CB
:10479000002301A8009301F07FFF044680B90DB10A
:1047A000294600E0049901A802F0F1F96B463A4667
:1047B000314601A802F0C2F8044601A802F0D5F97A
:1047C00020460DF50B7DF0BD7F2810B516D931B10F
:1047D000FF2812D80A4B803833F8100010BD084A61
:1047E00032F811408BB2844203D001318029F7D1D5
:1047F0000B4603F18000C0B210BD002010BD00BF09
:10480000D45102000649002331F8132032B182420C
:1048100001D00133F8E7034A32F81300704700BFB4
:10482000D4520200B454020010B501200C4605F029
:10483000E5FA2060003018BF012010BD012070474C
:1048400010B5044606F060F902280AD10023194683
:104850004FF0FF32204605F053FB431E58425841AB
:1048600010BD012010BD10B5044606F04DF9022818
:1048700007D100232046BDE810401A46194605F02E
:1048800039BA10BD10B5044604F038FC24B1012C2F
:1048900006D100F081F901E000F002FD044600E0DD
:1048A000042404F043FC204610BD28B1012801D0A7
:1048B0000420704700F028BA7047F8B507460C4648
:1048C00015461E4604F01AFC3FB1012F0CD13246AA
:1048D0002946204600F020FA04E0324629462046C8
:1048E00000F02AFD044600E0042404F01FFC2046EA
:1048F000F8BDF8B507460C4615461E4604F0FEFB0B
:104900003FB1012F0CD132462946204600F050FA23
:1049100004E032462946204600F030FD044600E01F
:10492000042404F003FC2046F8BD70B506460C468E
:10493000154604F0E3FB36B1012E0AD12946204684
:1049400000F090FA03E02946204600F037FD0446C7
:1049500000E0042404F0EAFB204670BD08B506F030
:1049600087FC4FF47A72002307F0EAFE08BDFFFFD0
:1049700010B5044606F0F6FD074BB0FBF3F002233A
:10498000B0FBF3F2944202D3044A136110BDB3F5B5
:10499000807FF9D00233F3E740420F00000003406C
:1049A000044B9860DA68D206FCD4024B9868C0B217
:1049B000704700BF0000034070B5FFF7CFFF00F560
:1049C000FA74FF20FFF7ECFF0025FF20FFF7E8FF58
:1049D000FF28064605D0FFF7C1FFA94208BFA04245
:1049E000F3D3304670BDFFFF38B5064C4FF000756D
:1049F000E561FFF7E1FF044AA561137843F0010385
:104A0000137038BD20C0092006C007202DE970436F
:104A100006460D46FFF7A2FF643080464FF00009BE
:104A2000FF20FFF7BDFFFF2808D1FFF797FF49459B
:104A300008BF4045F4D30020BDE87083FE28FAD1BA
:104A4000102D06D900224FF40071304604F0F4FA1C
:104A500019E0341D0435FF20FFF7A2FF04F8040C11
:104A6000FF20FFF79DFF04F8030CFF20FFF798FFDE
:104A700004F8020CFF20FFF793FF043404F8050C40
:104A80002B1BDE42E7D1FF20FFF78AFFFF20FFF755
:104A900087FF0120BDE8708370B506460D46FFF71D
:104AA0008BFFFF28044619D12846FFF779FFFD2D1B
:104AB00016D022464FF40071304604F0BDFA20466D
:104AC000FFF76EFF2046FFF76BFF2046FFF768FFFA
:104AD00000F01F00431F5842584170BD002070BDB8
:104AE000012070BD020638B504460D4607D50021E9
:104AF0007720FFF7F7FF012838D804F07F041C4B1C
:104B00004FF000729A61DA61FFF756FFFF28014605
:104B100028D12046FFF744FF280EFFF741FFC5F3D9
:104B20000740FFF73DFFC5F30720FFF739FFE8B265
:104B3000FFF736FF402C17D0482C14BF01208720E8
:104B4000FFF72EFF4C2C02D10846FFF729FF0A2160
:104B5000FF20FFF725FF030608D5013911F0FF01FB
:104B6000F6D138BDFF2038BD9520EEE738BD00BF37
:104B700020C00920064A074913784969DBB2490178
:104B800054BF03F0FD0343F003031370704700BFED
:104B900006C0072020C009202DE9F743FFF7EAFFF0
:104BA000564B1A781E4612F0020F01D01878A1E079
:104BB0000120FFF7DDFE0A24FF20013CFFF7F0FE95
:104BC00014F0FF04F8D14E4F4FF00073FB61214603
:104BD0004020FFF787FF012802D04FF0000875E062
:104BE000FFF7BCFE4FF4D57100F57A754820FFF74A
:104BF00079FF012841D10DF10408FF20FFF7D0FE15
:104C000008F804000134042CF7D19DF80630012B7C
:104C1000E3D19DF80730AA2BDFD12C460025FFF702
:104C20009DFEA94208BFA04206D3FFF797FEA94206
:104C300008BFA042D1D207E04FF08041E920FFF742
:104C400051FF0028EBD1F0E700217A20FFF74AFF5F
:104C50000028C2D10146FF20FFF7A2FE08F801009C
:104C600001310429F7D19DF8043013F0400F14BF2F
:104C70004FF00C084FF0040828E02146E920FFF728
:104C800031FF02282C4635BF4FF002084FF00108D3
:104C90004FF0E9094FF041090025FFF75FFEA942F7
:104CA00008BFA0420BD3FFF759FEA94208BFA0429C
:104CB0000CD34FF400715020FFF714FF06E00021E1
:104CC0004846FFF70FFF0028E7D1ECE70D4B83F8CC
:104CD00000804FF00073BB61B8F1000F07D033784C
:104CE000182003F0FE033370FFF742FE01E0FFF7E8
:104CF0007BFE3078C0B203B0BDE8F08306C0072069
:104D000020C0092034C5072008B5FFF733FF014B49
:104D1000187808BD06C0072070B514460646084638
:104D2000FFF728FF002C39D01E4B1B78DB0737D448
:104D30001D4B4FF00072DA611C4A1D46127812F0CA
:104D4000080F08BF4002012C01460CD15120FFF78B
:104D5000C9FEE0B94FF400713046FFF757FEB0FAD4
:104D600080F4640913E05220FFF7BCFE78B94FF4D9
:104D700000713046FFF74AFE28B1013C14F0FF04F1
:104D800006F50076F3D100214C20FFF7ABFE4FF083
:104D90000073201CAB6118BF012070BD042070BDE2
:104DA000032070BD06C0072020C0092034C507209D
:104DB000F8B5144606460F46FFF7DCFE002C44D03B
:104DC000254B1A78D20742D41B785B0741D4234B7A
:104DD0004FF00072DA61224A1D46127812F0080F75
:104DE00008BF7F02012C0CD139465820FFF77AFE0C
:104DF00018BBFE213046FFF74FFEB0FA80F464097D
:104E00001CE012F0060F03D02146D720FFF76AFE00
:104E100039465920FFF766FE80B9FC213046FFF77E
:104E20003BFE28B1013C14F0FF0406F50076F4D1F6
:104E3000FD210020FFF730FE00B901244FF0007380
:104E4000201CAB6118BF0120F8BD0420F8BD032071
:104E5000F8BD0220F8BD00BF06C0072020C0092011
:104E600034C507207FB50D46FFF784FE05281AD10B
:104E70002B78012B00F0048103D3022B0BD00420EC
:104E800001E1824B586910F0806440F0F980FFF72F
:104E9000ABFD2046F7E07D4B5B6983F08063C3F395
:104EA00080636B70ECE07A4B1B78DB0700F1EA80E3
:104EB0000E2800F2DF80DFE800F008124F53DDDD3E
:104EC000DDDDDDDDAAAFB2BBCB00704B4FF0007271
:104ED000DA61FFF771FDFF3818BF0120CBE0002138
:104EE0004920FFF7FFFD044608B10120C3E010216F
:104EF0006846FFF78BFD0028F7D09DF800309DF83D
:104F000008109B09012B9DF8093006D1013303EBF2
:104F1000012189B2890229606BE09DF807209DF884
:104F20000500920002EB91119DF8062001319202DA
:104F300002F4406211449DF80A2000F00F0000EBDB
:104F4000D2105A00023002F006028318DBB289B296
:104F5000093B01FA03F34BE04FF400732B8059E057
:104F60004C4E337803F0040303F0FF01F3B100214A
:104F7000CD20FFF7B7FD0028B7D1FF20FFF710FDC8
:104F800010216846FFF742FD0028AED03021FF20F7
:104F9000FFF706FD481E10F0FF01F8D19DF80A301A
:104FA00008461A09102393402B6064E04920FFF75C
:104FB00099FD0446002898D110216846FFF726FD88
:104FC000002892D036789DF80A2006F0020606F0F6
:104FD000FF009DF80B3076B1520002F07E0202EB2A
:104FE000D3135A1C9DF80D309B09013B02FA03F3C1
:104FF0002B6020463FE0D90001F01801C2F3840283
:1050000001EB5311531C01FB03332B6033E0214BA5
:105010001B782B7000202EE00021492001E00021A8
:105020004A20FFF75FFD00287FF45FAF10211AE0F0
:1050300000217A20FFF756FD00287FF456AF291D86
:10504000FF20FFF7ADFC05F8010B8D42F8D1E1E739
:105050000021CD20FFF746FD00287FF446AFFF205A
:10506000FFF79EFC40212846FFF7D0FCB0FA80F005
:10507000400900E00420054B4FF000729A6102E005
:10508000002000E0032004B070BD00BF20C0092054
:1050900006C0072034C50720054B1B78253BDBB233
:1050A000032B9ABF034A52F823000020704700BF29
:1050B00038C507209C5602001B4B2DE9F0411D8886
:1050C0000646B5F5007F0F46144602D12A46214612
:1050D00013E0B5F5807F09D12A4621463846B0470E
:1050E0002A4604F5807107F5807016E0B5F5047F57
:1050F00005D1510A89024FF4007238460DE0B5F52A
:10510000847F0ED1140A61024FF480723846B04792
:10511000611C4FF480724902B8183346BDE8F04173
:105120001847BDE8F08100BF36C5072030B52F4CC9
:1051300003462546002958DD07291A782DDDA2608F
:105140005A780839A2609A78A260DA78A2601A794F
:10515000A2605A79A2609A79A26003F10802DB7911
:10516000A360A3695B07FCD5AB680370AB684370B1
:10517000AB688370AB68C370E368DB06FCD4AB68D4
:10518000083000F8043CAB6800F8033CAB6800F85A
:10519000023CAB6800F8013C1AE003291ADDA2606A
:1051A0005A780439A2609A78A2601A1DDB78A3604D
:1051B000E368DB06FCD4AB68043000F8043CAB6861
:1051C00000F8033CAB6800F8023CAB6800F8013C17
:1051D0001346AFE70133A2600139E268D206FCD47E
:1051E000AA68013000F8012CA4E730BD000003409C
:1051F00007B50B0C8DF805308DF807100B0A04214C
:105200008DF804000DEB01008DF80630FFF78EFFDE
:1052100003B05DF804FBFFFFF7B5174606460E4CDA
:1052200040250323E5618DF804300B0C8DF8053023
:105230008DF807100B0A04210DEB01008DF80630E4
:10524000FFF774FF00223946304603F0F5FEA561F2
:10525000A561A56103B0F0BD00C009200E4B40223E
:10526000DA610E4BD7229A601A46D1680B4BC906F9
:10527000FBD49A681A46FF219960D068C006FCD416
:10528000906810F0800FF7D0034B40229A61C0B2B3
:105290009A619A61704700BF00C009200000034076
:1052A000F7B5FFF7DBFF1F4C002323801E4B1F4E7B
:1052B00040271A889B78F7610321054601A8ADF8BD
:1052C00004208DF80630FFF731FF9DF805209DF88A
:1052D00006301F2AB7612146B761B7611CD1A3F11F
:1052E0002502032A18D8124A252B137005F0010055
:1052F00006D1002814BF4FF480734FF4847305E087
:10530000002814BF4FF400734FF404730B80FFF7B1
:10531000C3FE084B400A18600888B0FA80F04009C4
:1053200003B0F0BD36C507209456020000C0092026
:1053300038C507203CC50720F8B58B1817460D4A1D
:10534000013B12680446934210D84D02FFF786FFD6
:1053500000262D1BBE4204EB050209DA2146064851
:10536000FFF7AAFE04F500740136F3E70120F8BD4B
:105370000020F8BD3CC5072019520100F8B58B1874
:1053800017460C4A013B126893420FD80446002688
:10539000C0EB4125BE4204EB050209DA214606486E
:1053A000FFF78AFE04F500740136F3E70120F8BD2B
:1053B0000020F8BD3CC507209D54010008B5072812
:1053C00005D8DFE800F006090E12141414140420A6
:1053D00008BDFFF743FF0AE0FFF75EFE400A0860E2
:1053E00005E04FF400730B8001E001230B60002007
:1053F00008BDFFFF70B590B003466A466E4600F1E7
:105400004005144618685968083303C4AB42224665
:10541000F7D1084D4024EC6100219B20FFF7E8FE06
:1054200021463046FFF782FEAC61AC61AC6110B042
:1054300070BD00BF00C0092070B50646074D40246E
:1054400000217720EC61FFF7D3FE21463046FFF7BD
:105450006DFEAC61AC61AC6170BD00BF00C00920E5
:1054600008B5064B198831F01F0104D0FFF714FE70
:10547000B0FBF1F008BD084608BD00BF36C50720E7
:10548000014B1888704700BF36C50720024B1878BB
:10549000003018BF0120704736C507202DE9F743BB
:1054A0004FF0FF330F46914601938046FFF7D6FE3B
:1054B000FFF7ECFF0646B8B1194C4025194BE561E2
:1054C0001B880320B3F5847F0CBF4FF480714FF429
:1054D00000713943FFF78CFE04210DEB0100FFF74B
:1054E00025FEA561A561A5610D4C402339468220AA
:1054F000E361FFF77DFE01224946404603F09CFD33
:105500003EB1019B02A8013340F8043D0421FFF79E
:105510000DFE4023A361A361A36103B0BDE8F08346
:1055200000C0092036C50720124B37B51B88B3F5DC
:10553000847F0CBF4FF480714FF400714FF0FF3344
:1055400041EA40210193FFF7A1FF68B10A4C4025D1
:105550000320E561FFF74CFE04210DEB0100FFF78E
:10556000E5FDA561A561A5610198431C08BF002068
:1055700003B030BD36C5072000C0092037B5084B41
:10558000084C1868402504210190E5610DEB0100ED
:10559000FFF7CCFDA561A561A56103B030BD00BFDB
:1055A0009756020000C009201FB501A803F068FC4F
:1055B0009DF808309DF8092003F01F0302F00F0248
:1055C0001B0443EA42519DF806309DF8040003F0A5
:1055D0001F0341EAC3229DF80530C0F3440003F0E5
:1055E0003F0342EA4313BDF80A201843520602F172
:1055F0000842104305B05DF804FB30B504460D1FAA
:10560000131B0344032B04D955F8043F44F8043B0F
:10561000F6E79408A3001944A2EB8402013B184466
:105620000A44914204D011F8013B00F8013FF8E729
:1056300030BD0244904202D000F8011BFAE77047E7
:1056400000F10B010023DA0142EA530310F8012BA9
:105650001344884203F0FF03F5D1184670470368EE
:1056600010B50446B3B119460A4611F8010B1F28BC
:1056700002D93A28F8D101E0002010BD591C8A4215
:1056800008D11B78303BD9B2012903D80132184622
:10569000226010BD4FF0FF3010BD03692DE9F041CD
:1056A00001F109020D4663B3416900244E1E2E2705
:1056B00016F8013F0134202B19D0052B48D0092CB6
:1056C00001D117700132A3F1410EBEF1190F0CD8B0
:1056D000082C91F80CE08CBF4FF0100C4FF0080C28
:1056E0001CEA0E0F1CBF2033DBB2137001320B2CEF
:1056F000DED1CB7A2B72CB692B600B8BAB80CB8A44
:10570000EB8000241470AE693EB303690BB900242A
:105710001AE0EB69002BFAD04FF6FF73028C9A4225
:10572000F5D0D0F81C80771E38F8140060B1002145
:10573000FFF74AF80028EAD0EB69013B9C42E6D229
:10574000013407F8010FEFE700233355BDE8F0817E
:10575000092C4FF0E503C8D1B3E7BDE8F081F8B5F7
:10576000056B00F13407044601232A463946407888
:10577000FFF7BFF8A0B9636AE269EB1A93422071A0
:1057800001D30020F8BDE678012EFAD9E369394645
:105790001D442A4601236078FFF7ABF8013EF3E78A
:1057A0000120F8BD03790BB1FFF7D9BF1846704748
:1057B00070B50446FFF7F6FF054680BB2378032B40
:1057C00025D16379012B22D104F1340601464FF42F
:1057D00000723046FFF72DFF4AF65522A4F8322218
:1057E0000F4A3146626302F1FF5202F50052203245
:1057F000C4F8182262696078C4F81C222269C4F8CF
:105800002022226A01322263FFF773F865710022B9
:1058100011466078FFF789F8003018BF012070BD8D
:1058200052526141036B70B58B4205460E4610D053
:10583000FFF7B8FF044608B101240BE0012332460C
:1058400005F134016878FFF738F80028F4D12E63A9
:1058500000E00024204670BD002310B503714FF016
:10586000FF3303630446FFF7DDFFA0B94AF6552373
:10587000B4F832229A4210D1D4F86A30084A23F0A0
:105880007F4393420AD0D4F8860020F07F40801AEC
:1058900018BF012010BD032010BD022010BD00BFA5
:1058A000464154002DE9FF410023036007460846A6
:1058B0001546FFF7D4FE061EC0F2FA80854B53F85A
:1058C0002640002C00F0F680E068FEF7B9FF0028C3
:1058D00000F0F2803C60237883B16078FEF7E5FF4A
:1058E000C1070BD4002D00F0E98000F0040303F0A1
:1058F000FF00002B00F0EB800A20E8E00023F0B26C
:1059000023706070FEF7BEFFC20700F1D9800DB1B1
:105910004307F1D400212046FFF79EFF01281CD148
:105920002146002291F8F6310BB1D1F8FA314DF849
:1059300022300132042A01F11001F3D100265DF872
:1059400026502DB129462046FFF786FF08B90BE007
:1059500002200136042EF2D100E00025032800F0D9
:10596000B18008B10D20B2E0B4F83F30B3F5007F4C
:10597000F8D1B4F84A6006B9A66D94F844E0E6613F
:105980000EF1FF33012B84F803E0EBD894F841309B
:10599000A370002BE6D05A1E1A42E3D1B4F845C0DA
:1059A0001CF00F0FA4F808C0DCD1B4F8472002B9EE
:1059B000626DB4F842100029D4D006FB0EFE01EB54
:1059C0001C177744BA42CDD3D21BB2FBF3F3002BA2
:1059D000C8D040F6F572934203F1020005EB0102D4
:1059E0002F4410D94FF6F5718B426DD9A061256215
:1059F0006262E762BCF1000FB4D1236E4FF003087E
:105A0000A362830018E04FF00108A0612562626282
:105A1000E762BCF1000FA5D0B8F1020F4FEA4003D6
:105A200018BF1B18724418BF00F00100A2621CBF0F
:105A300000EB53034FF0010803F2FF13B6EB532FB3
:105A400090D34FF0FF3363612361B8F1030F4FF040
:105A50008003637122D1B4F86430012B1ED1691C1C
:105A60002046FFF7DFFEC8B94AF65523B4F83222C4
:105A700060719A4212D1626B174B9A420ED103F1B8
:105A8000FF53D4F8182203F5005320339A4201BF84
:105A9000D4F81C326361D4F8203223610F4A84F8B1
:105AA00000801388002001339BB21380E3800EE056
:105AB0000B200CE00C200AE00F2008E0284606E04E
:105AC000032004E0012002E04FF002089DE704B04B
:105AD000BDE8F08144C507205252614140C507200E
