:101000000080001017110000E1100000E310000044
:10101000E5100000E7100000E910000000000000EB
:10102000000000000000000000000000EB100000C5
:10103000ED10000000000000EF100000F1100000B3
:10104000F3100000F3100000F3100000F310000094
:10105000F3100000F3100000F3100000F310000084
:10106000F3100000F3100000F3100000F310000074
:10107000F3100000F3100000F3100000F310000064
:10108000F3100000F3100000F3100000F310000054
:10109000F3100000F3100000F3100000F310000044
:1010A000F3100000F3100000F3100000F310000034
:1010B000F3100000F3100000F3100000F310000024
:1010C000F3100000F3100000F3100000D012000035
:1010D00000000010040000000400001000000000E8
:1010E000FEE7FEE7FEE7FEE7FEE7FEE7FEE7FEE7D8
:1010F000FEE7FEE710B50023934203D21C585C5074
:101100000433F9E710BD00238B4203D200221A50AA
:101110000433F9E7704710B50A4C0B4B9C4205D2DB
:1011200094E807000C34FFF7E5FFF6E70748844230
:1011300005D294E803000834FFF7E5FFF6E700F076
:10114000B9F8FEE7CC100000D8100000E010000055
:10115000324B2022C3F8A0211946D1F8A0012F4B11
:101160004006FAD50322C3F804212D4A00210120AC
:10117000C3F8A811C3F8AC11C3F80C01AA21C3F835
:1011800084205522C3F88C10C3F88C20C3F880004B
:10119000C3F88C10C3F88C202048D0F8883059014F
:1011A000FAD50321AA225523C0F88010C0F88C205C
:1011B000C0F88C30D0F88810184B11F0407FF9D06F
:1011C0002320C3F8A400AA2155220120C3F8AC10A3
:1011D000C3F8AC20C3F8A000C3F8AC10C3F8AC202F
:1011E0000E4BD3F8A8104A05FAD50322AA205521A0
:1011F000C3F8A020C3F8AC00C3F8AC10D3F8A80023
:10120000064A10F4407FF9D0064B002143F23A0021
:10121000C2F8C430C2F8C8111060704700C00F4057
:1012200063000500DE872804044B82B00193019817
:10123000411E01910029FAD102B07047404B4C0089
:10124000134B0001D3F8C42042F00801114AC3F83F
:10125000C410116821F0F0011160116841F05001D3
:101260001160D3F8A82122F0C001C3F8A811802290
:10127000A3F570231A730021074A197111688A08AF
:10128000B2FBF0F1CAB203201A701873704700BFA6
:1012900000C00F4000C0024000000010044B1A7D47
:1012A00002F04001CAB2002AF8D01870704700BF9F
:1012B00000C0004008B5FFF74BFF4FF41640FFF7A2
:1012C000BFFF2D20FFF7EAFFFFF7AEFFF9E7FFFFB3
:0412D00000E1F5053F
:0400000300001117D1
:00000001FF
